:020000040800F2
:10000000000003204DD3000801120008031200086D
:10001000051200080712000809120008000000007D
:100020000000000000000000000000000B120008AB
:100030000D120008000000000F1200081112000845
:10004000A5D30008A5D30008A5D3000819120008FD
:10005000A5D3000821120008A5D30008A5D30008E5
:1000600023120008A5D300082D1200083912000839
:1000700049120008A5D30008A5D30008A5D300089D
:10008000A5D30008A5D30008A5D30008A5D3000870
:1000900059120008A5D30008A5D30008691200086A
:1000A000A5D3000875120008A5D30008A5D3000841
:1000B000A5D30008A5D300088512000895120008F2
:1000C000A5D30008A5D30008A5D30008A5D3000830
:1000D000A5D30008A5120008A5D30008A5D30008E1
:1000E000A5D30008A5D30008A5D30008A5D3000810
:1000F000B5120008BD120008C5120008A5D30008FB
:10010000A5D30008A5D30008CD120008A5D3000888
:10011000A5D30008A5D30008A5D30008A5D30008DF
:10012000A5D30008A5D30008A5D30008A5D30008CF
:0C013000A5D30008A5D30008A5D3000843
:1001400010B5054C237833B9044B13B10448AFF311
:1001500000800123237010BD9401002000000000E6
:100160001CD4000808B5034B1BB103490348AFF387
:10017000008008BD00000000980100201CD4000889
:1001800081F0004102E000BF83F0004330B54FEA48
:1001900041044FEA430594EA050F08BF90EA020FB5
:1001A0001FBF54EA000C55EA020C7FEA645C7FEA48
:1001B000655C00F0E2804FEA5454D4EB5555B8BF6B
:1001C0006D420CDD2C4480EA020281EA030382EADC
:1001D000000083EA010180EA020281EA0303362D6E
:1001E00088BF30BD11F0004F4FEA01314FF4801C41
:1001F0004CEA113102D0404261EB410113F0004F53
:100200004FEA03334CEA133302D0524263EB430309
:1002100094EA050F00F0A780A4F10104D5F1200EA7
:100220000DDB02FA0EFC22FA05F2801841F1000102
:1002300003FA0EF2801843FA05F359410EE0A5F1D6
:1002400020050EF1200E012A03FA0EFC28BF4CF007
:10025000020C43FA05F3C01851EBE37101F00045BD
:1002600007D54FF0000EDCF1000C7EEB00006EEBCA
:100270000101B1F5801F1BD3B1F5001F0CD3490854
:100280005FEA30004FEA3C0C04F101044FEA4452AB
:1002900012F5800F80F09A80BCF1004F08BF5FEA32
:1002A000500C50F1000041EB045141EA050130BD12
:1002B0005FEA4C0C404141EB0101013C28BFB1F524
:1002C000801FE9D291F0000F04BF01460020B1FA6F
:1002D00081F308BF2033A3F10B03B3F120020CDA42
:1002E0000C3208DD02F1140CC2F10C0201FA0CF020
:1002F00021FA02F10CE002F11402D8BFC2F1200C85
:1003000001FA02F120FA0CFCDCBF41EA0C0190403A
:10031000E41AA2BF01EB0451294330BD6FEA040483
:100320001F3C1CDA0C340EDC04F11404C4F120026E
:1003300020FA04F001FA02F340EA030021FA04F380
:1003400045EA030130BDC4F10C04C4F1200220FAD7
:1003500002F001FA04F340EA0300294630BD21FA15
:1003600004F0294630BD94F0000F83F4801306BFDB
:1003700081F480110134013D4EE77FEA645C18BFCF
:100380007FEA655C29D094EA050F08BF90EA020F66
:1003900005D054EA000C04BF1946104630BD91EA5E
:1003A000030F1EBF0021002030BD5FEA545C05D161
:1003B0004000494128BF41F0004130BD14F58004A0
:1003C0003CBF01F5801130BD01F0004545F0FE4114
:1003D00041F470014FF0000030BD7FEA645C1ABF49
:1003E000194610467FEA655C1CBF0B46024650EA80
:1003F000013406BF52EA033591EA030F41F40021AC
:1004000030BD00BF90F0000F04BF0021704730B531
:100410004FF4806404F132044FF000054FF0000106
:1004200050E700BF90F0000F04BF0021704730B5C7
:100430004FF4806404F1320410F0004548BF40429C
:100440004FF000013EE700BF42004FEAE2014FEAF1
:1004500031014FEA02701FBF12F07F4393F07F4FCC
:1004600081F06051704732F07F4208BF704793F0CF
:100470007F4F04BF41F40021704730B54FF46074E2
:1004800001F0004521F000411CE700BF50EA0102E5
:1004900008BF704730B54FF000050AE050EA01028E
:1004A00008BF704730B511F0004502D5404261EBFE
:1004B00041014FF4806404F132045FEA915C3FF43F
:1004C000D8AE4FF003025FEADC0C18BF03325FEADC
:1004D000DC0C18BF033202EBDC02C2F1200300FA8D
:1004E00003FC20FA02F001FA03FE40EA0E0021FAB2
:1004F00002F11444BDE600BF4FF0FF3C06E000BF30
:100500004FF0010C02E000BF4FF0010C4DF804CD9C
:100510004FEA410C7FEA6C5C4FEA430C18BF7FEA5C
:100520006C5C1BD001B050EA410C0CBF52EA430C8A
:1005300091EA030F02BF90EA020F0020704710F10A
:10054000000F91EA030F58BF994208BF90422CBF99
:10055000D8176FEAE37040F0010070474FEA410C92
:100560007FEA6C5C02D150EA013C07D14FEA430CB0
:100570007FEA6C5CD6D152EA033CD3D05DF8040B21
:10058000704700BF8446104662468C461946634653
:1005900000E000BF01B5FFF7B7FF002848BF10F12A
:1005A000000F01BD4DF808EDFFF7F4FF0CBF01206F
:1005B00000205DF808FB00BF4DF808EDFFF7EAFFEB
:1005C00034BF012000205DF808FB00BF4DF808EDA6
:1005D000FFF7E0FF94BF012000205DF808FB00BF9B
:1005E0004DF808EDFFF7CEFF94BF012000205DF825
:1005F00008FB00BF4DF808EDFFF7C4FF34BF012032
:1006000000205DF808FB00BF53B94AB9002908BFB4
:1006100000281CBF4FF0FF314FF0FF3000F088B9C9
:10062000ADF1080C6DE904CE00F006F8DDF804E049
:10063000DDE9022304B070472DE9F047089D8E469E
:1006400004468846002B4AD18A42174662D9B2FA3C
:1006500082F64EB1C6F1200301FA06F820FA03F340
:10066000B74043EA0808B4404FEA174E1FFA87FC28
:10067000B8FBFEF1230C0EFB118843EA084301FB93
:100680000CF29A4209D9FB1801F1FF3080F0EA80A0
:100690009A4240F2E78002393B449A1AA3B2B2FB75
:1006A000FEF00EFB102243EA024300FB0CFC9C45CB
:1006B00009D9FB1800F1FF3280F0D6809C4540F24A
:1006C000D3803B44023840EA0140A3EB0C030021F5
:1006D0001DB1F3400022C5E90032BDE8F0878B422E
:1006E00005D90DB1C5E9000100210846F5E7B3FAC7
:1006F00083F1002946D1734502D3824200F205817D
:10070000841A6EEB030201209046002DE5D0C5E966
:100710000048E2E7002A00F09080B2FA82F6002E4C
:1007200040F0A4808A1A030C4FEA174E80B2BCB284
:100730000121B2FBFEFC0EFB1C2243EA024304FB38
:100740000CF29A4207D9FB180CF1FF3802D29A42F8
:1007500000F2E080C4469B1AB3FBFEF20EFB12339C
:1007600040EA034302FB04F49C4207D9FB1802F160
:10077000FF3002D29C4200F2CA8002461B1B42EAB2
:100780000C40A5E7C1F120068B4022FA06F71F4373
:100790000EFA01F420FA06F32EFA06FE4FEA174984
:1007A000234300FA01F81FFA87FCBEFBF9F01C0C8A
:1007B00009FB10EE44EA0E4400FB0CFEA64502FACB
:1007C00001F209D93C1900F1FF3A80F09C80A6455E
:1007D00040F2998002383C44A4EB0E041FFA83FED9
:1007E000B4FBF9F309FB13444EEA044403FB0CFC8D
:1007F000A44508D93C1903F1FF3E80F08280A4454E
:100800007FD9023B3C4443EA0040A4EB0C04A0FB2C
:1008100002EC64457346E14662D35FD05DB1B8EB4C
:10082000030264EB090404FA06F622FA01F31E43FC
:10083000CC40C5E9006400214FE7B1FBF2FC010C9C
:1008400041EA0E4180B240EA01423B4638463C460E
:10085000B846BE462026B1FBF7F1A2EB080241EAFA
:100860000C4166E7014618E710462CE7C6F1200266
:100870002EFA02F3B740B14020FA02F24FEA174EC7
:100880000A43B3FBFEF8BCB20EFB1833110C41EA6D
:10089000034108FB04F9B04089454FEA104380B298
:1008A0003ED9791808F1FF3C01D289451FD8A1EB48
:1008B0000901B1FBFEF909FB04F80EFB191192B214
:1008C00042EA0142424529D2BA1809F1FF31C4D2A5
:1008D0004245C2D2A9F102013A44BEE7F0459DD299
:1008E000BEEB02036CEB070C0138E14696E7A7EB81
:1008F00009094944A8F1020CB1FBFEF909FB04F80F
:10090000DBE773467FE7504666E70846FDE63B4473
:10091000023A33E7ACF1020C3B441CE749469CE742
:10092000A1EB0901C446B1FBFEF909FB04F8C4E7D9
:10093000704700BF70B588B00024039404940594F8
:10094000069407944FF0B043DA6C42F00402DA6484
:10095000DA6C02F004020292029ADA6C42F00202AD
:10096000DA64DA6C02F002020192019ADA6C42F067
:100970000102DA64DB6C03F001030093009B1E4D5F
:1009800022461321284602F00BF8302303934FF43C
:1009900004160496059403A94FF0904001F026FF39
:1009A000042303930496059403A9284601F01EFF2F
:1009B00013230393012304930594069403A9284663
:1009C00001F014FF22460821084602F08BFA0820A5
:1009D00002F098FA224608210A2002F083FA0A203F
:1009E00002F090FA22460821172002F07BFA172025
:1009F00002F088FA08B070BD0004004800B583B06A
:100A00004FF0B0439A6C42F004029A649A6C02F080
:100A100004020192019A9A6C42F001029A649B6C62
:100A200003F001030093009B002207210B2002F03A
:100A300059FA0B2002F066FA002211460C2002F04F
:100A400051FA0C2002F05EFA03B05DF804FB0000DE
:100A500070B582B0524C20460CF0A6FB4FF47A7170
:100A600020460CF043F820460CF09AF84D4B1860E5
:100A700007EE900AF8EE677A9FED4B7A67EE877A79
:100A8000DFED4A6A87EEA67AF7EE087A67EE277AF4
:100A9000474DC5ED007A20460CF00CFC2E68304620
:100AA000FFF7D2FC04460D463BA3D3E90023FFF732
:100AB000A1FD002836D138A3D3E9002320462946DA
:100AC000FFF77AFD40B1F0EE0C7A07EE106AB4EE53
:100AD000E77AF1EE10FA41DA364C00260196042549
:100AE00000950D23224668216F2003F0BAFB019682
:100AF00000950D2322466D216F2003F0B2FB0823E1
:100B0000019300950D23224672216F2003F0A9FB6B
:100B10000023009377237C2264216E2003F0D0FA17
:100B200002B070BD234C08260196042500950D23C4
:100B3000224668216F2003F094FB019600950D2357
:100B400022466D216F2003F08CFB019600950D234A
:100B5000224672216F2003F084FBD9E7154C002355
:100B60000193042500950D23224668216F2003F090
:100B700078FB0826019600950D2322466D216F20F3
:100B800003F06FFB019600950D23224672216F2022
:100B900003F067FBBCE700BF9A99999999990D40BA
:100BA00098040020000500203333534000F07F45B7
:100BB000FC0400207CD4000810B5044602F024FA9E
:100BC0001B4B1B68C31AC72B07D9042C06D0202C3B
:100BD00012D0102C1ED0164B186010BD154B1B7870
:100BE000002BF4D1144B01221A70144A1378B3FA73
:100BF00083F35B091370EAE70E4B1B78002BE8D1F7
:100C00000F4B01221A700D4B1B7803B10222094BC6
:100C10001A70DEE7074B1B78002BDCD00123084A53
:100C20001370054A1370034B00221A70D3E700BFFC
:100C3000B001002007050020080000200605002064
:100C400009000020064B834200D07047054A137804
:100C500001331370044A137801331370F5E700BFB2
:100C6000B4010020050500200405002072B6FEE74F
:100C700008B50448044B036004F04CFD00B908BDFE
:100C8000FFF7F4FF08040020000C005808B51348D3
:100C9000134B0360134B4360002383600122C26047
:100CA000036143618361C361036203F0DCFD70B9DA
:100CB00000210A4804F04AFB58B90021074804F013
:100CC00073FB40B94FF4801004F09AFB08BDFFF7A6
:100CD000CDFFFFF7CBFFFFF7C9FF00BF44040020A3
:100CE000005400401C0B910008B50B480B4B0360EF
:100CF00064234360002383604FF4C852C2600361E1
:100D00004361836104F0B4FC18B9034804F080FB2C
:100D100008BDFFF7ABFF00BFB40100200044014055
:100D200008B50E480E4B0360002343600F2282601B
:100D300047F6FF72C26003618361C361436104F0DF
:100D40005BFD30B900221146044804F0ABFD10B938
:100D500008BDFFF78BFFFFF789FF00BF00020020EF
:100D60000028004008B51548154B03604FF41643A2
:100D7000436000238360C360036104224261836196
:100D800003624362836207F081FE70B900210B4861
:100D900007F088FF58B90021084807F0A8FF40B9BC
:100DA000064807F060FF30B908BDFFF75FFFFFF7A7
:100DB0005DFFFFF75BFFFFF759FF00BF3C0300201B
:100DC0000080004008B50A480A4B03600A234360CC
:100DD000042383601023C36019230361002343614C
:100DE000836108F037FB00B908BDFFF73FFF00BF84
:100DF00098020020001000A000B587B000230093E7
:100E0000019302930393049305931848184A0260D0
:100E100043608360C36003610422426103764376CA
:100E20000122C26180F820308362C36280F83030D2
:100E3000436380F838300BF06DFD98B90D4B00938B
:100E400006230193072302937F2303930423049330
:100E500000230593694605480BF0A6FE20B907B0AC
:100E60005DF804FBFFF702FFFFF700FF9804002086
:100E7000000004502000F01408B50548054B03603D
:100E8000002343600CF037FA00B908BDFFF7EEFE0F
:100E9000240200200010005800B5A3B04822002111
:100EA00010A80CF080FA002309930A930B930C937B
:100EB0000D930E930F930393049305930693079357
:100EC000089301F091FF4FF0B042D2F8903023F038
:100ED000180343F01003C2F8903002F580621368E3
:100EE00023F4C06343F400731360136803F4C06316
:100EF0000193019B0F2310934FF48033119301232F
:100F000012934FF480731393402314930523159386
:100F100002231B9303231C9310231D9308231E936A
:100F20004FF400331F934FF0005321934FF00073A1
:100F3000209310A800F0F6FC00282CD16F23099311
:100F400003210A9100230B930C930D9380220E92A0
:100F50000F9309A801F072F8F8B94FF0B0439A6DF9
:100F600042F080729A659B6D03F080730293029B3E
:100F7000002303934FF00052049205934BF67F3306
:100F80000693222307932023089303A801F00AFC69
:100F900023B05DF804FBFFF769FEFFF767FE00B5BD
:100FA00095B05022002168460CF0FDF94FF45453DF
:100FB0000093062301934FF4003302934FF0007324
:100FC00003934FF0005304934FF0885305934FF071
:100FD00080630D934FF080530F934FF48043119330
:100FE00010231393684601F064FA10B915B05DF848
:100FF00004FBFFF73BFE000000B583B001F0E2FF09
:1010000004F094FDFFF748FFFFF7C9FFFFF730FE3C
:10101000FFF790FCFFF7F2FCFFF738FEFFF764FEE6
:10102000FFF77EFEFFF79EFEFFF7CCFE0AF0D8FA30
:10103000FFF7E2FEFFF720FF02F0EAF802F060FDA2
:10104000042301930024009403230122052102209C
:1010500002F042FA02F0B2FE02F074FF204603F002
:1010600021F802F0F5FF03F06BF902F0EBFB05202D
:1010700001F0AAFC04F074FD25E003F0B3F9564B2F
:1010800000221A702BE0554B1B78002B30D10F2318
:10109000022213210A2003F070F8002302222721E4
:1010A0000A2003F06AF8002400942B230E22112159
:1010B000082003F005F84A4B1C70FFF7C9FC02F04A
:1010C00065FD04F075FD474B1B78012B1DD0022BED
:1010D00053D0002BF5D1404B1B78002BCDD1404B8A
:1010E0001B78002BCFD13C4B1B78002BE5D0CAE7F7
:1010F0000F23022227210A2003F03FF800230222B7
:1011000013210A2003F039F8CDE7334B1B787BB964
:10111000354B1B78632B29D8344B1B78002BD0D050
:1011200002F00CFB02F04CFB304B00221A70C8E7B7
:10113000002002F0B7FF05230193142400942346F6
:101140002B4A00216B2003F08CF8082301930094B4
:101150000F23284A64216E2003F083F803F06CF912
:1011600002F076FF1C4B00221A70D1E702F00EFD50
:10117000FFF76EFC02F046FDCEE7174B1B7843B934
:1011800005F0C4FB08BB1C4B1B780BBBFFF760FCD6
:1011900097E7002002F086FF0823019314230093B1
:1011A0000F23144A64216E2003F05BF80F23019390
:1011B00000936423114A1946002003F052F802F00C
:1011C00047FF054B00221A70DAE702F09BFBDAE7D3
:1011D00002F0CCFBDAE700BF090000200605002082
:1011E0000800002007050020040500200505002058
:1011F00084090108C009010860340020C008010802
:10120000FEE7FEE7FEE7FEE7FEE770477047704740
:1012100008B501F0EDFE08BD08B505F051F808BDB0
:10122000704708B5042001F0C1FB08BD08B51020C7
:1012300001F0BCFB08BD000008B5024801F06FFDDD
:1012400008BD00BFDC02002008B5024801F067FDC0
:1012500008BD00BF3802002008B5024808F013FF9F
:1012600008BD00BFA82C002008B5202001F09EFB7F
:1012700008BD000008B5024804F000F908BD00BF31
:10128000B401002008B5024803F0FEFC08BD00BF11
:101290004404002008B5024804F016F808BD00BF59
:1012A0004404002008B5024806F08AFF08BD00BFCC
:1012B0003C03002008B505F06BFC08BD08B505F03F
:1012C000FBFB08BD08B501F091FB08BD08B502485D
:1012D00007F09EFF08BD00BF9802002000B583B054
:1012E0004FF0B0431A6D42F400221A651B6D03F4EF
:1012F00000230193019B01F087FD00221146052088
:1013000001F0F0FD052001F0FDFD002211462E2028
:1013100001F0E8FD2E2001F0F5FD03B05DF804FBBF
:1013200000B589B0002303930493059306930793B4
:101330000268124B9A4202D009B05DF804FB4FF0EC
:10134000B043DA6C42F40052DA64DA6C02F4005210
:101350000292029ADA6C42F00102DA64DB6C03F06A
:1013600001030193019B012303930323049303A926
:101370004FF0904001F03AFADEE700BF0000045061
:1013800030B59DB0044600211791189119911A911A
:101390001B91502203A80CF006F82268224B9A42B7
:1013A00001D01DB030BD042303934FF440330B93A1
:1013B00003A801F07EF8002833D14FF0B045EB6C64
:1013C00043F00103EB64EB6C03F001030293029B17
:1013D0004FF4C063179312231893002419941A949E
:1013E00004231B9317A94FF0904001F0FFF9AB6D58
:1013F00043F40013AB65AB6D03F400130193019B41
:10140000224621461E2001F06DFD1E2001F07AFDCE
:10141000224621461F2001F065FD1F2001F072FDCC
:10142000BFE7FFF723FCC8E7005400400268124BF7
:101430009A4200D0704700B583B04FF0B0431A6DA8
:1014400042F480121A651B6D03F480130193019B13
:10145000002211462C2001F045FD2C2001F052FD08
:10146000002211462D2001F03DFD2D2001F04AFD06
:1014700003B05DF804FB00BF000C005870B59CB0D1
:10148000044600211791189119911A911B9150222D
:1014900003A80BF088FF2268284B9A4201D01CB0A9
:1014A00070BD0223039303A801F003F800283ED186
:1014B0004FF0B043DA6D42F00102DA65DA6D02F006
:1014C00001020292029ADA6C42F00202DA64DB6CE8
:1014D00003F002030193019B202617961223189311
:1014E0000025199501231A9308231B9317A9144863
:1014F00001F07CF91348144B0360102343608560AE
:10150000C5608023036145618561C661056201F0A4
:10151000DDFA78B90B4BC4F880309C62002211468A
:10152000252001F0DFFC252001F0ECFCB7E7FFF7F8
:101530009DFBBDE7FFF79AFBECE700BF0080004092
:1015400000040048DC02002008000240F0B589B029
:101550000023039304930593069307930268304B8B
:101560009A4201D009B0F0BD04464FF0B0431A6D65
:1015700042F480721A651A6D02F480720292029A25
:10158000DA6C42F00202DA64DA6C02F002020192D2
:10159000019ADA6C42F00102DA64DB6C03F00103B9
:1015A0000093009B4FF44073039302250495032797
:1015B00006970A26079603A91A4801F017F9CC23C3
:1015C00003930495002505950697079603A94FF008
:1015D000904001F00BF91448144B0360142343604E
:1015E0008560C560802303614FF4007343614FF44D
:1015F00000638361C5614FF40053036201F066FA32
:1016000058B9094B63639C6200221146322001F0F5
:1016100069FC322001F076FCA4E7FFF727FBF0E736
:10162000001000A000040048380200201C00024006
:1016300010B596B004465022002102A80BF0B3FE6C
:1016400022680F4B9A4201D016B010BD4FF40073C0
:1016500002934FF08043109302A800F02AFF58B97C
:101660004FF0B0431A6D42F480221A651B6D03F4EB
:1016700080230193019BE7E7FFF7F8FAF0E700BF4B
:101680000010005810B596B004465022002102A860
:101690000BF089FE2268174B9A4201D016B010BD9C
:1016A00001F0A2FB4FF4006302934FF40073129316
:1016B00002A800F0FEFEC8B94FF0B043D3F8902066
:1016C00042F40042C3F890209A6D42F480629A6519
:1016D0009B6D03F480630193019B0022114603205C
:1016E00001F000FC032001F00DFCD7E7FFF7BEFA84
:1016F000E2E700BF0028004002680E4B9A4200D08B
:10170000704700B583B04FF0B0431A6E42F4003218
:101710001A661B6E03F400330193019B00220F2114
:10172000192001F0DFFB192001F0ECFB03B05DF89C
:1017300004FB00BF0044014030B58DB005468E4625
:101740002B4C94E80F000DF1300C0CE90F0005ABA9
:1017500004F1100207CA83E807000DF1040C1C34E1
:1017600094E80F008CE80F00BEF5007F07D000233F
:1017700014E00CAA02EB830353F82C5C1EE0002358
:10178000032B08D80CAA02EB830252F8102CAA42B1
:10179000EFD20133F4E7002510E00133022B0CD81F
:1017A0000CAA02EB830252F81C2CAA42F5D30CAA15
:1017B00002EB830353F82C5C00E000250D4A13680C
:1017C00023F007032B43136001F01EFC0446094B72
:1017D0001B6803F00703AB4206D001F015FC001BA9
:1017E0000228F4D9032000E000200DB030BD00BF76
:1017F00034D400080040005810B5B02816D90E4B5C
:10180000DC6A4FF0B043D3F8083103F00F030B4A02
:1018100052F82330B4FBF3F401F0EEFA0146084B22
:10182000A3FB0434A00CFFF787FF10BDC0F3031027
:10183000014B53F82040E4E784D40008E4D40008C6
:1018400083DE1B434FF0B0439B6813F00C030DD1B4
:101850004FF0B0431B6803F0F003B02B04D81B0912
:10186000254A52F823007047B023F8E7042B3ED0F6
:10187000082B10D04FF0B043DB6803F00303022BBA
:1018800031D0032B0FD14FF0B0431B6813F4801FEE
:101890002BD11A4812E04FF0B0431B6813F4801F9D
:1018A00027D0174870474FF0B0431B6803F0F00390
:1018B000B02B16D81B09104A52F823004FF0B04243
:1018C000D368C3F3062303FB00F0D368C3F302130A
:1018D0000133B0FBF3F0D3685B0F0133B0FBF3F0DF
:1018E0007047B023E6E70648E8E70548E6E704481E
:1018F00070470248704700BF84D400080048E801E0
:101900000024F40008B5FFF79DFF4FF0B0439B683B
:10191000C3F30313024A52F82330B0FBF3F008BDBF
:10192000E4D40008002800F0728338B50446036848
:1019300013F0200F2DD04FF0B0429368D26802F020
:10194000030213F00C0358D00C2B54D0E369002B86
:1019500000F0A0804FF0B042136843F00103136021
:1019600001F052FB05464FF0B0431B6813F0020F25
:1019700000F08880636A4FF0B042116821F0F001F6
:101980000B431360216A536823F47F4343EA012326
:101990005360236813F0010F00F09A804FF0B042BB
:1019A000936803F00C03D26802F00302082B00F0E6
:1019B0008B800C2B00F085806368B3F5803F00F0CE
:1019C000B0804FF0B042136823F480331360636833
:1019D000002B00F0AD8001F017FB05464FF0B0433F
:1019E0001B6813F4003F73D101F00EFB401B642809
:1019F000F4D9032016E3012AA8D1E369002B00F0F3
:101A00000883606A4FF0B0431B6803F0F003B02B0B
:101A100021D8984221D9FFF7EFFE002840F0FB8241
:101A2000636A4FF0B042116821F0F0010B4313607C
:101A3000216A536823F47F4343EA01235360FFF78D
:101A400061FFBF4B1860BF4B186801F093FA002884
:101A50009FD00120E6E2B023DBE74FF0B0421368ED
:101A600023F0F00318431060216A536823F47F4386
:101A700043EA01235360606AFFF7BEFE0028DED010
:101A80000120CFE201F0C0FA401B02287FF66BAFC5
:101A90000320C7E24FF0B042136823F00103136044
:101AA00001F0B2FA05464FF0B0431B6813F0020F85
:101AB0003FF46FAF01F0A8FA401B0228F3D90320CE
:101AC000B0E2032A7FF478AF6368002B00F0A582B0
:101AD000236813F0020F54D04FF0B042936803F024
:101AE0000C03D26802F00302042B33D00C2B2FD04E
:101AF000E368002B71D04FF0B042136843F4807359
:101B0000136001F081FA05464FF0B0431B6813F4EF
:101B1000806F2DD101F078FA401B0228F4D9032000
:101B200080E24FF0B042136843F4803313604EE715
:101B300001F06AFA05464FF0B0431B6813F4003F0A
:101B4000C6D001F061FA401B6428F4D9032069E291
:101B5000022ACDD1E368002B00F0618221694FF0A9
:101B6000B042536823F0FE4343EA0163536008E048
:101B700021694FF0B042536823F0FE4343EA01630A
:101B80005360236813F0180F00F0DE806269002AAA
:101B900000F0A38013F0100F70D04FF0B043D3F8D3
:101BA000943013F0020F2ED14FF0B042D2F894309F
:101BB00043F00103C2F8943001F026FA05464FF0D5
:101BC000B043D3F8943013F0020F1CD101F01CFA8B
:101BD000401B0228F3D9032024E24FF0B0421368DF
:101BE00023F48073136001F00FFA05464FF0B04301
:101BF0001B6813F4806FC4D001F006FA401B022862
:101C0000F4D903200EE24FF0B042D2F8943043F002
:101C10000403C2F8943001F0F7F905464FF0B043E1
:101C2000D3F8943013F0080F06D101F0EDF9401B02
:101C30000328F3D90320F5E1A1694FF0B042D2F8AF
:101C4000943023F4706343EA0123C2F89430D2F84D
:101C5000943023F00103C2F8943001F0D5F9054621
:101C60004FF0B043D3F8943013F0020F6CD001F072
:101C7000CBF9401B0228F3D90320D3E14FF0B04247
:101C8000D2F8943043F00103C2F8943001F0BCF96B
:101C900005464FF0B043D3F8943013F0020F06D14D
:101CA00001F0B2F9401B0228F3D90320BAE14FF04A
:101CB000B042D2F8943023F00403C2F894304FF0CD
:101CC000B043D3F8943013F0080F3DD001F09CF9E5
:101CD000401B0328F3D90320A4E14FF0B042D2F80F
:101CE000943023F00403C2F8943001F08DF90546D6
:101CF0004FF0B043D3F8943013F0080F18D14FF0E1
:101D0000B042D2F8943023F00103C2F8943001F0CD
:101D10007BF905464FF0B043D3F8943013F0020F2F
:101D200012D001F071F9401B0228F3D9032079E1A8
:101D300001F06AF9401B0328DAD9032072E100BFE1
:101D4000100000200C000020236813F0040F68D05E
:101D5000B74B1B6813F4807F27D0A368012B35D0C5
:101D6000052B3CD04FF0B043D3F8902022F0010275
:101D7000C3F89020D3F8902022F00402C3F89020FA
:101D8000A368DBB301F040F905464FF0B043D3F848
:101D9000903013F0020F44D101F036F9401B41F2AC
:101DA00088339842F1D903203CE101F01DF801F09D
:101DB0002BF905469E4B1B6813F4807FCDD101F0B3
:101DC00023F9401B0228F5D903202BE14FF0B04244
:101DD000D2F8903043F00103C2F89030D0E74FF0D2
:101DE000B043D3F8902042F00402C3F89020D3F817
:101DF000902042F00102C3F89020C1E701F004F9FD
:101E000005464FF0B043D3F8903013F0020F08D0DE
:101E100001F0FAF8401B41F288339842F1D90320CF
:101E200000E1236813F0400F33D0A36AC3B14FF031
:101E3000B042D2F8983043F00103C2F8983001F074
:101E4000E3F805464FF0B043D3F8983013F0020F93
:101E50001FD101F0D9F8401B0228F3D90320E1E09B
:101E60004FF0B042D2F8983023F00103C2F8983016
:101E700001F0CAF805464FF0B043D3F8983013F09C
:101E8000020F06D001F0C0F8401B0228F3D903204E
:101E9000C8E0E36A002B00F0C4804FF0B0429168C4
:101EA00001F00C01D268022B19D00C2900F0BD8082
:101EB0004FF0B042136823F08073136001F0A4F870
:101EC00004464FF0B0431B6813F0007F00F097808A
:101ED00001F09AF8001B0228F3D90320A2E002F0D7
:101EE0000303206B83420AD00C2900F09C804FF042
:101EF000B0431B6813F0806F22D0012092E002F003
:101F00007003606B8342EFD1C2F30623A06B834260
:101F1000EAD102F47813E06B8342E5D102F060630A
:101F2000206C8342E0D102F06042636C9A42DBD1C4
:101F30004FF0B0431B6813F0007F44D0002071E0E5
:101F40004FF0B042136823F08073136001F05CF827
:101F500005464FF0B0431B6813F0007F06D001F038
:101F600053F8401B0228F4D903205BE04FF0B04245
:101F7000D36830491940236B606B0343A06B43EA7D
:101F80000023E06B0343206C0343606C034319435D
:101F9000D160136843F080731360D36843F08053BB
:101FA000D36001F031F804464FF0B0431B6813F0E2
:101FB000007F06D101F028F8001B0228F4D9032085
:101FC00030E000202EE04FF0B0431A6842F08072FB
:101FD0001A60DA6842F08052DA6001F015F80446BF
:101FE0004FF0B0431B6813F0007F06D101F00CF8EE
:101FF000031B022BF4D9032014E0002012E04FF061
:10200000B042D1680C4B0B40D36000200AE00120A5
:102010007047012006E0012004E0012002E00120D9
:1020200000E0002038BD0120FCE70120FAE700BFF6
:10203000000400588C80C111FCFFFEEE002800F067
:10204000278170B50C460546934B1B6803F00703C8
:102050008B422DD32B6813F0020F3FD12B6813F066
:10206000200F53D12B6813F0400F6AD12B6813F067
:10207000040F40F083802B6813F0080F40F0978026
:102080002B6813F0010F00F0DE806B68022B00F06C
:10209000A880032B00F0AD80002B40F0B2804FF001
:1020A000B042126812F0020F40F0B1800120EEE061
:1020B000794A136823F007030B43136000F0A4FF71
:1020C0000646754B1B6803F00703A342C2D000F01D
:1020D0009BFF801B0228F4D90320D8E0AB684FF0A7
:1020E000B0418A6822F0F00213438B6000F08CFF4D
:1020F00006464FF0B0439B6813F4803FAED100F02A
:1021000083FF801B0228F4D90320C0E06B694FF0E5
:10211000B041D1F8082122F0F0021343C1F8083190
:1021200000F072FF06464FF0B043D3F8083113F4C5
:10213000003F97D100F068FF801B0228F3D90320ED
:10214000A5E0A9694FF0B042D2F8083123F00F039F
:1021500043EA1113C2F8083100F056FF06464FF06B
:10216000B043D3F8083113F4803F7FF47FAF00F021
:102170004BFF801B0228F2D9032088E0EB684FF068
:10218000B0418A6822F4E06213438B6000F03CFFA8
:1021900006464FF0B0439B6813F4003F7FF46BAFEB
:1021A00000F032FF801B0228F3D903206FE0296979
:1021B0004FF0B042936823F4605343EAC103936045
:1021C00000F022FF06464FF0B0439B6813F4802FC7
:1021D0007FF456AF00F018FF801B0228F3D90320CC
:1021E00055E04FF0B042126812F4003F0FD10120C9
:1021F0004DE04FF0B042126812F0007F07D101208D
:1022000045E04FF0B042126812F4806F42D04FF0B8
:10221000B0418A6822F0030213438B6000F0F4FEA1
:1022200006464FF0B0439B6803F00C036A68B3EBBB
:10223000820F08D000F0E8FE801B41F288339842FC
:10224000EFD9032023E0144B1B6803F00703A342DC
:1022500015D9114A136823F007032343136000F0D4
:10226000D3FE05460C4B1B6803F00703A34206D0C0
:1022700000F0CAFE401B0228F4D9032007E0FFF754
:1022800041FB064B186000F0C5FE00F073FE70BD08
:10229000012070470120FAE700400058100000209C
:1022A00008B5FFF72FFB4FF0B0439B68C3F3022341
:1022B000034A52F8233003F01F03D84008BD00BF83
:1022C000C4D4000808B5FFF71DFB4FF0B0439B686E
:1022D000C3F3C223034A52F8233003F01F03D8404C
:1022E00008BD00BFC4D400084FF0B041D1F8883019
:1022F000020902F47F2223EA0203000100F47F2096
:102300000343C1F88830704770B505464FF0B042BE
:10231000136823F08063136000F076FE04464FF0EC
:10232000B0431B6813F0006F06D000F06DFE001B79
:102330000228F4D9032400E000240CB1204670BD2B
:102340004FF0B0431A6922F4FE42296842EA0122A2
:102350001A611A6922F4781269680A431A611A68C4
:1023600042F080621A6000F04FFE06464FF0B04324
:102370001B6813F0006F05D100F046FE801B022899
:10238000F4D90324002CD9D14FF0B0421369296944
:102390000B431361D2E770B505464FF0B0421368A6
:1023A00023F08063136000F02FFE04464FF0B0432B
:1023B0001B6813F0006F06D000F026FE001B0228F9
:1023C000F4D9032400E000240CB1204670BD4FF086
:1023D000B0431A6922F4FE42296842EA01221A61D6
:1023E0001A6922F06062A9680A431A611A6842F009
:1023F00080621A6000F008FE06464FF0B0431B688A
:1024000013F0006F05D100F0FFFD801B0228F4D906
:102410000324002CD9D14FF0B042136929690B4332
:102420001361D2E770B505464FF0B042136823F050
:102430008063136000F0E8FD04464FF0B0431B6872
:1024400013F0006F06D000F0DFFD001B0228F4D966
:10245000032400E000240CB1204670BD4FF0B043CF
:102460001A6922F4FE42296842EA01221A611A69B5
:1024700022F06042E9680A431A611A6842F08062F9
:102480001A6000F0C1FD06464FF0B0431B6813F020
:10249000006F05D100F0B8FD801B0228F4D9032499
:1024A000002CD9D14FF0B042136929690B43136155
:1024B000D2E770B50446036813F0400F2FD0036BCA
:1024C000B3F5800F14D00AD833B90430FFF71CFFDE
:1024D0000646A0B1054624E001252E4621E0B3F5CD
:1024E000000F18D0B3F5400F17D001252E4618E085
:1024F0004FF0B042D36843F48033D3600026236B9F
:102500004FF0B041D1F8882022F440021343C1F8C3
:102510008830002505E00026F1E70026EFE70025DA
:102520002E46236813F4006F0AD04FF0B043D3F85F
:10253000905005F44075236CAB4240F0B7803546AF
:10254000236813F0010F09D0A3694FF0B041D1F80F
:10255000882022F003021343C1F88830236813F067
:10256000020F09D0E3694FF0B041D1F8882022F47E
:1025700040621343C1F88830236813F0100F0CD069
:10258000A16A4FF0B042D2F88830080C000423EA68
:10259000000343EA0143C2F88830236813F0200F98
:1025A0000CD0E16A4FF0B042D2F88830080C000439
:1025B00023EA000343EA0143C2F88830236813F09A
:1025C000040F40F0B480236813F0080F40F0B3808C
:1025D000236813F4807F13D0636B4FF0B041D1F8C0
:1025E000882022F040621343C1F88830636BB3F156
:1025F000006F00F0A480636BB3F1806F00F0A480E3
:10260000236813F4007F17D0A36BB3F1804F05D07C
:10261000B3F1004F02D0002B40F09E804FF0B0414C
:10262000D1F8882022F040421343C1F88830A36BD0
:10263000B3F1C05F00F0A280236813F4806F13D061
:10264000E36B4FF0B041D1F8882022F040521343A1
:10265000C1F88830E36BB3F1005F00F09680E36B64
:10266000B3F1805F00F09680236813F4805F09D097
:10267000636C4FF0B041D1F8942022F440421343F0
:10268000C1F89430236813F4005F0DD0E26C4FF072
:10269000B043596A21F030010A435A62A26C596A68
:1026A00021F003010A435A62284670BD00F09CFBEA
:1026B0005DB9236C4FF0B041D1F8902022F4407204
:1026C0001343C1F8903035463AE74FF0B043D3F8A2
:1026D0009020D3F8901041F48031C3F89010D3F8D3
:1026E000901021F48031C3F8901022F44072216CD4
:1026F0000A43C3F89020D3F8903013F0010F12D0A2
:1027000000F082FC05464FF0B043D3F8903013F050
:10271000020F0AD100F078FC401B41F28833984246
:10272000F1D903250CE735460AE7354608E7206A64
:10273000FFF7DAFD47E7606AFFF7D6FD48E7CB68A9
:1027400043F08073CB6056E7201DFFF724FE00287E
:102750003FF456AF054653E723F080534FF0B042A5
:10276000D2F8881021F04041C2F88810D2F88810C1
:1027700021F040610B43C2F8883058E74FF0B04277
:10278000D36843F08073D36056E7CB6843F480335B
:10279000CB6064E7201DFFF745FE00283FF464AFDF
:1027A000054661E74FF0B0439A6B42F080729A633E
:1027B0009A6B22F080729A630368426813438268BE
:1027C0001A43C3681343026943EA0242064B5A6044
:1027D0001A6822F47C52416942EA01221A601A689E
:1027E00042F060021A60704700600040F0B50023BC
:1027F00066E085685E000324B44025EA0405CC68E1
:10280000B4402C438460456825EA0C054C68C4F349
:1028100000149C402C43446063E0DD08083550F808
:10282000254003F0070C4FEA8C0C4FF00F0E0EFA08
:102830000CFE24EA0E0E0C6904FA0CF444EA0E04B1
:1028400040F8254064E0042400E0002404FA0EF47B
:102850002C430CF1020C4F4D45F82C404E4C256892
:10286000D44325EA02064F6817F4801F01D042EADC
:102870000506494D2E606D6804EA05064F6817F499
:10288000001F01D042EA0506434D6E60D5F8805026
:1028900004EA05064F6817F4803F01D042EA0506B6
:1028A0003D4DC5F88060D5F884502C404E6816F434
:1028B000003F01D042EA0504374AC2F884400133A0
:1028C0000A6832FA03F464D04FF0010C0CFA03FCEE
:1028D0001CEA0202F3D04C6804F00304013C012C12
:1028E00087D94C6804F00304032C0CD0C4685D0045
:1028F0004FF0030C0CFA05FC24EA0C0C8C68AC407D
:1029000044EA0C04C4604C6804F00304022C84D034
:1029100004684FEA430E4FF0030C0CFA0EFC24EA55
:102920000C0C4C6804F0030404FA0EF444EA0C04A2
:1029300004604C6814F4403FC1D04FEA930C0CF192
:102940000205144C54F8255003F0030E4FEA8E0E86
:102950000F2404FA0EF425EA0405B0F1904F3FF479
:1029600074AF0E4CA0420ED004F58064A0420CD08F
:1029700004F58064A0420AD004F58064A0423FF4CC
:1029800062AF072462E7012460E702245EE70324C4
:102990005CE7F0BD0000014000080058000400485A
:1029A0000AB18161704781627047000008B5054B2C
:1029B000DB68034200D108BD024BD860FEF7FCF88B
:1029C000F9E700BF000800582030054B53F82020DD
:1029D000044B9A4201D0012070470020704700BF8D
:1029E00000140058000400807047000008B5054B33
:1029F000D8681A6822EA00021A605860FFF7F4FFEC
:102A000008BD00BF0015005830B4C46C056D65608A
:102A1000446D14B1846DC56D6560446C04F01C0C8C
:102A2000012404FA0CF4056C6C600468636083682C
:102A3000102B05D0036899600368DA6030BC7047DA
:102A400003689A600368D960F8E700000368104AD9
:102A5000934215D8426C22F0030202F1804202F543
:102A600002328264DBB2083B0A4AA2FB03230A4A11
:102A7000C264C3F30413012202FA03F3036570472F
:102A8000426C22F00301054A0A448264EAE700BF6F
:102A900007040240CDCCCCCC800802401C08024088
:102AA000436803F03F03074A1A4492004265064A0E
:102AB0008265013B03F00303012202FA03F3C365BD
:102AC000704700BF3F8200104009024000285BD0E1
:102AD00010B5044602682D4B9A423DD82C4B134446
:102AE0002C49A1FB03131B099B0043642A4B03647D
:102AF000022384F8253011686FF30E11A368E06893
:102B000003432069034360690343A0690343E06909
:102B10000343206A03430B4313602046FFF796FFED
:102B2000A368B3F5804F22D06368A26C03F03F0323
:102B30001360E36C226D5A606368013B032B19D963
:102B400000236365A365E3650020E063012384F847
:102B5000253084F8240010BD104B13440D49A1FB0F
:102B600003131B099B0043640D4B0364C0E7002360
:102B70006360D9E72046FFF793FF636D00221A6078
:102B8000A36DE26D5A60DFE7012070470704024041
:102B9000F8FFFDBFCDCCCCCC00000240F8FBFDBF60
:102BA0000004024038B5044690F82400012841D0C2
:102BB000012084F8240094F82500C0B2012804D034
:102BC000002384F82430022038BD022084F8250038
:102BD0000020E0632568286820F001002860204676
:102BE000FFF712FF236BD3B12268136843F00E0383
:102BF0001360A36C1A6812F4803F03D01A6842F481
:102C000080721A60636D1BB11A6842F480721A6098
:102C10002268136843F0010313600020D4E72268A0
:102C2000136823F0040313602268136843F00A0357
:102C30001360DEE70220C7E70346002834D090F88F
:102C40002520D2B2022A06D00422C263002280F8D4
:102C500024200120704701680A6822F00E020A60F1
:102C6000816C0A6822F480720A6001680A6822F0A6
:102C700001020A60426C02F01C01006C01228A40D1
:102C80004260DA6C196D51605A6D32B1116821F4ED
:102C9000807111609A6DD96D5160012283F82520F1
:102CA000002083F8240070470120704708B590F891
:102CB0002530DBB2022B03D00423C363012008BDFF
:102CC0000268136823F00E0313600268136823F090
:102CD00001031360826C136823F480731360436CE8
:102CE00003F01C02016C012393404B60C36C026D26
:102CF0005A60436D33B11A6822F480721A60836D92
:102D0000C26D5A60012380F82530002380F82430FA
:102D1000836B13B198470020D1E70020CFE738B587
:102D2000036C196804682568436C03F01C030422D3
:102D30009A400A4215D015F0040F12D0236813F000
:102D4000200F03D1236823F004032360436C03F0B6
:102D50001C02016C042393404B60036B03B1984742
:102D600038BD02229A400A421CD015F0020F19D039
:102D7000236813F0200F06D1236823F00A03236091
:102D8000012380F82530436C03F01C02016C022300
:102D900093404B60002380F82430C36A002BDFD0BF
:102DA0009847DDE7082202FA03F30B42D8D015F06A
:102DB000080FD5D0236823F00E032360436C03F083
:102DC0001C03016C012202FA03F34B60C26380F81A
:102DD0002520002380F82430436B002BC0D0984777
:102DE000BEE790F825007047024A136843F48073E9
:102DF0001360704700040058024B186800F4C0606C
:102E0000704700BF00040058024A536843F48063CF
:102E10005360704700040058002807DB00F01F02D1
:102E2000400901239340024A42F82030704700BF16
:102E300000E100E000280CDB00F01F024009012344
:102E400093402030034A42F82030BFF34F8FBFF346
:102E50006F8F704700E100E0002808DB0901C9B26C
:102E600000F1604000F5614080F80013704700F009
:102E70000F000901C9B2014B1954704714ED00E06D
:102E800000B500F00700C0F1070CBCF1040F28BF2B
:102E90004FF0040C031D062B0FD9C31E4FF0FF3E4D
:102EA0000EFA0CF021EA000199400EFA03FE22EA24
:102EB0000E0241EA02005DF804FB0023EEE7000089
:102EC000074AD36823F4E0631B041B0C000200F4E0
:102ED000E060034343F0BF6343F40033D3607047C3
:102EE00000ED00E010B50446054BD868C0F30220A1
:102EF000FFF7C6FF01462046FFF7AEFF10BD00BF3B
:102F000000ED00E008B5FFF787FF08BD08B5FFF743
:102F100091FF08BD0138B0F1807F0BD24FF0E02364
:102F20005861054AF02182F8231000209861072299
:102F30001A6170470120704700ED00E0002808DBAF
:102F400000F01F024009012393404030014A42F83B
:102F50002030704700E100E0002808DB00F01F028D
:102F60004009012393406030014A42F82030704705
:102F700000E100E0114B1B780BB90120704710B540
:102F80000446FEF7BFFC0D4B1A784FF47A73B3FB7F
:102F9000F2F3B0FBF3F0FFF7BDFF68B90F2C01D9D6
:102FA00001200AE0002221464FF0FF30FFF79AFF90
:102FB000034B1C60002000E0012010BD0A0000202F
:102FC0000C00002010B5094A136843F480731360A5
:102FD0000320FFF775FF0F20FFF7CCFF10B101248E
:102FE000204610BD0446FEF779F9F9E70040005885
:102FF000034B1B78034A11680B441360704700BFF2
:103000000A00002008050020014B1868704700BF27
:1030100008050020014B1868704700BF0C00002015
:10302000014B1878704700BF0A000020164AD2F8FA
:10303000883043F47003C2F888304FF0B0431A6808
:1030400042F001021A604FF4E0229A601968A2F17E
:10305000A262A2F205120A401A60D3F8942022F06C
:103060000502C3F89420D3F8982022F00102C3F897
:103070009820064ADA601A611A6822F480221A60DF
:1030800000229A61704700BF00ED00E000100422AA
:1030900000B585B002464FF47A7302930123019381
:1030A0000091D021044801F017FD10B905B05DF87A
:1030B00004FB0120FAE700BF4404002030B587B0CC
:1030C00000208DF816008DF815000DF11701FFF79F
:1030D000DFFF002840F0938004469DF81730242B32
:1030E00003D00224204607B030BDB6238DF815303A
:1030F0004FF47A730293012301930DF115020092AC
:103100007E22D021404801F012FC08B10124E9E7F9
:103110000A2002F033FD00238DF815304FF47A7346
:103120000293012301930DF1150200927C22D0211C
:10313000354801F0FCFB08B10124D3E7012002F07F
:103140001DFD00238DF815304FF47A73029301238F
:1031500001930DF1150200925922D0212A4801F065
:10316000E6FB08B10124BDE7012002F007FD42F2B1
:10317000107302934FF400530193244B00930123E7
:103180005E22D021204801F0D2FB08B10124A9E73A
:10319000012002F0F3FC01238DF815304FF47A7210
:1031A000029201930DF1150200925922D021164886
:1031B00001F0BDFB08B1012494E7C82002F0DEFC59
:1031C0004FF47A75B5B14FF47A73029301230193EA
:1031D0000DF1160200922122D0210B4801F07CFC57
:1031E00078B99DF81630012B04D0052002F0C6FCFA
:1031F000013DE7E7002D7FF475AF012472E701245C
:1032000070E701246EE700BF4404002024D50008C5
:1032100010B586B000238DF81730FFF74FFF18B1B7
:103220000124204606B010BD04460E238DF8173049
:103230004FF47A730293012301930DF11702009268
:103240007D22D021304801F072FB08B10124E8E76B
:103250000A2002F093FCA8238DF817304FF47A73FC
:103260000293012301930DF1170200924022D02115
:10327000254801F05CFB08B10124D2E7012002F0EF
:103280007DFC01238DF817304FF47A72029201937E
:103290000DF1170200924122D0211B4801F047FB9B
:1032A00008B10124BDE7012002F068FCA9238DF8D4
:1032B00017304FF47A730293012301930DF1170233
:1032C00000924222D021104801F031FB08B10124C4
:1032D000A7E7012002F052FC02238DF817304FF4CB
:1032E0007A730293012301930DF1170200927C225D
:1032F000D021054801F01BFB08B1012491E7012012
:1033000002F03CFC8DE700BF4404002000B585B00E
:103310004FF0FF3302930C22019200900123D02141
:10332000024801F0D9FB05B05DF804FB440400201D
:1033300000B58DB04FF0FF3302931923019304AB16
:10334000009301238822EC21504801F0C5FB18B1FD
:1033500001200DB05DF804FB4FF0FF33029307230B
:1033600001930DF1290300930123E122EC21474849
:1033700001F0B2FB002840F086809DF811209DF8F6
:10338000103043EA0223424A13809DF813209DF82F
:10339000123043EA02233F4A13809DF815209DF81E
:1033A000143043EA02233C4A13809DF817209DF80D
:1033B000163043EA0223394A13809DF819209DF8FC
:1033C000183043EA0223364A13809DF81B209DF8EB
:1033D0001A3043EA0223334A13809DF81D209DF8DA
:1033E0001C3043EA0223304A13809DF81F209DF8C9
:1033F0001E3043EA02232D4A13809DF821209DF8B8
:10340000203043EA02232A4A13809DF823209DF8A6
:10341000223043EA0223274A13809DF825209DF895
:10342000243043EA0223244A13809DF827209DF884
:10343000263043EA0223214A13809DF82820204B9E
:103440001A809DF82A209DF8293043EA02231D4A5C
:1034500013809DF82B201C4B1A809DF82C109DF892
:103460002D3003F00F0242EA011218490A809DF83C
:103470002E201B0943EA0213154A13809DF92F20C1
:10348000144B1A8065E7022063E700BF4404002064
:103490003005002028050020260500202E050020EC
:1034A0002405002022050020200500201E05002004
:1034B0001C0500201A050020180500201605002014
:1034C0002C050020140500202A05002012050020EC
:1034D000100500200E0500202DE9F04186B00746BA
:1034E000884616461D46FFF723FF20B101242046DB
:1034F00006B0BDE8F081044600238DF817308DF842
:103500001630B6238DF817304FF47A7302930123E7
:1035100001930DF117020092E022EC214C4801F0DA
:1035200006FA002840F08B80642002F027FB8DF81B
:1035300017604FF47A730293012301930DF1170280
:103540000092F222EC21424801F0F1F9002878D1F2
:10355000642002F013FB4FF47A730293012301936A
:103560000DF116020092F222EC21394801F0B4FA72
:103570009DF816209DF817309A4201D00424B6E732
:103580009DF834309B009DF8302043EA42138DF8BB
:1035900017304FF47A730293012301930DF1170250
:1035A0000092F522EC212A4801F0C1F900284AD105
:1035B000642002F0E3FA4FF47A730293012301933B
:1035C0000DF116020092F522EC21214801F084FA57
:1035D0009DF816209DF817309A4201D0062486E700
:1035E0004FEA880343EA47135BB22B438DF8173049
:1035F0004FF47A730293012301930DF117020092A5
:10360000F422EC21124801F092F9F0B9642002F0A2
:10361000B5FA4FF47A730293012301930DF1160268
:103620000092F422EC210A4801F056FA9DF8162087
:103630009DF817309A423FF45AAF082457E7022406
:1036400055E7032453E7052451E707244FE700BF5C
:103650004404002030B585B004464FF47A730293D9
:10366000012301930C4D0095D022EC210B4801F071
:1036700033FA2B78602B01D005B030BD4FF0FF330B
:1036800002930823019300940123F722EC210348BD
:1036900001F022FAF0E700BF0C05002044040020EE
:1036A00010B5104C2046FFF7D5FF0F4B4FF0AA0E78
:1036B0009C460CF801EB224603CAC3F80100CCF883
:1036C00004100A4C07CCC3F80900C3F80D10C3F866
:1036D00011202188A278A3F81510DA7583F818E074
:1036E00010BD00BF740700204C0700207C0700209D
:1036F00008B50C4B1B780F2B12D90A4B00221A70FD
:10370000094A138801339BB2138043F60752934250
:1037100002D9054B00221A80034B188800F0D4FB15
:1037200008BD00BF420600204006002008B5CAB20E
:103730000146002003F0D8F808BD0000F8B51A4B88
:103740001B783BB1194B1B78112B15D9184B012253
:103750001A70F8BDFFF7A4FF164C174D0FCD0FC41C
:1037600095E8070003C422700F4A137819331370C9
:103770000E4B00221A70E5E7104C2046FFF7C6FDFD
:10378000094E35780B4F05EB070C234607CB7851D4
:10379000CCF80410CCF808200C353570034A1378A7
:1037A00001331370D5E700BF490700204807002008
:1037B0008B070020480600204C07002068070020E7
:1037C000194B1B7803B9704770B5FFF791FF174D80
:1037D0002B681A0E164C84F8FC201A0C84F8FD2075
:1037E0001A0A84F8FE2084F8FF30124B1888124E13
:1037F00033784FF48072214603EB001000F09AFA00
:103800003378013333702B6801332B6000230B4A6C
:1038100013700B4A1370044A13704FF48072FF2127
:10382000204609F0C0FD70BD8B0700204406002033
:1038300048060020400600204206002049070020DC
:103840004807002030B583B00024294B9C4243D860
:10385000250204220DEB020105F1FC0000F002FB41
:103860009DF804209DF805301B0443EA02639DF88F
:10387000062043EA02239DF807201343B3F1FF3FDC
:1038800001D00134E1E744B900231A4A13601A4A0F
:1038900013701A4A138003B030BD04220DEB0201ED
:1038A000281F00F0DFFA9DF804209DF805301B0466
:1038B00043EA02639DF8062043EA02239DF80720AD
:1038C000134301330B4A136004F00F020A4B1A70C2
:1038D00024090A4B1C80DEE7064B094A1A60064B96
:1038E00000221A70054B43F609521A80D3E700BF35
:1038F0008FD003004406002042060020400600202E
:1039000090D0030008B5144B1868144B1B689842FC
:1039100018D2134B1B78B3B1114B1B78D3B9114894
:103920008021FFF703FF68B90D4A13780133DBB23A
:103930001370012B06D9134600221A70064A136829
:103940000133136008BD4FF480720649000200F095
:1039500089FAE1E70448E3E73C050020440600203B
:103960003805002040050020C00500200C4B1868D9
:103970000C4B1B68984200D3704710B50A4C4FF4AB
:1039800080722146000200F06DFA4FF480712046EB
:1039900007F04AFF18B9024A13680133136010BDDB
:1039A0003405002044060020400500200378DBB2E7
:1039B000B52B00D070474378DBB2622BFAD1837805
:1039C000DBB2012BF6D1C378DBB2072BF2D1464A2A
:1039D00001231370837AC17A43EA01231381037BA5
:1039E0009372437BD372837B1373C37B537383794B
:1039F000C17943EA0123017A43EA0143417A43EA68
:103A000001635360427C12F0010F5AD0027C364BA6
:103A10009A73827E344BDA73417FC9B21974D0F83D
:103A20001E2007EE902AF8EEE77A9FED307A67EED7
:103A3000877AC3ED057AD0F8222007EE902AF8EEB7
:103A4000E77A67EE877AC3ED067AD0F8422007EE70
:103A5000902AF8EEE77AC3ED0D7A90F84620D2B2BC
:103A600007EE902AF8EE677AC3ED0E7A022937D96D
:103A70001F4B01221A70827A1E4B1A70C27A5A703A
:103A8000027B9A70427BDA70827B1A71C27B5A7118
:103A9000027C9A71827FDA71C27F1A7290F82020BC
:103AA0005A7290F821209A7290F82220DA7290F8D7
:103AB00023201A7390F824205A7390F825209A73C3
:103AC00078E70D4AA2FB03239B090C4AA2FB0312D1
:103AD0005209C2EB0212A3EB8202034B9A7398E7DE
:103AE000034B00221A70C6E79007002095BFD6331B
:103AF0008E0700207C070020D34D621089888888BB
:103B000010B50A4C204604F015FD642208492046F1
:103B100005F05AF830B9074B1A68136823F004030C
:103B2000136010BDFDF7A2F8F5E700BF3C030020CD
:103B3000D8070020DC02002008B5002300E0013394
:103B4000622B0EDC074AD25CD2B2B52AF7D15A1CDE
:103B500004498A5CD2B2622AF1D108461844FFF7C0
:103B600025FF08BDD807002008B5064B834200D0CA
:103B700008BDFFF7E1FF64220349024805F024F87D
:103B8000F6E700BF3C030020D807002030B583B023
:103B9000194B1B7813B1194A127812B1B3B103B0A3
:103BA00030BD0F230193142400942346144A0021AE
:103BB0006B2000F056FB0021009123467F226B20F2
:103BC00000F07EFA0D4B01221A70E8E705230193FD
:103BD000142500952B460A4A00216B2000F041FB7A
:103BE000002400942B467F2221466B2000F068FAC7
:103BF000024B1C70D3E700BF8E0700208D0700200A
:103C000084090108114B1A7C114B1B789A4200D190
:103C1000704730B583B00025009578235F2264217A
:103C20003C2000F08FFA094C0F23227C64213C20B9
:103C300000F04AFB00957F23602264213C2000F0C5
:103C40003FFA227C024B1A7003B030BD900700206F
:103C50008C07002000B58FB03422002101A809F0A4
:103C6000A2FB062301934FF48073079341F288323D
:103C700001A9054805F07EF910B90FB05DF804FB05
:103C8000FCF7F4FFF9E700BF9802002000B58FB001
:103C90003422002101A809F086FB042301934FF48C
:103CA0008073079341F2883201A9054805F062F953
:103CB00010B90FB05DF804FBFCF7D8FFF9E700BFBF
:103CC0009802002000B58FB03422002101A809F02D
:103CD0006AFB00238DF80330052301934FF48073B2
:103CE00007934FF080730A9301230B9341F28832BC
:103CF00001A90B4805F03EF960B941F288320DF197
:103D00000301074805F0EEF938B99DF803000FB03C
:103D10005DF804FBFCF7AAFFEFE7FCF7A7FFF4E769
:103D20009802002008B5FFF7CDFF10F0010FFAD17F
:103D300008BD000070B58EB00D4614460602342250
:103D4000002101A809F02FFBB4F5807F01D94FF4C1
:103D50008074FFF77FFF38230193029600230393BB
:103D60004FF440520492059306934FF480720792E9
:103D70004FF44062089209934FF040720A920B94FC
:103D80000C930D9341F2883201A90B4805F0F2F82B
:103D900060B941F288322946074805F03AF940B93E
:103DA000FFF7C0FFFFF772FF0EB070BDFCF75EFFBC
:103DB000EFE7FCF75BFFF3E79802002000B58FB058
:103DC0003422002101A809F0EEFAFFF743FF402357
:103DD0008DF8003000238DF80130012301934FF45A
:103DE000807307934FF080730A9302230B9341F281
:103DF000883201A91A4805F0BDF838BB41F2883273
:103E00006946174805F005F918BBFFF78BFFB72384
:103E100001930023029303930493059306934FF4B5
:103E200080720792089309930A930B930C930D9356
:103E3000FFF710FF41F2883201A9094805F09AF80E
:103E400050B9FFF76FFF0FB05DF804FBFCF70EFFF2
:103E5000D4E7FCF70BFFD8E7FCF708FFF1E700BF5A
:103E60009802002070B58EB006460C4615463422E6
:103E7000002101A809F097FA0323019302964FF459
:103E8000405304934FF4807307934FF48063089377
:103E90004FF080730A930B9541F2883201A90948CB
:103EA00005F068F840B941F288322146054805F02E
:103EB00019F920B90EB070BDFCF7D8FEF3E7FCF796
:103EC000D5FEF7E79802002010B58EB00446FFF744
:103ED000C1FE24033422002101A809F064FA212341
:103EE000019302944FF4405304934FF4807307936B
:103EF0004FF48063089341F2883201A9054805F028
:103F000039F818B9FFF70EFF0EB010BDFCF7AEFE82
:103F1000F8E700BF9802002000B587B08DF81700C1
:103F20004FF0FF330293012301930DF1170200922A
:103F300000227A21024800F0FAFC07B05DF804FB89
:103F40004404002008B5AE20FFF7E6FFA820FFF7E5
:103F5000E3FF7F20FFF7E0FFA120FFF7DDFF002058
:103F6000FFF7DAFFA220FFF7D7FF0020FFF7D4FF0B
:103F7000A020FFF7D1FF5120FFF7CEFF8120FFF7F0
:103F8000CBFF7F20FFF7C8FFB120FFF7C5FF22203E
:103F9000FFF7C2FFB320FFF7BFFF5020FFF7BCFFC2
:103FA000B920FFF7B9FFBC20FFF7B6FF1020FFF7DD
:103FB000B3FFBE20FFF7B0FF0520FFF7ADFFB6202F
:103FC000FFF7AAFF0A20FFF7A7FFD520FFF7A4FFFE
:103FD0006220FFF7A1FF1520FFF79EFF0020FFF7EB
:103FE0009BFF7F20FFF798FF7520FFF795FF0020CC
:103FF000FFF792FF7F20FFF78FFFA420FFF78CFFD2
:10400000AF20FFF789FF08BD83B27F2B16D80029A8
:1040100014DB7F2912DC0F2A10D800EBD0735B1061
:1040200003EB81130949C95C10F0010F07D021F09F
:104030000F0102F00F020A430449CA54704701F00D
:104040000F0141EA0212D2B2F6E700BF3C0800209D
:1040500000B585B01520FFF75FFF0020FFF75CFF7C
:104060003F20FFF759FF7520FFF756FF0020FFF7AD
:1040700053FF7F20FFF750FF4FF47A7302934FF402
:1040800000530193054B0093012340227A210448F9
:1040900000F04DFC05B05DF804FB00BF3C080020BB
:1040A0004404002008B500F00F0141EA00114FF46C
:1040B0000052C9B2014809F076F908BD3C08002059
:1040C0002DE9F04385B006460D4614461F464FEADB
:1040D00050084FEA52091520FFF71EFF4046FFF730
:1040E0001BFF4846FFF718FF7520FFF715FF28460E
:1040F000FFF712FF3846FFF70FFFA61B023606EB4D
:10410000D676C6F34706002411E0621908EB821246
:104110004FF0FF3302930196084B1A44009201239B
:1041200040227A21064800F002FC0134E4B27B1BF5
:104130009C42EADD05B0BDE8F08300BF3C080020EA
:10414000440400202DE9F843894690461E469DF818
:104150002070C5B20AE03A4621462846FFF754FFD0
:104160000134E4B2B442F6DB0135EDB2454502DC80
:104170005FFA89F4F6E7BDE8F8832DE9F04F89B0DE
:1041800005900691029207934FF00008CDF8048045
:1041900006E0029B013B02935B000133A8EB03089E
:1041A000029B019A934259DBBDF81440BDF8089078
:1041B00004EB090318B2BDF81830BDF804501F46CF
:1041C00003EB050A0FFA8AFA9DF81C603246514645
:1041D0000390FFF719FF63191BB209EB070B0FFAE6
:1041E0008BFB3246594604931846FFF70DFF631BBD
:1041F0001AB21346324659469B461846FFF704FF4B
:10420000A4EB090424B2324651462046FFF7FCFED7
:104210007D1B2DB2324629462046FFF7F5FEA7EB5F
:10422000090424B2324621465846FFF7EDFE3246D5
:1042300021460498FFF7E8FE324629460398FFF727
:10424000E3FE019B01330193B8F1000FA1DC5B0099
:1042500001339844B8F1000F9BDCA1E709B0BDE839
:10426000F08F2DE9F04F83B08246894690461E4676
:104270009DF8303001939DF834B0F71DFF100025F4
:104280001AE00134E4B2B44214D2E30807FB053368
:1042900018F8032004F0070180230B411A42F0D0E4
:1042A00004EB0A0005EB09015A4609B200B2FFF718
:1042B000ABFEE6E70135EDB2019B9D4201D2002441
:1042C000E1E703B0BDE8F08F632A00D970472DE91C
:1042D000F04782B005460E461F46174BA3FB023837
:1042E0004FEAD803984603EB8303A2EB4302D4B210
:1042F0000023009301F1130300F11702FFF722FFDF
:10430000DFF8389001974FF0140ACDF800A00C2385
:1043100059F8282031462846FFF7A3FF0197CDF82A
:1043200000A00C2359F82420314605F10A00FFF7BC
:1043300098FF02B0BDE8F087CDCCCCCC14000020B3
:1043400070B582B00020FFF7ADFE0F2401948025E8
:1043500000952B461E4A00210846FFF782FFFFF713
:1043600077FE4FF47A7001F009FC0020FFF79AFE07
:10437000019400952B46174A00210846FFF771FF6C
:10438000FFF766FE4FF47A7001F0F8FB0020FFF7AC
:1043900089FE05260196142500952B460E4A00211C
:1043A0006B20FFF75EFF019600952B460B4A00211C
:1043B0000846FFF756FF019400944B23084A6421F6
:1043C0000020FFF74EFFFFF743FE02B070BD00BFB5
:1043D00024FD000824F5000884090108FC060108F2
:1043E0002405010810B582B00020FFF75BFE0F2402
:1043F0000194009464230D4A0A211420FFF731FF31
:104400000194009464230A4A1E211420FFF729FF17
:1044100008230193142300932346064A64216E2047
:10442000FFF71FFFFFF714FE02B010BDFC070108E5
:1044300038070108C009010800B583B00F230193B4
:1044400000934B23034A64210020FFF70AFF03B0C7
:104450005DF804FB2405010803689A6912F0020F55
:1044600001D000229A6203689A6912F0010F03D109
:104470009A6942F001029A61704710B4019CC1F33D
:10448000090141EA02411943214321F00041026838
:104490005368640D04F4806444F07F7444F4583429
:1044A00044F47F7444F0030423EA04030B43536091
:1044B0005DF8044B704711F0010F09D090F84130BE
:1044C00003F02803282B01D0F22302E0422300E06E
:1044D000002311F0020F09D043F0440C90F8412062
:1044E00002F02802282A09D043F0F40311F4004F07
:1044F00006D1102906D143F0900305E06346F5E7A5
:1045000043F0B803202907D0402908D001680A6881
:1045100022EA03030B60704743F02003F6E743F001
:104520004003F3E72DE9F041044603689E6916F065
:1045300010067CD00D4690461022DA6100263746E0
:104540002368986910F0200F30D17FBBB5F1FF3F91
:10455000F6D0FEF759FDA0EB0800A84201D8002DC7
:10456000EED121684B6803F4804394F84220D2B224
:10457000886910F4004F02D00BB9202A0ED12368AD
:104580009B6913F0200FDBD1FEF73EFDA0EB080086
:104590001928F4D946F020060127D1E74B6843F4E7
:1045A00080434B60FEF730FD8046E8E70FB92022DC
:1045B000DA6146F0040601252268936913F4807FCE
:1045C00005D046F001064FF48071D161012513F446
:1045D000806F06D046F0080622684FF48061D161F2
:1045E000012513F4007F24D046F0020623684FF41F
:1045F0000072DA6101252046FFF72EFF226853681A
:1046000023F0FF7323F48B3323F4FF7323F00103B0
:104610005360636C33436364202384F84130002388
:1046200084F8423084F840302846BDE8F081002507
:10463000C2E7002DF8D0DEE770B504460D461646F9
:1046400023689B6913F0020F22D132462946204687
:10465000FFF768FFF0B9B5F1FF3FF1D0FEF7D4FCEA
:10466000801BA84201D8002DEAD123689B6913F072
:10467000020FE5D1636C43F020036364202384F8C8
:104680004130002384F8423084F84030012000E0BB
:10469000002070BD0120FCE72DE9F843054688465F
:1046A00017461E46DDF820902B689C6938EA040402
:1046B0000CBF01230023BB4227D14A46314628467E
:1046C000FFF730FF20BBB6F1FF3FEDD0FEF79CFCBB
:1046D000A0EB0900B04201D8002EE5D12B689B6900
:1046E00038EA03030CBF01230023BB42DCD16B6C0F
:1046F00043F020036B64202385F84130002385F8C4
:10470000423085F84030012000E00020BDE8F88309
:104710000120FBE72DE9F04182B0044690461D469A
:10472000089E099F194B00934FF08073EAB2FFF780
:10473000A4FE3A4631462046FFF77EFFF8B9012D28
:104740000ED123685FFA88F29A62009733460022FE
:1047500080212046FFF7A0FFA8B902B0BDE8F08194
:1047600023684FEA18229A623A4631462046FFF7FC
:1047700063FF30B923685FFA88F29A62E5E70120A7
:10478000EBE70120E9E70120E7E700BF0020008018
:104790002DE9F04182B0044690461D46089E099FCF
:1047A000184B00930023EAB2FFF767FE3A46314602
:1047B0002046FFF741FFF8B9012D0ED123685FFABB
:1047C00088F29A6200973346002240212046FFF784
:1047D00063FFA8B902B0BDE8F08123684FEA182250
:1047E0009A623A4631462046FFF726FF30B92368E1
:1047F0005FFA88F29A62E5E70120EBE70120E9E73A
:104800000120E7E70020008070B504460D461646FB
:1048100004E023689B6913F0200F12D023689B6982
:1048200013F0200F1BD1324629462046FFF77AFEAF
:10483000B8B9FEF7E9FB801BA842EAD8002DEDD1FC
:10484000E7E7636C43F020036364202384F841307E
:10485000002384F8423084F84030012000E000203A
:1048600070BD0120FCE700285FD010B5044690F829
:104870004130002B48D0242384F84130226813684B
:1048800023F0010313606368226823F070631361EF
:104890002268936823F400439360E368012B38D0C7
:1048A000A368226843F404439360E368022B36D084
:1048B0002268536823F4006353602268536843F00E
:1048C000007343F4004353602268D36823F4004329
:1048D000D360236962691343A169226843EA012313
:1048E000D360E369216A22680B431360226813686E
:1048F00043F00103136000206064202384F84130FA
:10490000206384F8420010BD80F84030FCF738FD89
:10491000B1E7A368226843F400439360C5E72268C7
:10492000536843F400635360C7E7012070472DE9E3
:10493000F04F83B00E46BDF834A00E9D90F84110A4
:10494000C9B2202940F0BB800446904699460C9B92
:10495000CBB1BAF1000F16D090F84030012B00F027
:10496000B2804FF0010B80F840B0FEF74DFB0746D8
:10497000009019235A464FF400412046FFF78CFE61
:1049800030B101209CE04FF400736364012097E094
:10499000212384F84130402384F8423000236364AB
:1049A0000C9A6262A4F82AA06363019700954B46B3
:1049B000424631462046FFF7ADFE70B9638D9BB28B
:1049C000FF2B0FD9FF222285002300934FF0807325
:1049D00031462046FFF751FD21E0002384F84030A6
:1049E00058466DE0628D92B22285002300934FF00D
:1049F0000073D2B231462046FFF73FFD0FE0628DD3
:104A000092B22285002300934FF00073D2B2314658
:104A10002046FFF732FD638D9BB2002B33D03A4620
:104A200029462046FFF708FE00284ED1626A236817
:104A300012789A62636A01336362638D9BB2013BB1
:104A40009BB26385238D013B9BB22385628D92B21D
:104A5000002AE0D0002BDED100972B4600228021D7
:104A60002046FFF719FE90BB638D9BB2FF2BC6D982
:104A7000FF222285002300934FF0807331462046A9
:104A8000FFF7FBFCC7E73A4629462046FFF7BCFE86
:104A9000F8B923682022DA6121684B6823F0FF739C
:104AA00023F48B3323F4FF7323F001034B6084F86A
:104AB0004120002384F8423084F8403000E0022096
:104AC00003B0BDE8F08F0220FAE70120F8E70120EB
:104AD000F6E70120F4E700002DE9F04F83B00E4621
:104AE000BDF834A00E9D90F84110C9B2202940F0C5
:104AF000BC800446904699460C9BCBB1BAF1000F9E
:104B000016D090F84030012B00F0B3804FF0010B2D
:104B100080F840B0FEF778FA0746009019235A460D
:104B20004FF400412046FFF7B7FD30B101209DE072
:104B30004FF400736364012098E0222384F841302D
:104B4000402384F84230002363640C9A6262A4F824
:104B50002AA06363019700954B46424631462046A2
:104B6000FFF716FE70B9638D9BB2FF2B0FD9FF22A2
:104B70002285444B00934FF0807331462046FFF767
:104B80007CFC21E0002384F8403058466EE0628DC2
:104B900092B222853B4B00934FF00073D2B2314664
:104BA0002046FFF76AFC0FE0628D92B22285002357
:104BB00000934FF00073D2B231462046FFF75DFC00
:104BC000638D9BB2002B34D000972B46002204212A
:104BD0002046FFF761FD00284DD123685A6A636AB9
:104BE0001A70636A01336362228D013A92B22285A0
:104BF000638D9BB2013B9BB26385638D9BB2002B9F
:104C0000DED0002ADCD100972B4680212046FFF71A
:104C100043FD90BB638D9BB2FF2BC5D9FF2222853C
:104C2000002300934FF0807331462046FFF725FCA8
:104C3000C6E73A4629462046FFF7E6FDF8B923685D
:104C40002022DA6121684B6823F0FF7323F48B3351
:104C500023F4FF7323F001034B6084F84120002309
:104C600084F8423084F8403000E0022003B0BDE810
:104C7000F08F0220FAE70120F8E70120F6E7012093
:104C8000F4E700BF0024008008B5036899691A683A
:104C9000436B03B1984708BD7047704710B5044691
:104CA00003681A68002180F8421012F4804F0ED079
:104CB0001A6822F480421A6094F84130DBB2292B42
:104CC0000DD094F84130DBB22A2B18D010BD12F46D
:104CD000004FF1D01A6822F400421A60ECE7282352
:104CE00084F841302123236301212046FFF7E3FBB1
:104CF000002384F840302046FFF7CEFFE6E7282364
:104D000084F841302223236302212046FFF7D3FB9E
:104D1000002384F840302046FFF7BFFFD6E77047F6
:104D2000F8B5044690F8413003F02803282B06D04C
:104D300003680822DA61002380F84030F8BD036878
:104D40009E69C6F300469A69120C02F0FE059A6845
:104D5000C2F30902DF6807F0FE07C168022922D109
:104D600085EAD21515F0060F10D1816C01318164EE
:104D7000816C0229E2D1002181640820D86184F885
:104D8000401031462046FFF7CAFFD7E74FF40041F5
:104D9000FFF791FB002384F840303A463146204625
:104DA000FFF7BDFFCAE74FF40041FFF784FB002384
:104DB00084F840302A4631462046FFF7B0FFBDE771
:104DC0007047000010B50446174BC362002303630D
:104DD000202280F8412080F84230436311F0040F14
:104DE00013D003685A6A436A1A70436A01334362F4
:104DF000038D53B1013B0385438D9BB2013B9BB2B5
:104E00004385436C43F00403436448F203012046A6
:104E1000FFF751FB23681022DA61002384F8403049
:104E20002046FFF7CDFF10BD0000FFFF7047704721
:104E300008B590F84130DBB2602B06D00023036345
:104E400080F84030FFF7F2FF08BD202380F84130A2
:104E50000023036380F84030FFF7E9FFF4E7000028
:104E600010B5044690F84130002280F842204548B1
:104E7000E0626285626C0A436264283BDBB2022B0B
:104E800019D803212046FFF716FB282384F8413068
:104E90003D4B6363236BA26B1AB1112B30D0212BD6
:104EA0002ED0E26B1AB1122B4BD0222B49D02046C8
:104EB000FFF7BEFF10BD48F203012046FFF7FBFAE3
:104EC0002046FFF7C9FA94F84130DBB2602B14D0CA
:104ED000202384F8413023689A6912F0200F0CD007
:104EE0009A6912F0100F05D01022DA61636C43F05A
:104EF0000403636423682022DA6100236363C9E743
:104F000023681A6812F4804F03D01A6822F4804292
:104F10001A60A06BFDF765FF01280ED0A36B1B4A3A
:104F20009A63002384F84030A06BFDF7BFFE002891
:104F3000C0D0A06B836B9847BCE72046FFF778FF93
:104F4000B8E723681A6812F4004F03D01A6822F4F5
:104F500000421A60E06BFDF744FF01280ED0E36BBE
:104F60000A4A9A63002384F84030E06BFDF79EFE06
:104F700000289FD0E06B836B98479BE72046FFF7A4
:104F800057FF97E70000FFFF8151000833530008E7
:104F9000F8B504460D4602681668C76A90F84130B5
:104FA0002021D161213B092B0CD8DFE803F0057AE1
:104FB0000B0B0B0B0B81057A48F20101FFF77BFA13
:104FC000212323632268536843F40043536022681B
:104FD000536823F0FF7323F48B3323F4FF7323F020
:104FE000010353602046FFF737FA16F4804F66D06E
:104FF0002268136823F480431360A36B1BB11B6802
:105000005B689BB2638515F0040F11D025F0040591
:1050100023685A6A636A1A70636A01336362238D74
:1050200033B1013B2385638D9BB2013B9BB263850A
:10503000638D9BB21BB1636C43F00403636415F092
:10504000100F13D016F0100F10D0638D9BB2002BF1
:105050005AD194F84130DBB2282B40D094F841303B
:10506000DBB2292B43D023681022DA61002384F8B5
:1050700042306363636C002B56D1E36A13F5803FC3
:1050800060D194F84130DBB2222B6BD0202384F81E
:1050900041300023236384F840302046FFF7FCFDB5
:1050A0005FE048F20201FFF706FA2223236389E753
:1050B00048F20301FFF7FFF90023236382E716F4A8
:1050C000004FA0D02268136823F400431360E36B01
:1050D000002B98D01B685B689BB2638593E7B7F1A0
:1050E000007FBBD129462046FFF76CFEBEE717F5CF
:1050F000803FB8D023681022DA612046FFF7ACF970
:105100002046FFF7CBFDB1E723681022DA61636C1C
:1051100043F00403636417B1B7F1807FA6D1616CDB
:105120002046FFF79DFEA1E7616C2046FFF798FE41
:1051300094F84130DBB2282B13D129462046FFF7E3
:1051400041FE0EE02046FFF7A9FD0C4BE362202351
:1051500084F841300023236384F840302046FFF771
:105160002FFEF8BD202384F841300023236384F808
:1051700040302046FFF791FDF3E700BF0000FFFF3E
:1051800010B50446C06A94F84030012B00F09A80B4
:10519000012384F8403011F0200F02D012F0200FCC
:1051A00016D111F0100F3ED012F0100F3BD0638DCE
:1051B0009BB243BB94F84130DBB2282B0FD094F85C
:1051C0004130DBB2292B11D023681022DA6102E0D2
:1051D0002046FFF7DDFE002084F8400010BDB0F14E
:1051E000007FECD12046FFF7EDFDF4E710F5803F9E
:1051F000EAD023681022DA612046FFF72DF9204615
:10520000FFF74CFDE7E723681022DA61636C43F097
:105210000403636410B1B0F1807FDCD1616C20467F
:10522000FFF71EFED7E711F0040F1FD012F0040F96
:105230001CD0638D9BB273B123685A6A636A1A707B
:10524000636A01336362238D013B2385638D9BB2C7
:10525000013B9BB26385638D9BB2002BBBD110F5E4
:10526000803FB8D02046FFF719FDB4E711F0080FD2
:1052700002D012F0080F18D111F0020FABD012F0CB
:10528000020FA8D0638D9BB29BB1626A236812782B
:105290009A62636A01336362638D9BB2013B9BB286
:1052A0006385238D013B238595E72046FFF738FD75
:1052B00091E7B0F1807F01D000288CD12046FFF724
:1052C000EDFC88E7022089E710B502689369116850
:1052D00013F4807F09D011F0800F06D0446C44F0A5
:1052E000010444644FF48074D46113F4806F0AD0D5
:1052F00011F0800F07D0426C42F00802426402684D
:105300004FF48064D46113F4007F0AD011F0800F51
:1053100007D0436C43F00203436403684FF4007208
:10532000DA61416C11F00B0F00D110BDFFF798FD51
:10533000FBE708B5806A836B0BB100229A63C36BED
:105340000BB100229A63FFF773FD08BD034690F886
:105350004120D2B2202A23D190F84020012A21D026
:10536000012280F84020242280F841200068026851
:1053700022F0010202601868026822F48052026082
:10538000186802681143016019680A6842F0010256
:105390000A60202283F84120002083F840007047F3
:1053A0000220704702207047034690F84120D2B295
:1053B000202A21D190F84020012A1FD0012280F814
:1053C0004020242280F841200068026822F0010277
:1053D00002601868026822F4706242EA01220260E8
:1053E00019680A6842F001020A60202283F841200D
:1053F000002083F840007047022070470220704769
:10540000024A536803435360704700BF00000140E5
:1054100090F83D30DBB2012B22D1022380F83D30E1
:105420000268D36843F00103D36003680F4A9342D4
:1054300008D0B3F1804F05D01A6842F001021A601B
:105440000020704799680A4A0A40062A0AD0B2F535
:10545000803F09D01A6842F001021A6000207047AC
:10546000012070470020704700207047002C014049
:1054700007000100704770477047704770B50446D9
:105480000368DE681D6915F0020F10D016F0020FD8
:105490000DD06FF002021A610123037703689B6944
:1054A00013F0030F64D0FFF7E6FF0023237715F016
:1054B000040F12D016F0040F0FD023686FF004020F
:1054C0001A610223237723689B6913F4407F55D028
:1054D0002046FFF7D0FF0023237715F0080F12D0E6
:1054E00016F0080F0FD023686FF008021A6104232A
:1054F00023772368DB6913F0030F46D02046FFF7BC
:10550000BAFF0023237715F0100F12D016F0100FFA
:105510000FD023686FF010021A61082323772368E5
:10552000DB6913F4407F37D02046FFF7A4FF002348
:10553000237715F0010F02D016F0010F33D115F4C7
:10554000025F02D016F0800F35D115F4807F02D0B3
:1055500016F0800F37D115F0400F02D016F0400F33
:1055600039D115F0200F02D016F0200F3BD170BDBD
:10557000FFF780FF2046FFF77FFF96E72046FFF703
:1055800079FF2046FFF778FFA5E72046FFF772FF77
:105590002046FFF771FFB4E72046FFF76BFF204678
:1055A000FFF76AFFC3E723686FF001021A61204624
:1055B000FBF748FBC3E723686FF402521A612046E9
:1055C00000F087F8C1E723686FF480721A61204603
:1055D00000F080F8BFE723686FF040021A612046B0
:1055E000FFF74BFFBDE723686FF020021A612046EA
:1055F00000F06EF8BBE7000003681C4A904202D03E
:10560000B0F1804F03D123F070034A681343174A67
:1056100090420AD0B0F1804F07D002F5C0529042BC
:1056200003D002F58062904203D123F44073CA682C
:10563000134323F080034A6913438A68C2620A68ED
:1056400082620A4A904207D002F5C052904203D0CB
:1056500002F58062904201D10A690263026842F059
:10566000040202600122426103607047002C014085
:1056700060B310B5044690F83D3013B3022384F8AC
:105680003D30214651F8040BFFF7B6FF012384F8A3
:10569000483084F83E3084F83F3084F8403084F855
:1056A000413084F8423084F8433084F8443084F840
:1056B000453084F8463084F8473084F83D30002087
:1056C00010BD80F83C30FCF717F8D7E70120704791
:1056D000704770477047704770470000002309E02B
:1056E00000EB8302054951609A1D00EB82020449D8
:1056F00051600133052BF3D9704700BFD75600081E
:10570000D9560008002303604FF03F1343603F2346
:1057100083607047C0B138B5044690F8383083B123
:105720000A4D2846FFF7EEFF2B6843F001132B606C
:105730002046FFF7D3FF00206063012384F8383050
:1057400038BDFBF773FEEBE701207047000C0058F3
:1057500038B5044603680A4ADA60FDF755FC054689
:105760002368DB6813F0200F07D1FDF74DFC401BC9
:10577000B0F57A7FF4D9032000E0002038BD00BFE7
:105780005FFF010070B50368DA6812F0400F02D0C5
:105790000025284670BD0446DA6842F08002DA60CF
:1057A000FDF732FC064600252368DB6813F0400F46
:1057B000EFD1002DEDD1FDF727FC831BB3F57A7FE8
:1057C000F2D9042384F821300125EDE70268D3687B
:1057D00023F08003D36003689B6813F0200F01D08F
:1057E0000020704710B50446FFF7B2FF18B104233C
:1057F00084F82130012010BD002850D038B504466F
:1058000090F8213063B1022384F821302368DA68EC
:1058100012F0100F09D00020012384F8213038BD88
:1058200080F82030FBF72EFFEDE7CA225A6223688A
:1058300053225A622046FFF7A5FF28B12368FF22B2
:105840005A620028EBD1E7E72268936823F4E0036B
:1058500023F04003936021688A68636820690343EA
:10586000A069034313438B602368E2681A612268CE
:105870001369A16843EA014313612046FFF7A6FFBD
:105880000028DBD12268D36C23F00303D3642168A2
:10589000CB6CE26965692A431343CB64CEE70120F0
:1058A0007047000010B483B08446464B1868464BDE
:1058B000A3FB0030C00A4FF47A7303FB00F00190A1
:1058C0009CF82030012B7AD001238CF82030022361
:1058D0008CF82130DCF80030CA245C62DCF800303F
:1058E00053245C62DCF80040A36813F4806F09D095
:1058F000019B013B0193019B002B49D0E36813F00E
:10590000040FF5D1A36823F48063A360DCF80040A2
:10591000E368DBB263F49063E3600190019B013BB9
:105920000193019B002B3CD0DCF80030D86810F0CC
:10593000040FF3D0986820F007009860DCF80000AE
:10594000836813438360DCF8003059611F4BD3F840
:10595000802042F40022C3F880201A6842F400221A
:105960001A60DCF80020936843F480439360DCF80D
:105970000020936843F480639360DCF80030FF22DA
:105980005A6201238CF8213000208CF8200012E0AC
:10599000FF23636203208CF8210000238CF8203061
:1059A00009E0DCF80030FF225A6203208CF8210065
:1059B00000238CF8203003B05DF8044B70470220C0
:1059C000F9E700BF10000020D34D62100008005816
:1059D000054BCA225A6253225A629A6822F0070281
:1059E0009A60FF225A62704700280040704700000A
:1059F00008B5002001F0B6FA68B181794FF0B042E5
:105A0000054BC2F89C30D2F89C3023F47C5343EA17
:105A10000123C2F89C3008BDFECAFECA08B54FF08B
:105A2000B042936843F40043936002F023F9054ABF
:105A3000D2F8803023F0070343F00403C2F880302B
:105A400008BD00BF0004005800B589B001F0EAF8B5
:105A50000E4A0021082002F09FFA0D4B00930D4BD7
:105A6000019369460C4801F0F5FF0C4B02930C4B77
:105A700003930C4B049340F23C53059302A801F0AE
:105A8000A5F901F0CBF809B05DF804FB797A0008BC
:105A9000FC030320ED590008095B0008E401032022
:105AA000F00203200805032000B585B00023009311
:105AB00001930293039343685B7B23B1012B1ED0B8
:105AC00005B05DF804FB00F08BF80F238DF8003073
:105AD0007F238DF802300B4A13681B0CADF80C3095
