:020000040800F2
:100000000000032075D20008791200087B12000856
:100010007D1200087F120008811200080000000015
:100020000000000000000000000000008312000833
:1000300085120008000000008712000889120008DD
:10004000CDD20008CDD20008CDD200089112000810
:10005000CDD2000899120008CDD20008CDD20008F8
:100060009B120008CDD20008A5120008B1120008AA
:10007000CDD20008CDD20008CDD20008CDD20008E4
:10008000CDD20008CDD20008CDD20008CDD20008D4
:10009000C1120008CDD20008CDD20008D11200084C
:1000A000CDD20008DD120008CDD20008CDD2000864
:1000B000CDD20008CDD20008ED120008FD120008D4
:1000C000CDD20008CDD20008CDD20008CDD2000894
:1000D000CDD200080D130008CDD20008CDD2000803
:1000E000CDD20008CDD20008CDD20008CDD2000874
:1000F0001D130008251300082D130008CDD2000899
:10010000CDD20008CDD2000835130008CDD20008AA
:10011000CDD20008CDD20008CDD20008CDD2000843
:10012000CDD20008CDD20008CDD20008CDD2000833
:0C013000CDD20008CDD20008CDD20008CE
:1001400010B5054C237833B9044B13B10448AFF311
:1001500000800123237010BD9401002000000000E6
:1001600044D3000808B5034B1BB103490348AFF360
:10017000008008BD000000009801002044D3000862
:1001800081F0004102E000BF83F0004330B54FEA48
:1001900041044FEA430594EA050F08BF90EA020FB5
:1001A0001FBF54EA000C55EA020C7FEA645C7FEA48
:1001B000655C00F0E2804FEA5454D4EB5555B8BF6B
:1001C0006D420CDD2C4480EA020281EA030382EADC
:1001D000000083EA010180EA020281EA0303362D6E
:1001E00088BF30BD11F0004F4FEA01314FF4801C41
:1001F0004CEA113102D0404261EB410113F0004F53
:100200004FEA03334CEA133302D0524263EB430309
:1002100094EA050F00F0A780A4F10104D5F1200EA7
:100220000DDB02FA0EFC22FA05F2801841F1000102
:1002300003FA0EF2801843FA05F359410EE0A5F1D6
:1002400020050EF1200E012A03FA0EFC28BF4CF007
:10025000020C43FA05F3C01851EBE37101F00045BD
:1002600007D54FF0000EDCF1000C7EEB00006EEBCA
:100270000101B1F5801F1BD3B1F5001F0CD3490854
:100280005FEA30004FEA3C0C04F101044FEA4452AB
:1002900012F5800F80F09A80BCF1004F08BF5FEA32
:1002A000500C50F1000041EB045141EA050130BD12
:1002B0005FEA4C0C404141EB0101013C28BFB1F524
:1002C000801FE9D291F0000F04BF01460020B1FA6F
:1002D00081F308BF2033A3F10B03B3F120020CDA42
:1002E0000C3208DD02F1140CC2F10C0201FA0CF020
:1002F00021FA02F10CE002F11402D8BFC2F1200C85
:1003000001FA02F120FA0CFCDCBF41EA0C0190403A
:10031000E41AA2BF01EB0451294330BD6FEA040483
:100320001F3C1CDA0C340EDC04F11404C4F120026E
:1003300020FA04F001FA02F340EA030021FA04F380
:1003400045EA030130BDC4F10C04C4F1200220FAD7
:1003500002F001FA04F340EA0300294630BD21FA15
:1003600004F0294630BD94F0000F83F4801306BFDB
:1003700081F480110134013D4EE77FEA645C18BFCF
:100380007FEA655C29D094EA050F08BF90EA020F66
:1003900005D054EA000C04BF1946104630BD91EA5E
:1003A000030F1EBF0021002030BD5FEA545C05D161
:1003B0004000494128BF41F0004130BD14F58004A0
:1003C0003CBF01F5801130BD01F0004545F0FE4114
:1003D00041F470014FF0000030BD7FEA645C1ABF49
:1003E000194610467FEA655C1CBF0B46024650EA80
:1003F000013406BF52EA033591EA030F41F40021AC
:1004000030BD00BF90F0000F04BF0021704730B531
:100410004FF4806404F132044FF000054FF0000106
:1004200050E700BF90F0000F04BF0021704730B5C7
:100430004FF4806404F1320410F0004548BF40429C
:100440004FF000013EE700BF42004FEAE2014FEAF1
:1004500031014FEA02701FBF12F07F4393F07F4FCC
:1004600081F06051704732F07F4208BF704793F0CF
:100470007F4F04BF41F40021704730B54FF46074E2
:1004800001F0004521F000411CE700BF50EA0102E5
:1004900008BF704730B54FF000050AE050EA01028E
:1004A00008BF704730B511F0004502D5404261EBFE
:1004B00041014FF4806404F132045FEA915C3FF43F
:1004C000D8AE4FF003025FEADC0C18BF03325FEADC
:1004D000DC0C18BF033202EBDC02C2F1200300FA8D
:1004E00003FC20FA02F001FA03FE40EA0E0021FAB2
:1004F00002F11444BDE600BF4FF0FF3C06E000BF30
:100500004FF0010C02E000BF4FF0010C4DF804CD9C
:100510004FEA410C7FEA6C5C4FEA430C18BF7FEA5C
:100520006C5C1BD001B050EA410C0CBF52EA430C8A
:1005300091EA030F02BF90EA020F0020704710F10A
:10054000000F91EA030F58BF994208BF90422CBF99
:10055000D8176FEAE37040F0010070474FEA410C92
:100560007FEA6C5C02D150EA013C07D14FEA430CB0
:100570007FEA6C5CD6D152EA033CD3D05DF8040B21
:10058000704700BF8446104662468C461946634653
:1005900000E000BF01B5FFF7B7FF002848BF10F12A
:1005A000000F01BD4DF808EDFFF7F4FF0CBF01206F
:1005B00000205DF808FB00BF4DF808EDFFF7EAFFEB
:1005C00034BF012000205DF808FB00BF4DF808EDA6
:1005D000FFF7E0FF94BF012000205DF808FB00BF9B
:1005E0004DF808EDFFF7CEFF94BF012000205DF825
:1005F00008FB00BF4DF808EDFFF7C4FF34BF012032
:1006000000205DF808FB00BF53B94AB9002908BFB4
:1006100000281CBF4FF0FF314FF0FF3000F088B9C9
:10062000ADF1080C6DE904CE00F006F8DDF804E049
:10063000DDE9022304B070472DE9F047089D8E469E
:1006400004468846002B4AD18A42174662D9B2FA3C
:1006500082F64EB1C6F1200301FA06F820FA03F340
:10066000B74043EA0808B4404FEA174E1FFA87FC28
:10067000B8FBFEF1230C0EFB118843EA084301FB93
:100680000CF29A4209D9FB1801F1FF3080F0EA80A0
:100690009A4240F2E78002393B449A1AA3B2B2FB75
:1006A000FEF00EFB102243EA024300FB0CFC9C45CB
:1006B00009D9FB1800F1FF3280F0D6809C4540F24A
:1006C000D3803B44023840EA0140A3EB0C030021F5
:1006D0001DB1F3400022C5E90032BDE8F0878B422E
:1006E00005D90DB1C5E9000100210846F5E7B3FAC7
:1006F00083F1002946D1734502D3824200F205817D
:10070000841A6EEB030201209046002DE5D0C5E966
:100710000048E2E7002A00F09080B2FA82F6002E4C
:1007200040F0A4808A1A030C4FEA174E80B2BCB284
:100730000121B2FBFEFC0EFB1C2243EA024304FB38
:100740000CF29A4207D9FB180CF1FF3802D29A42F8
:1007500000F2E080C4469B1AB3FBFEF20EFB12339C
:1007600040EA034302FB04F49C4207D9FB1802F160
:10077000FF3002D29C4200F2CA8002461B1B42EAB2
:100780000C40A5E7C1F120068B4022FA06F71F4373
:100790000EFA01F420FA06F32EFA06FE4FEA174984
:1007A000234300FA01F81FFA87FCBEFBF9F01C0C8A
:1007B00009FB10EE44EA0E4400FB0CFEA64502FACB
:1007C00001F209D93C1900F1FF3A80F09C80A6455E
:1007D00040F2998002383C44A4EB0E041FFA83FED9
:1007E000B4FBF9F309FB13444EEA044403FB0CFC8D
:1007F000A44508D93C1903F1FF3E80F08280A4454E
:100800007FD9023B3C4443EA0040A4EB0C04A0FB2C
:1008100002EC64457346E14662D35FD05DB1B8EB4C
:10082000030264EB090404FA06F622FA01F31E43FC
:10083000CC40C5E9006400214FE7B1FBF2FC010C9C
:1008400041EA0E4180B240EA01423B4638463C460E
:10085000B846BE462026B1FBF7F1A2EB080241EAFA
:100860000C4166E7014618E710462CE7C6F1200266
:100870002EFA02F3B740B14020FA02F24FEA174EC7
:100880000A43B3FBFEF8BCB20EFB1833110C41EA6D
:10089000034108FB04F9B04089454FEA104380B298
:1008A0003ED9791808F1FF3C01D289451FD8A1EB48
:1008B0000901B1FBFEF909FB04F80EFB191192B214
:1008C00042EA0142424529D2BA1809F1FF31C4D2A5
:1008D0004245C2D2A9F102013A44BEE7F0459DD299
:1008E000BEEB02036CEB070C0138E14696E7A7EB81
:1008F00009094944A8F1020CB1FBFEF909FB04F80F
:10090000DBE773467FE7504666E70846FDE63B4473
:10091000023A33E7ACF1020C3B441CE749469CE742
:10092000A1EB0901C446B1FBFEF909FB04F8C4E7D9
:10093000704700BF70B588B00024039404940594F8
:10094000069407944FF0B043DA6C42F00402DA6484
:10095000DA6C02F004020292029ADA6C42F00202AD
:10096000DA64DA6C02F002020192019ADA6C42F067
:100970000102DA64DB6C03F001030093009B1E4D5F
:1009800022461321284602F01BF8302303934FF42C
:1009900004160496059403A94FF0904001F036FF29
:1009A000042303930496059403A9284601F02EFF1F
:1009B00013230393012304930594069403A9284663
:1009C00001F024FF22460821084602F0A3FA08207D
:1009D00002F0B0FA224608210A2002F09BFA0A200F
:1009E00002F0A8FA22460821172002F093FA1720F5
:1009F00002F0A0FA08B070BD0004004800B583B052
:100A00004FF0B0439A6C42F004029A649A6C02F080
:100A100004020192019A9A6C42F001029A649B6C62
:100A200003F001030093009B002207210B2002F03A
:100A300071FA0B2002F07EFA03B05DF804FB0000AF
:100A400070B588B000230293039304930593069333
:100A50000793574B029306230393564C02A9204653
:100A60000CF036F820460CF033FB4FF47A71204638
:100A70000BF0D0FF20460CF027F84F4B186007EE24
:100A8000900AF8EE677A9FED4D7A67EE877A9FEDD0
:100A90004C7A67EE877ADFED4B6A87EEA67A4A4D8D
:100AA00085ED007A20460CF099FB2E683046FFF762
:100AB000CBFC04460D463CA3D3E90023FFF79AFD87
:100AC000002836D138A3D3E9002320462946FFF772
:100AD00073FD40B1F0EE0C7A07EE106AB4EEE77ADF
:100AE000F1EE10FA41DA394C002601960425009502
:100AF0000D23224668216F2003F099FB0196009593
:100B00000D2322466D216F2003F091FB08230193F2
:100B100000950D23224672216F2003F088FB0023ED
:100B2000009377237C2264216E2003F0AFFA08B093
:100B300070BD264C08260196042500950D232246FB
:100B400068216F2003F073FB019600950D23224668
:100B50006D216F2003F06BFB019600950D2322465B
:100B600072216F2003F063FBD9E7184C0023019337
:100B7000042500950D23224668216F2003F057FBC2
:100B80000826019600950D2322466D216F2003F063
:100B90004EFB019600950D23224672216F2003F033
:100BA00046FBBCE7AFF30080CDCCCCCCCCCC0E4028
:100BB0002000F01438040020A404002033335340F4
:100BC00052B8CE3F00F07F459C040020A4D300081B
:100BD00010B586B00023009301930293039304930E
:100BE00005930D4B0093062301930C4C6946204658
:100BF0000BF06EFF20460CF06BFA4FF47A71204632
:100C00000BF008FF20460CF0E9FA20460BF05CFFE1
:100C1000034B186006B010BD4000201938040020B6
:100C2000A004002038B5044602F006FA204B1B68E9
:100C3000C31AC72B0AD90546042C08D0202C14D07F
:100C4000102C20D0022C2BD0194B1D6038BD194B15
:100C50001B78002BF2D1184B01221A70174A137817
:100C6000B3FA83F35B091370E8E7124B1B78002B90
:100C7000E6D1134B01221A70104B1B7803B10222EC
:100C80000C4B1A70DCE70B4B1B78002BDAD00123DE
:100C90000B4A1370084A1370064B00221A70D1E7F2
:100CA000084B01221A701021074801F08EFECBE795
:100CB000B0010020AB04002008000020AA0400209E
:100CC00009000020A804002000040048044B8342CF
:100CD00000D07047034A137801331370F9E700BF5F
:100CE000B4010020A904002072B6FEE708B504484C
:100CF000044B036004F0A2FC00B908BDFFF7F4FF49
:100D0000A8030020000C005808B51348134B0360DB
:100D1000134B4360002383600122C260036143617F
:100D20008361C361036203F032FD70B900210A4898
:100D300004F0A0FA58B90021074804F0C9FA40B9F4
:100D40004FF4801004F0F0FA08BDFFF7CDFFFFF775
:100D5000CBFFFFF7C9FF00BFE403002000540040B1
:100D60001C0B910008B50B480B4B036064234360D8
:100D7000002383604FF4C852C26003614361836102
:100D800004F00AFC18B9034804F0D6FA08BDFFF7CE
:100D9000ABFF00BFB40100200044014008B50E487D
:100DA0000E4B0360002343600F22826047F6FF7200
:100DB000C26003618361C361436104F0B1FC30B977
:100DC00000221146044804F001FD10B908BDFFF7E8
:100DD0008BFFFFF789FF00BF0002002000280040C2
:100DE00008B51548154B03604FF4164343600023C4
:100DF0008360C360036104224261836103624362D2
:100E0000836207F0D7FD70B900210B4807F0DEFEC2
:100E100058B90021084807F0FEFE40B9064807F01F
:100E2000B6FE30B908BDFFF75FFFFFF75DFFFFF7C4
:100E30005BFFFFF759FF00BFDC020020008000408D
:100E400008B50A480A4B0360FF234360042383600C
:100E50000023C360192202614FF4807242618361F2
:100E600008F08CFA00B908BDFFF73EFF38020020F9
:100E7000001000A000B587B00023009301930293F7
:100E80000393049305931848184A026043608360F3
:100E9000C360036104224261037643760122C2618A
:100EA00080F820308362C36280F83030436380F87A
:100EB00038300BF0C3FC98B90D4B00930623019317
:100EC000072302937F2303930423049300230593B2
:100ED000694605480BF0FCFD20B907B05DF804FB3E
:100EE000FFF702FFFFF700FF380400200000045066
:100EF0002000F01408B50548054B0360002343604B
:100F00000CF08DF900B908BDFFF7EEFE24020020B9
:100F10000010005800B5A3B04822002110A80CF022
:100F2000D6F9002309930A930B930C930D930E9318
:100F30000F9303930493059306930793089301F08B
:100F40006BFF4FF0B042D2F8903023F0180343F01B
:100F50001003C2F8903002F58062136823F4C06376
:100F600043F400731360136803F4C0630193019B9F
:100F70000F2310934FF480331193012312934FF4F6
:100F800080731393402314930523159302231B931B
:100F900003231C9310231D9308231E934FF4003347
:100FA0001F934FF0005321934FF00073209310A82C
:100FB00000F0C8FC00282CD16F23099303210A916B
:100FC00000230B930C930D9380220E920F9309A88C
:100FD00001F044F8F8B94FF0B0439A6D42F08072D6
:100FE0009A659B6D03F080730293029B0023039329
:100FF0004FF00052049205934BF67F330693222361
:1010000007932023089303A801F0DCFB23B05DF8CD
:1010100004FBFFF769FEFFF767FE00B595B05022AD
:10102000002168460CF053F94FF454530093062303
:1010300001934FF4003302934FF0007303934FF08A
:10104000005304934FF0885305934FF080630D9342
:101050004FF080530F934FF4804311931023139359
:10106000684601F036FA10B915B05DF804FBFFF7D9
:101070003BFE000000B583B001F0BCFF04F0EAFCC9
:10108000FFF748FFFFF7C9FFFFF730FEFFF752FCFD
:10109000FFF7B4FCFFF738FEFFF764FEFFF77EFEB4
:1010A000FFF79EFEFFF7CCFE0AF02EFAFFF7E2FEF6
:1010B000FFF720FF02F0C4F802F03CFD0423019387
:1010C00000240094032301220521022002F01CFACF
:1010D00002F08EFE02F01CFF204602F0C9FF02F073
:1010E0009DFF02F0C9FB052001F086FC04F0CCFC5A
:1010F00027E003F00BF9564B00221A702DE0554BF8
:101100001B78002B32D10F23022213210A2003F077
:101110001AF80023022227210A2003F014F80024E1
:1011200000942B230E221121082002F0AFFF4A4B1E
:101130001C70FFF785FCFFF74BFD02F041FD04F04A
:10114000CBFC464B1B78012B1DD0022B52D0002B21
:10115000F5D13F4B1B78002BCBD13F4B1B78002B9D
:10116000CDD13B4B1B78002BE3D0C8E70F230222E5
:1011700027210A2002F0E7FF0023022213210A2080
:1011800002F0E1FFCBE7324B1B7883B902F018FD88
:10119000FFF756FC02F050FD314B1B78002BCED0F0
:1011A000304B1B780BBB2E4B00221A70C7E7002078
:1011B00002F05EFF052301931424009423462A4A7B
:1011C00000216B2003F033F80823019300940F23D0
:1011D000264A64216E2003F02AF803F0C1F802F0D9
:1011E0001DFF1B4B00221A70D0E702F0BFFA02F07D
:1011F000FFFAD8E7164B1B7843B905F01BFB08BB79
:101200001B4B1B780BBBFFF71BFC98E7002002F081
:101210002FFF08230193142300930F23134A642103
:101220006E2003F004F80F23019300936423114A06
:101230001946002002F0FBFF02F0F0FE044B0022F2
:101240001A70DAE702F078FBDAE702F0A9FBDAE7D6
:1012500009000020AA04002008000020AB040020A0
:10126000A90400203207002070F80008ACF800083C
:1012700004340020ACF70008FEE7FEE7FEE7FEE7D7
:10128000FEE770477047704708B501F0C9FE08BD1A
:1012900008B504F0A9FF08BD704708B5042001F0A7
:1012A0009DFB08BD08B5102001F098FB08BD0000AB
:1012B00008B5024801F04BFD08BD00BF7C020020CC
:1012C00008B5024808F073FE08BD00BF4C2C002092
:1012D00008B5202001F082FB08BD000008B50248D7
:1012E00004F060F808BD00BFB401002008B5024852
:1012F00003F05EFC08BD00BFE403002008B502480F
:1013000003F076FF08BD00BFE403002008B50248E3
:1013100006F0EAFE08BD00BFDC02002008B505F0BB
:10132000CBFB08BD08B505F05BFB08BD08B501F0B7
:1013300075FB08BD08B5024807F0FEFE08BD00BFFA
:101340003802002000B583B04FF0B0431A6D42F46C
:1013500000221A651B6D03F400230193019B01F029
:101360006BFD00221146052001F0D4FD052001F09F
:10137000E1FD002211462E2001F0CCFD2E2001F0CF
:10138000D9FD03B05DF804FB00B589B000230393D9
:1013900004930593069307930268114B9A4202D077
:1013A00009B05DF804FB4FF0B043DA6C42F4005230
:1013B000DA64DA6C02F400520292029ADA6C42F0B9
:1013C0000102DA64DB6C03F001030193019B032348
:1013D0000393049303A94FF0904001F017FADFE75D
:1013E0000000045030B59DB00446002117911891BB
:1013F00019911A911B91502203A80BF068FF2268E3
:10140000224B9A4201D01DB030BD042303934FF408
:1014100040330B9303A801F05CF8002833D14FF060
:10142000B045EB6C43F00103EB64EB6C03F001039C
:101430000293029B4FF4C063179312231893002466
:1014400019941A9404231B9317A94FF0904001F0AC
:10145000DDF9AB6D43F40013AB65AB6D03F4001322
:101460000193019B224621461E2001F053FD1E20C0
:1014700001F060FD224621461F2001F04BFD1F2098
:1014800001F058FDBFE7FFF72FFCC8E7005400400C
:101490000268124B9A4200D0704700B583B04FF0FB
:1014A000B0431A6D42F480121A651B6D03F4801369
:1014B0000193019B002211462C2001F02BFD2C20D2
:1014C00001F038FD002211462D2001F023FD2D20D2
:1014D00001F030FD03B05DF804FB00BF000C0058C4
:1014E00070B59CB0044600211791189119911A917A
:1014F0001B91502203A80BF0EAFE2268284B9A4267
:1015000001D01CB070BD0223039303A800F0E1FFDB
:1015100000283ED14FF0B043DA6D42F00102DA65A7
:10152000DA6D02F001020292029ADA6C42F00202D3
:10153000DA64DB6C03F002030193019B202617960B
:10154000122318930025199501231A9308231B933E
:1015500017A9144801F05AF91348144B03601023DB
:1015600043608560C5608023036145618561C66114
:10157000056201F0C3FA78B90B4BC4F880309C6265
:1015800000221146252001F0C5FC252001F0D2FCE7
:10159000B7E7FFF7A9FBBDE7FFF7A6FBECE700BF46
:1015A00000800040000400487C0200200800024047
:1015B00030B589B0002303930493059306930793F2
:1015C0000268214B9A4201D009B030BD4FF0B043C0
:1015D0001A6D42F480721A651A6D02F480720292DA
:1015E000029ADA6C42F00202DA64DA6C02F0020269
:1015F0000192019ADA6C42F00102DA64DB6C03F0CA
:1016000001030093009B4FF440730393022404945E
:101610000A25079503A90D4801F0F8F80C23039358
:10162000049400240594069407950DEB03014FF0F4
:10163000904001F0EBF822462146322001F06AFC8E
:10164000322001F077FCBFE7001000A00004004842
:1016500010B596B004465022002102A80BF037FEC8
:1016600022680F4B9A4201D016B010BD4FF40073A0
:1016700002934FF08043109302A800F02AFF58B95C
:101680004FF0B0431A6D42F480221A651B6D03F4CB
:1016900080230193019BE7E7FFF726FBF0E700BFFC
:1016A0000010005810B596B004465022002102A840
:1016B0000BF00DFE2268174B9A4201D016B010BDF8
:1016C00001F0AAFB4FF4006302934FF400731293EE
:1016D00002A800F0FEFEC8B94FF0B043D3F8902046
:1016E00042F40042C3F890209A6D42F480629A65F9
:1016F0009B6D03F480630193019B0022114603203C
:1017000001F008FC032001F015FCD7E7FFF7ECFA25
:10171000E2E700BF0028004002680E4B9A4200D06A
:10172000704700B583B04FF0B0431A6E42F40032F8
:101730001A661B6E03F400330193019B00220F21F4
:10174000192001F0E7FB192001F0F4FB03B05DF86C
:1017500004FB00BF0044014030B58DB005468E4605
:101760002B4C94E80F000DF1300C0CE90F0005AB89
:1017700004F1100207CA83E807000DF1040C1C34C1
:1017800094E80F008CE80F00BEF5007F07D000231F
:1017900014E00CAA02EB830353F82C5C1EE0002338
:1017A000032B08D80CAA02EB830252F8102CAA4291
:1017B000EFD20133F4E7002510E00133022B0CD8FF
:1017C0000CAA02EB830252F81C2CAA42F5D30CAAF5
:1017D00002EB830353F82C5C00E000250D4A1368EC
:1017E00023F007032B43136001F026FC0446094B4A
:1017F0001B6803F00703AB4206D001F01DFC001B81
:101800000228F4D9032000E000200DB030BD00BF55
:101810005CD300080040005810B5B02816D90E4B14
:10182000DC6A4FF0B043D3F8083103F00F030B4AE2
:1018300052F82330B4FBF3F401F0F6FA0146084BFA
:10184000A3FB0434A00CFFF787FF10BDC0F3031007
:10185000014B53F82040E4E7ACD300080CD4000857
:1018600083DE1B434FF0B0439B6813F00C030DD194
:101870004FF0B0431B6803F0F003B02B04D81B09F2
:10188000254A52F823007047B023F8E7042B3ED0D6
:10189000082B10D04FF0B043DB6803F00303022B9A
:1018A00031D0032B0FD14FF0B0431B6813F4801FCE
:1018B0002BD11A4812E04FF0B0431B6813F4801F7D
:1018C00027D0174870474FF0B0431B6803F0F00370
:1018D000B02B16D81B09104A52F823004FF0B04223
:1018E000D368C3F3062303FB00F0D368C3F30213EA
:1018F0000133B0FBF3F0D3685B0F0133B0FBF3F0BF
:101900007047B023E6E70648E8E70548E6E70448FD
:1019100070470248704700BFACD300080048E80198
:101920000024F40008B5FFF79DFF4FF0B0439B681B
:10193000C3F30313024A52F82330B0FBF3F008BD9F
:101940000CD40008002800F0728338B50446036800
:1019500013F0200F2DD04FF0B0429368D26802F000
:10196000030213F00C0358D00C2B54D0E369002B66
:1019700000F0A0804FF0B042136843F00103136001
:1019800001F05AFB05464FF0B0431B6813F0020FFD
:1019900000F08880636A4FF0B042116821F0F001D6
:1019A0000B431360216A536823F47F4343EA012306
:1019B0005360236813F0010F00F09A804FF0B0429B
:1019C000936803F00C03D26802F00302082B00F0C6
:1019D0008B800C2B00F085806368B3F5803F00F0AE
:1019E000B0804FF0B042136823F480331360636813
:1019F000002B00F0AD8001F01FFB05464FF0B04317
:101A00001B6813F4003F73D101F016FB401B6428E0
:101A1000F4D9032016E3012AA8D1E369002B00F0D2
:101A20000883606A4FF0B0431B6803F0F003B02BEB
:101A300021D8984221D9FFF7EFFE002840F0FB8221
:101A4000636A4FF0B042116821F0F0010B4313605C
:101A5000216A536823F47F4343EA01235360FFF76D
:101A600061FFBF4B1860BF4B186801F09BFA00285C
:101A70009FD00120E6E2B023DBE74FF0B0421368CD
:101A800023F0F00318431060216A536823F47F4366
:101A900043EA01235360606AFFF7BEFE0028DED0F0
:101AA0000120CFE201F0C8FA401B02287FF66BAF9D
:101AB0000320C7E24FF0B042136823F00103136024
:101AC00001F0BAFA05464FF0B0431B6813F0020F5D
:101AD0003FF46FAF01F0B0FA401B0228F3D90320A6
:101AE000B0E2032A7FF478AF6368002B00F0A58290
:101AF000236813F0020F54D04FF0B042936803F004
:101B00000C03D26802F00302042B33D00C2B2FD02D
:101B1000E368002B71D04FF0B042136843F4807338
:101B2000136001F089FA05464FF0B0431B6813F4C7
:101B3000806F2DD101F080FA401B0228F4D90320D8
:101B400080E24FF0B042136843F4803313604EE7F5
:101B500001F072FA05464FF0B0431B6813F4003FE2
:101B6000C6D001F069FA401B6428F4D9032069E269
:101B7000022ACDD1E368002B00F0618221694FF089
:101B8000B042536823F0FE4343EA0163536008E028
:101B900021694FF0B042536823F0FE4343EA0163EA
:101BA0005360236813F0180F00F0DE806269002A8A
:101BB00000F0A38013F0100F70D04FF0B043D3F8B3
:101BC000943013F0020F2ED14FF0B042D2F894307F
:101BD00043F00103C2F8943001F02EFA05464FF0AD
:101BE000B043D3F8943013F0020F1CD101F024FA63
:101BF000401B0228F3D9032024E24FF0B0421368BF
:101C000023F48073136001F017FA05464FF0B043D8
:101C10001B6813F4806FC4D001F00EFA401B022839
:101C2000F4D903200EE24FF0B042D2F8943043F0E2
:101C30000403C2F8943001F0FFF905464FF0B043B9
:101C4000D3F8943013F0080F06D101F0F5F9401BDA
:101C50000328F3D90320F5E1A1694FF0B042D2F88F
:101C6000943023F4706343EA0123C2F89430D2F82D
:101C7000943023F00103C2F8943001F0DDF90546F9
:101C80004FF0B043D3F8943013F0020F6CD001F052
:101C9000D3F9401B0228F3D90320D3E14FF0B0421F
:101CA000D2F8943043F00103C2F8943001F0C4F943
:101CB00005464FF0B043D3F8943013F0020F06D12D
:101CC00001F0BAF9401B0228F3D90320BAE14FF022
:101CD000B042D2F8943023F00403C2F894304FF0AD
:101CE000B043D3F8943013F0080F3DD001F0A4F9BD
:101CF000401B0328F3D90320A4E14FF0B042D2F8EF
:101D0000943023F00403C2F8943001F095F90546AD
:101D10004FF0B043D3F8943013F0080F18D14FF0C0
:101D2000B042D2F8943023F00103C2F8943001F0AD
:101D300083F905464FF0B043D3F8943013F0020F07
:101D400012D001F079F9401B0228F3D9032079E180
:101D500001F072F9401B0328DAD9032072E100BFB9
:101D6000100000200C000020236813F0040F68D03E
:101D7000B74B1B6813F4807F27D0A368012B35D0A5
:101D8000052B3CD04FF0B043D3F8902022F0010255
:101D9000C3F89020D3F8902022F00402C3F89020DA
:101DA000A368DBB301F048F905464FF0B043D3F820
:101DB000903013F0020F44D101F03EF9401B41F284
:101DC00088339842F1D903203CE101F025F801F075
:101DD00033F905469E4B1B6813F4807FCDD101F08B
:101DE0002BF9401B0228F5D903202BE14FF0B0421C
:101DF000D2F8903043F00103C2F89030D0E74FF0B2
:101E0000B043D3F8902042F00402C3F89020D3F8F6
:101E1000902042F00102C3F89020C1E701F00CF9D4
:101E200005464FF0B043D3F8903013F0020F08D0BE
:101E300001F002F9401B41F288339842F1D90320A6
:101E400000E1236813F0400F33D0A36AC3B14FF011
:101E5000B042D2F8983043F00103C2F8983001F054
:101E6000EBF805464FF0B043D3F8983013F0020F6B
:101E70001FD101F0E1F8401B0228F3D90320E1E073
:101E80004FF0B042D2F8983023F00103C2F89830F6
:101E900001F0D2F805464FF0B043D3F8983013F074
:101EA000020F06D001F0C8F8401B0228F3D9032026
:101EB000C8E0E36A002B00F0C4804FF0B0429168A4
:101EC00001F00C01D268022B19D00C2900F0BD8062
:101ED0004FF0B042136823F08073136001F0ACF848
:101EE00004464FF0B0431B6813F0007F00F097806A
:101EF00001F0A2F8001B0228F3D90320A2E002F0AF
:101F00000303206B83420AD00C2900F09C804FF021
:101F1000B0431B6813F0806F22D0012092E002F0E2
:101F20007003606B8342EFD1C2F30623A06B834240
:101F3000EAD102F47813E06B8342E5D102F06063EA
:101F4000206C8342E0D102F06042636C9A42DBD1A4
:101F50004FF0B0431B6813F0007F44D0002071E0C5
:101F60004FF0B042136823F08073136001F064F8FF
:101F700005464FF0B0431B6813F0007F06D001F018
:101F80005BF8401B0228F4D903205BE04FF0B0421D
:101F9000D36830491940236B606B0343A06B43EA5D
:101FA0000023E06B0343206C0343606C034319433D
:101FB000D160136843F080731360D36843F080539B
:101FC000D36001F039F804464FF0B0431B6813F0BA
:101FD000007F06D101F030F8001B0228F4D903205D
:101FE00030E000202EE04FF0B0431A6842F08072DB
:101FF0001A60DA6842F08052DA6001F01DF8044697
:102000004FF0B0431B6813F0007F06D101F014F8C5
:10201000031B022BF4D9032014E0002012E04FF040
:10202000B042D1680C4B0B40D36000200AE0012085
:102030007047012006E0012004E0012002E00120B9
:1020400000E0002038BD0120FCE70120FAE700BFD6
:10205000000400588C80C111FCFFFEEE002800F047
:10206000278170B50C460546934B1B6803F00703A8
:102070008B422DD32B6813F0020F3FD12B6813F046
:10208000200F53D12B6813F0400F6AD12B6813F047
:10209000040F40F083802B6813F0080F40F0978006
:1020A0002B6813F0010F00F0DE806B68022B00F04C
:1020B000A880032B00F0AD80002B40F0B2804FF0E1
:1020C000B042126812F0020F40F0B1800120EEE041
:1020D000794A136823F007030B43136000F0ACFF49
:1020E0000646754B1B6803F00703A342C2D000F0FD
:1020F000A3FF801B0228F4D90320D8E0AB684FF07F
:10210000B0418A6822F0F00213438B6000F094FF24
:1021100006464FF0B0439B6813F4803FAED100F009
:102120008BFF801B0228F4D90320C0E06B694FF0BD
:10213000B041D1F8082122F0F0021343C1F8083170
:1021400000F07AFF06464FF0B043D3F8083113F49D
:10215000003F97D100F070FF801B0228F3D90320C5
:10216000A5E0A9694FF0B042D2F8083123F00F037F
:1021700043EA1113C2F8083100F05EFF06464FF043
:10218000B043D3F8083113F4803F7FF47FAF00F001
:1021900053FF801B0228F2D9032088E0EB684FF040
:1021A000B0418A6822F4E06213438B6000F044FF80
:1021B00006464FF0B0439B6813F4003F7FF46BAFCB
:1021C00000F03AFF801B0228F3D903206FE0296951
:1021D0004FF0B042936823F4605343EAC103936025
:1021E00000F02AFF06464FF0B0439B6813F4802F9F
:1021F0007FF456AF00F020FF801B0228F3D90320A4
:1022000055E04FF0B042126812F4003F0FD10120A8
:102210004DE04FF0B042126812F0007F07D101206C
:1022200045E04FF0B042126812F4806F42D04FF098
:10223000B0418A6822F0030213438B6000F0FCFE79
:1022400006464FF0B0439B6803F00C036A68B3EB9B
:10225000820F08D000F0F0FE801B41F288339842D4
:10226000EFD9032023E0144B1B6803F00703A342BC
:1022700015D9114A136823F007032343136000F0B4
:10228000DBFE05460C4B1B6803F00703A34206D098
:1022900000F0D2FE401B0228F4D9032007E0FFF72C
:1022A00041FB064B186000F0CDFE00F07BFE70BDD8
:1022B000012070470120FAE700400058100000207C
:1022C00008B5FFF72FFB4FF0B0439B68C3F3022321
:1022D000034A52F8233003F01F03D84008BD00BF63
:1022E000ECD3000808B5FFF71DFB4FF0B0439B6827
:1022F000C3F3C223034A52F8233003F01F03D8402C
:1023000008BD00BFECD300084FF0B041D1F88830D1
:10231000020902F47F2223EA0203000100F47F2075
:102320000343C1F88830704770B505464FF0B0429E
:10233000136823F08063136000F07EFE04464FF0C4
:10234000B0431B6813F0006F06D000F075FE001B51
:102350000228F4D9032400E000240CB1204670BD0B
:102360004FF0B0431A6922F4FE42296842EA012282
:102370001A611A6922F4781269680A431A611A68A4
:1023800042F080621A6000F057FE06464FF0B043FC
:102390001B6813F0006F05D100F04EFE801B022871
:1023A000F4D90324002CD9D14FF0B0421369296924
:1023B0000B431361D2E770B505464FF0B042136886
:1023C00023F08063136000F037FE04464FF0B04303
:1023D0001B6813F0006F06D000F02EFE001B0228D1
:1023E000F4D9032400E000240CB1204670BD4FF066
:1023F000B0431A6922F4FE42296842EA01221A61B6
:102400001A6922F06062A9680A431A611A6842F0E8
:1024100080621A6000F010FE06464FF0B0431B6861
:1024200013F0006F05D100F007FE801B0228F4D9DD
:102430000324002CD9D14FF0B042136929690B4312
:102440001361D2E770B505464FF0B042136823F030
:102450008063136000F0F0FD04464FF0B0431B684A
:1024600013F0006F06D000F0E7FD001B0228F4D93E
:10247000032400E000240CB1204670BD4FF0B043AF
:102480001A6922F4FE42296842EA01221A611A6995
:1024900022F06042E9680A431A611A6842F08062D9
:1024A0001A6000F0C9FD06464FF0B0431B6813F0F8
:1024B000006F05D100F0C0FD801B0228F4D9032471
:1024C000002CD9D14FF0B042136929690B43136135
:1024D000D2E770B50446036813F0400F2FD0036BAA
:1024E000B3F5800F14D00AD833B90430FFF71CFFBE
:1024F0000646A0B1054624E001252E4621E0B3F5AD
:10250000000F18D0B3F5400F17D001252E4618E064
:102510004FF0B042D36843F48033D3600026236B7E
:102520004FF0B041D1F8882022F440021343C1F8A3
:102530008830002505E00026F1E70026EFE70025BA
:102540002E46236813F4006F0AD04FF0B043D3F83F
:10255000905005F44075236CAB4240F0B78035468F
:10256000236813F0010F09D0A3694FF0B041D1F8EF
:10257000882022F003021343C1F88830236813F047
:10258000020F09D0E3694FF0B041D1F8882022F45E
:1025900040621343C1F88830236813F0100F0CD049
:1025A000A16A4FF0B042D2F88830080C000423EA48
:1025B000000343EA0143C2F88830236813F0200F78
:1025C0000CD0E16A4FF0B042D2F88830080C000419
:1025D00023EA000343EA0143C2F88830236813F07A
:1025E000040F40F0B480236813F0080F40F0B3806C
:1025F000236813F4807F13D0636B4FF0B041D1F8A0
:10260000882022F040621343C1F88830636BB3F135
:10261000006F00F0A480636BB3F1806F00F0A480C2
:10262000236813F4007F17D0A36BB3F1804F05D05C
:10263000B3F1004F02D0002B40F09E804FF0B0412C
:10264000D1F8882022F040421343C1F88830A36BB0
:10265000B3F1C05F00F0A280236813F4806F13D041
:10266000E36B4FF0B041D1F8882022F04052134381
:10267000C1F88830E36BB3F1005F00F09680E36B44
:10268000B3F1805F00F09680236813F4805F09D077
:10269000636C4FF0B041D1F8942022F440421343D0
:1026A000C1F89430236813F4005F0DD0E26C4FF052
:1026B000B043596A21F030010A435A62A26C596A48
:1026C00021F003010A435A62284670BD00F0A4FBC2
:1026D0005DB9236C4FF0B041D1F8902022F44072E4
:1026E0001343C1F8903035463AE74FF0B043D3F882
:1026F0009020D3F8901041F48031C3F89010D3F8B3
:10270000901021F48031C3F8901022F44072216CB3
:102710000A43C3F89020D3F8903013F0010F12D081
:1027200000F08AFC05464FF0B043D3F8903013F028
:10273000020F0AD100F080FC401B41F2883398421E
:10274000F1D903250CE735460AE7354608E7206A44
:10275000FFF7DAFD47E7606AFFF7D6FD48E7CB6889
:1027600043F08073CB6056E7201DFFF724FE00285E
:102770003FF456AF054653E723F080534FF0B04285
:10278000D2F8881021F04041C2F88810D2F88810A1
:1027900021F040610B43C2F8883058E74FF0B04257
:1027A000D36843F08073D36056E7CB6843F480333B
:1027B000CB6064E7201DFFF745FE00283FF464AFBF
:1027C000054661E74FF0B0439A6B42F080729A631E
:1027D0009A6B22F080729A6303684268134382689E
:1027E0001A43C3681343026943EA0242064B5A6024
:1027F0001A6822F47C52416942EA01221A601A687E
:1028000042F060021A60704700600040F0B500239B
:1028100066E085685E000324B44025EA0405CC68C0
:10282000B4402C438460456825EA0C054C68C4F329
:1028300000149C402C43446063E0DD08083550F8E8
:10284000254003F0070C4FEA8C0C4FF00F0E0EFAE8
:102850000CFE24EA0E0E0C6904FA0CF444EA0E0491
:1028600040F8254064E0042400E0002404FA0EF45B
:102870002C430CF1020C4F4D45F82C404E4C256872
:10288000D44325EA02064F6817F4801F01D042EABC
:102890000506494D2E606D6804EA05064F6817F479
:1028A000001F01D042EA0506434D6E60D5F8805006
:1028B00004EA05064F6817F4803F01D042EA050696
:1028C0003D4DC5F88060D5F884502C404E6816F414
:1028D000003F01D042EA0504374AC2F88440013380
:1028E0000A6832FA03F464D04FF0010C0CFA03FCCE
:1028F0001CEA0202F3D04C6804F00304013C012CF2
:1029000087D94C6804F00304032C0CD0C4685D0024
:102910004FF0030C0CFA05FC24EA0C0C8C68AC405C
:1029200044EA0C04C4604C6804F00304022C84D014
:1029300004684FEA430E4FF0030C0CFA0EFC24EA35
:102940000C0C4C6804F0030404FA0EF444EA0C0482
:1029500004604C6814F4403FC1D04FEA930C0CF172
:102960000205144C54F8255003F0030E4FEA8E0E66
:102970000F2404FA0EF425EA0405B0F1904F3FF459
:1029800074AF0E4CA0420ED004F58064A0420CD06F
:1029900004F58064A0420AD004F58064A0423FF4AC
:1029A00062AF072462E7012460E702245EE70324A4
:1029B0005CE7F0BD0000014000080058000400483A
:1029C0000AB18161704781627047436901EA03027D
:1029D00021EA030141EA02418161704708B5054BD4
:1029E000DB68034200D108BD024BD860FEF71AF93C
:1029F000F9E700BF000800582030054B53F82020AD
:102A0000044B9A4201D0012070470020704700BF5C
:102A100000140058000400807047000008B5054B02
:102A2000D8681A6822EA00021A605860FFF7F4FFBB
:102A300008BD00BF0015005830B4C46C056D65605A
:102A4000446D14B1846DC56D6560446C04F01C0C5C
:102A5000012404FA0CF4056C6C60046863608368FC
:102A6000102B05D0036899600368DA6030BC7047AA
:102A700003689A600368D960F8E700000368104AA9
:102A8000934215D8426C22F0030202F1804202F513
:102A900002328264DBB2083B0A4AA2FB03230A4AE1
:102AA000C264C3F30413012202FA03F303657047FF
:102AB000426C22F00301054A0A448264EAE700BF3F
:102AC00007040240CDCCCCCC800802401C08024058
:102AD000436803F03F03074A1A4492004265064ADE
:102AE0008265013B03F00303012202FA03F3C3658D
:102AF000704700BF3F8200104009024000285BD0B1
:102B000010B5044602682D4B9A423DD82C4B134415
:102B10002C49A1FB03131B099B0043642A4B03644C
:102B2000022384F8253011686FF30E11A368E06862
:102B300003432069034360690343A0690343E069D9
:102B40000343206A03430B4313602046FFF796FFBD
:102B5000A368B3F5804F22D06368A26C03F03F03F3
:102B60001360E36C226D5A606368013B032B19D933
:102B700000236365A365E3650020E063012384F817
:102B8000253084F8240010BD104B13440D49A1FBDF
:102B900003131B099B0043640D4B0364C0E7002330
:102BA0006360D9E72046FFF793FF636D00221A6048
:102BB000A36DE26D5A60DFE7012070470704024011
:102BC000F8FFFDBFCDCCCCCC00000240F8FBFDBF30
:102BD0000004024038B5044690F82400012841D092
:102BE000012084F8240094F82500C0B2012804D004
:102BF000002384F82430022038BD022084F8250008
:102C00000020E0632568286820F001002860204645
:102C1000FFF712FF236BD3B12268136843F00E0352
:102C20001360A36C1A6812F4803F03D01A6842F450
:102C300080721A60636D1BB11A6842F480721A6068
:102C40002268136843F0010313600020D4E7226870
:102C5000136823F0040313602268136843F00A0327
:102C60001360DEE70220C7E70346002834D090F85F
:102C70002520D2B2022A06D00422C263002280F8A4
:102C800024200120704701680A6822F00E020A60C1
:102C9000816C0A6822F480720A6001680A6822F076
:102CA00001020A60426C02F01C01006C01228A40A1
:102CB0004260DA6C196D51605A6D32B1116821F4BD
:102CC000807111609A6DD96D5160012283F82520C1
:102CD000002083F8240070470120704708B590F861
:102CE0002530DBB2022B03D00423C363012008BDCF
:102CF0000268136823F00E0313600268136823F060
:102D000001031360826C136823F480731360436CB7
:102D100003F01C02016C012393404B60C36C026DF5
:102D20005A60436D33B11A6822F480721A60836D61
:102D3000C26D5A60012380F82530002380F82430CA
:102D4000836B13B198470020D1E70020CFE738B557
:102D5000036C196804682568436C03F01C030422A3
:102D60009A400A4215D015F0040F12D0236813F0D0
:102D7000200F03D1236823F004032360436C03F086
:102D80001C02016C042393404B60036B03B1984712
:102D900038BD02229A400A421CD015F0020F19D009
:102DA000236813F0200F06D1236823F00A03236061
:102DB000012380F82530436C03F01C02016C0223D0
:102DC00093404B60002380F82430C36A002BDFD08F
:102DD0009847DDE7082202FA03F30B42D8D015F03A
:102DE000080FD5D0236823F00E032360436C03F053
:102DF0001C03016C012202FA03F34B60C26380F8EA
:102E00002520002380F82430436B002BC0D0984746
:102E1000BEE790F825007047024A136843F48073B8
:102E20001360704700040058024B186800F4C0603B
:102E3000704700BF00040058024A536843F480639F
:102E40005360704700040058002807DB00F01F02A1
:102E5000400901239340024A42F82030704700BFE6
:102E600000E100E000280CDB00F01F024009012314
:102E700093402030034A42F82030BFF34F8FBFF316
:102E80006F8F704700E100E0002808DB0901C9B23C
:102E900000F1604000F5614080F80013704700F0D9
:102EA0000F000901C9B2014B1954704714ED00E03D
:102EB00000B500F00700C0F1070CBCF1040F28BFFB
:102EC0004FF0040C031D062B0FD9C31E4FF0FF3E1D
:102ED0000EFA0CF021EA000199400EFA03FE22EAF4
:102EE0000E0241EA02005DF804FB0023EEE7000059
:102EF000074AD36823F4E0631B041B0C000200F4B0
:102F0000E060034343F0BF6343F40033D360704792
:102F100000ED00E010B50446054BD868C0F3022070
:102F2000FFF7C6FF01462046FFF7AEFF10BD00BF0A
:102F300000ED00E008B5FFF787FF08BD08B5FFF713
:102F400091FF08BD0138B0F1807F0BD24FF0E02334
:102F50005861054AF02182F8231000209861072269
:102F60001A6170470120704700ED00E0002808DB7F
:102F700000F01F024009012393404030014A42F80B
:102F80002030704700E100E0002808DB00F01F025D
:102F90004009012393406030014A42F820307047D5
:102FA00000E100E0114B1B780BB90120704710B510
:102FB0000446FEF7B7FC0D4B1A784FF47A73B3FB57
:102FC000F2F3B0FBF3F0FFF7BDFF68B90F2C01D9A6
:102FD00001200AE0002221464FF0FF30FFF79AFF60
:102FE000034B1C60002000E0012010BD0A000020FF
:102FF0000C00002010B5094A136843F48073136075
:103000000320FFF775FF0F20FFF7CCFF10B101245D
:10301000204610BD0446FEF795F9F9E70040005838
:10302000034B1B78034A11680B441360704700BFC1
:103030000A000020AC040020014B1868704700BF54
:10304000AC040020014B1868704700BF0C00002042
:10305000014B1878704700BF0A000020164AD2F8CA
:10306000883043F47003C2F888304FF0B0431A68D8
:1030700042F001021A604FF4E0229A601968A2F14E
:10308000A262A2F205120A401A60D3F8942022F03C
:103090000502C3F89420D3F8982022F00102C3F867
:1030A0009820064ADA601A611A6822F480221A60AF
:1030B00000229A61704700BF00ED00E0001004227A
:1030C00000B585B002464FF47A7302930123019351
:1030D0000091D021044801F093FC10B905B05DF8CF
:1030E00004FB0120FAE700BFE403002030B587B0FD
:1030F00000208DF816008DF815000DF11701FFF76F
:10310000DFFF002840F0938004469DF81730242B01
:1031100003D00224204607B030BDB6238DF8153009
:103120004FF47A730293012301930DF1150200927B
:103130007E22D021404801F08EFB08B10124E9E74E
:103140000A2002F0AFFC00238DF815304FF47A739B
:103150000293012301930DF1150200927C22D021EC
:10316000354801F078FB08B10124D3E7012002F0D3
:1031700099FC00238DF815304FF47A7302930123E4
:1031800001930DF1150200925922D0212A4801F035
:1031900062FB08B10124BDE7012002F083FC42F28A
:1031A000107302934FF400530193244B00930123B7
:1031B0005E22D021204801F04EFB08B10124A9E78E
:1031C000012002F06FFC01238DF815304FF47A7264
:1031D000029201930DF1150200925922D021164856
:1031E00001F039FB08B1012494E7C82002F05AFC31
:1031F0004FF47A75B5B14FF47A73029301230193BA
:103200000DF1160200922122D0210B4801F0F8FBAB
:1032100078B99DF81630012B04D0052002F042FC4D
:10322000013DE7E7002D7FF475AF012472E701242B
:1032300070E701246EE700BFE40300204CD40008CF
:1032400010B586B000238DF81730FFF74FFF18B187
:103250000124204606B010BD04460E238DF8173019
:103260004FF47A730293012301930DF11702009238
:103270007D22D021304801F0EEFA08B10124E8E7C0
:103280000A2002F00FFCA8238DF817304FF47A7350
:103290000293012301930DF1170200924022D021E5
:1032A000254801F0D8FA08B10124D2E7012002F044
:1032B000F9FB01238DF817304FF47A7202920193D3
:1032C0000DF1170200924122D0211B4801F0C3FAF0
:1032D00008B10124BDE7012002F0E4FBA9238DF829
:1032E00017304FF47A730293012301930DF1170203
:1032F00000924222D021104801F0ADFA08B1012419
:10330000A7E7012002F0CEFB02238DF817304FF41F
:103310007A730293012301930DF1170200927C222C
:10332000D021054801F097FA08B1012491E7012066
:1033300002F0B8FB8DE700BFE403002000B585B0C4
:103340004FF0FF3302930C22019200900123D02111
:10335000024801F055FB05B05DF804FBE4030020D2
:1033600000B58DB04FF0FF3302931923019304ABE6
:10337000009301238822EC21504801F041FB18B151
:1033800001200DB05DF804FB4FF0FF3302930723DB
:1033900001930DF1290300930123E122EC21474819
:1033A00001F02EFB002840F086809DF811209DF84A
:1033B000103043EA0223424A13809DF813209DF8FF
:1033C000123043EA02233F4A13809DF815209DF8EE
:1033D000143043EA02233C4A13809DF817209DF8DD
:1033E000163043EA0223394A13809DF819209DF8CC
:1033F000183043EA0223364A13809DF81B209DF8BB
:103400001A3043EA0223334A13809DF81D209DF8A9
:103410001C3043EA0223304A13809DF81F209DF898
:103420001E3043EA02232D4A13809DF821209DF887
:10343000203043EA02232A4A13809DF823209DF876
:10344000223043EA0223274A13809DF825209DF865
:10345000243043EA0223244A13809DF827209DF854
:10346000263043EA0223214A13809DF82820204B6E
:103470001A809DF82A209DF8293043EA02231D4A2C
:1034800013809DF82B201C4B1A809DF82C109DF862
:103490002D3003F00F0242EA011218490A809DF80C
:1034A0002E201B0943EA0213154A13809DF92F2091
:1034B000144B1A8065E7022063E700BFE403002095
:1034C000D4040020CC040020CA040020D204002030
:1034D000C8040020C6040020C4040020C204002048
:1034E000C0040020BE040020BC040020BA04002058
:1034F000D0040020B8040020CE040020B604002030
:10350000B4040020B20400202DE9F04186B0074643
:10351000884616461D46FFF723FF20B101242046AA
:1035200006B0BDE8F081044600238DF817308DF811
:103530001630B6238DF817304FF47A7302930123B7
:1035400001930DF117020092E022EC214C4801F0AA
:1035500082F9002840F08B80642002F0A3FA8DF8F5
:1035600017604FF47A730293012301930DF1170250
:103570000092F222EC21424801F06DF9002878D146
:10358000642002F08FFA4FF47A73029301230193BF
:103590000DF116020092F222EC21394801F030FAC6
:1035A0009DF816209DF817309A4201D00424B6E702
:1035B0009DF834309B009DF8302043EA42138DF88B
:1035C00017304FF47A730293012301930DF1170220
:1035D0000092F522EC212A4801F03DF900284AD159
:1035E000642002F05FFA4FF47A730293012301938F
:1035F0000DF116020092F522EC21214801F000FAAB
:103600009DF816209DF817309A4201D0062486E7CF
:103610004FEA880343EA47135BB22B438DF8173018
:103620004FF47A730293012301930DF11702009274
:10363000F422EC21124801F00EF9F0B9642002F0F6
:1036400031FA4FF47A730293012301930DF11602BC
:103650000092F422EC210A4801F0D2F99DF81620DC
:103660009DF817309A423FF45AAF082457E70224D6
:1036700055E7032453E7052451E707244FE700BF2C
:10368000E403002030B585B004464FF47A7302930A
:10369000012301930C4D0095D022EC210B4801F041
:1036A000AFF92B78602B01D005B030BD4FF0FF3360
:1036B00002930823019300940123F722EC2103488D
:1036C00001F09EF9F0E700BFB0040020E403002001
:1036D00010B5104C2046FFF7D5FF0F4B4FF0AA0E48
:1036E0009C460CF801EB224603CAC3F80100CCF853
:1036F00004100A4C07CCC3F80900C3F80D10C3F836
:1037000011202188A278A3F81510DA7583F818E043
:1037100010BD00BF18070020F00600202007002081
:1037200008B50C4B1B780F2B12D90A4B00221A70CC
:10373000094A138801339BB2138043F60752934220
:1037400002D9054B00221A80034B188800F0A0FB19
:1037500008BD00BFE6050020E405002008B5CAB298
:103760000146002003F054F808BD0000F8B51A4BDC
:103770001B783BB1194B1B78112B15D9184B012223
:103780001A70F8BDFFF7A4FF164C174D0FCD0FC4EC
:1037900095E8070003C422700F4A13781933137099
:1037A0000E4B00221A70E5E7104C2046FFF7C6FDCD
:1037B000094E35780B4F05EB070C234607CB7851A4
:1037C000CCF80410CCF808200C353570034A137877
:1037D00001331370D5E700BFED060020EC06002092
:1037E0002F070020EC050020F00600200C07002029
:1037F0001A4B1B7803B9704770B5FFF791FF184D4E
:103800002B681A0E174C84F8FC201A0C84F8FD2043
:103810001A0A84F8FE2084F8FF30134B1B88134EDD
:10382000307800EB03104FF480722146000200F064
:103830009BFA3378013333702B6801332B600023FC
:103840000B4A13700B4A1370044A13704FF48072C2
:10385000FF21204609F03BFD70BD00BF2F0700206F
:10386000E8050020EC050020E4050020E605002026
:10387000ED060020EC06002030B583B00024294B73
:103880009C4243D8250204220DEB020105F1FC0005
:1038900000F0CAFA9DF804209DF805301B0443EAA5
:1038A00002639DF8062043EA02239DF80720134394
:1038B000B3F1FF3F01D00134E1E744B900231A4AD4
:1038C00013601A4A13701A4A138003B030BD0422E1
:1038D0000DEB0201281F00F0A7FA9DF804209DF8C7
:1038E00005301B0443EA02639DF8062043EA0223E5
:1038F0009DF80720134301330B4A136004F00F02B5
:103900000A4B1A7024090A4B1C80DEE7064B094A51
:103910001A60064B00221A70054B43F609521A80B2
:10392000D3E700BF8FD00300E8050020E6050020A4
:10393000E405002090D0030008B5144B1868144B20
:103940001B68984218D2134B1B78B3B1114B1B78EC
:10395000D3B911488021FFF701FF68B90D4A1378E8
:103960000133DBB21370012B06D9134600221A7003
:10397000064A13680133136008BD4FF4807206498C
:10398000000200F051FAE1E70448E3E7E004002018
:10399000E8050020DC040020E40400206405002089
:1039A0000C4B18680C4B1B68984200D3704710B53D
:1039B0000A4C4FF480722146000200F035FA4FF4B1
:1039C0008071204607F0C4FE18B9024A136801331B
:1039D000136010BDD8040020E8050020E404002096
:1039E0000378DBB2B52B00D070474378DBB2622B93
:1039F000FAD18378DBB2012BF6D1C378DBB2072B87
:103A0000F2D1464A01231370837AC17A43EA012333
:103A10001381037B9372437BD372837B1373C37BCA
:103A200053738379C17943EA0123017A43EA01435D
:103A3000417A43EA01635360427C12F0010F5AD08D
:103A4000027C364B9A73827E344BDA73417FC9B263
:103A50001974D0F81E2007EE902AF8EEE77A9FED51
:103A6000307A67EE877AC3ED057AD0F8222007EE28
:103A7000902AF8EEE77A67EE877AC3ED067AD0F8F7
:103A8000422007EE902AF8EEE77AC3ED0D7A90F81F
:103A90004620D2B207EE902AF8EE677AC3ED0E7A8E
:103AA000022937D91F4B01221A70827A1E4B1A70D5
:103AB000C27A5A70027B9A70427BDA70827B1A71EA
:103AC000C27B5A71027C9A71827FDA71C27F1A724C
:103AD00090F820205A7290F821209A7290F82220B3
:103AE000DA7290F823201A7390F824205A7390F811
:103AF00025209A7378E70D4AA2FB03239B090C4A01
:103B0000A2FB03125209C2EB0212A3EB8202034B87
:103B10009A7398E7034B00221A70C6E73407002017
:103B200095BFD6333207002020070020D34D621006
:103B30008988888810B50A4C204604F08FFC6422DE
:103B40000849204604F0D4FF30B9074B1A681368BF
:103B500023F00403136010BDFDF7C6F8F5E700BFBE
:103B6000DC0200207C0700207C02002008B5002336
:103B700000E00133622B0EDC074AD25CD2B2B52AD8
:103B8000F7D15A1C04498A5CD2B2622AF1D10846A4
:103B90001844FFF725FF08BD7C07002008B5064B39
:103BA000834200D008BDFFF7E1FF642203490248C9
:103BB00004F09EFFF6E700BFDC0200207C07002037
:103BC00030B583B0194B1B7813B1194A127812B172
:103BD000B3B103B030BD0F230193142400942346E6
:103BE000144A00216B2000F022FB002100912346A3
:103BF0007F226B2000F04AFA0D4B01221A70E8E791
:103C000005230193142500952B460A4A00216B20B9
:103C100000F00DFB002400942B467F2221466B20F0
:103C200000F034FA024B1C70D3E700BF32070020CB
:103C30003107002070F80008114B1A7C114B1B78DB
:103C40009A4200D1704730B583B0002500957823A3
:103C50005F2264213C2000F05BFA094C0F23227C98
:103C600064213C2000F016FB00957F236022642134
:103C70003C2000F00BFA227C024B1A7003B030BDDE
:103C8000340700203007002000B58FB03422002117
:103C900001A809F01CFB062301934FF480730793DE
:103CA00041F2883201A9054805F0F8F810B90FB0C3
:103CB0005DF804FBFDF718F8F9E700BF38020020B3
:103CC00000B58FB03422002101A809F000FB0423C5
:103CD00001934FF48073079341F2883201A905489C
:103CE00005F0DCF810B90FB05DF804FBFCF7FCFF41
:103CF000F9E700BF3802002000B58FB03422002160
:103D000001A809F0E4FA00238DF80330052301939C
:103D10004FF4807307934FF080730A9301230B9342
:103D200041F2883201A90B4805F0B8F860B941F2B8
:103D300088320DF10301074805F068F938B99DF89C
:103D400003000FB05DF804FBFCF7CEFFEFE7FCF7D4
:103D5000CBFFF4E73802002008B5FFF7CDFF10F0E5
:103D6000010FFAD108BD000070B58EB006460D46B1
:103D700014463422002101A809F0A9FAB4F5807F85
:103D800001D94FF48074FFF77FFF0223019302965D
:103D9000002303934FF440520492059306934FF48B
:103DA000807207924FF48062089209934FF08072FC
:103DB0000A920B940C930D9341F2883201A90B489F
:103DC00005F06CF860B941F288322946074805F0E1
:103DD000B4F840B9FFF7C0FFFFF772FF0EB070BD37
:103DE000FCF782FFEFE7FCF77FFFF3E738020020E4
:103DF00000B58FB03422002101A809F068FAB7237A
:103E000001934FF48073079341F2883201A905486A
:103E100005F044F810B90FB05DF804FBFCF764FF3F
:103E2000F9E700BF3802002070B58EB006460C4698
:103E300015463422002101A809F049FA1323019301
:103E400002964FF4405304934FF4807307934FF45A
:103E5000806308934FF080730A930B9541F2883288
:103E600001A90A4805F01AF850B941F288322146F2
:103E7000064805F0CBF830B9FFF76EFF0EB070BD05
:103E8000FCF732FFF1E7FCF72FFFF5E738020020DF
:103E900010B58EB00446FFF7F7FE2403342200214C
:103EA00001A809F014FA2123019302944FF440531E
:103EB00004934FF4807307934FF48063089341F2A7
:103EC000883201A9064804F0E9FF28B9FFF744FF4A
:103ED000FFF7F6FE0EB010BDFCF706FFF6E700BFD9
:103EE0003802002000B587B08DF817004FF0FF337F
:103EF0000293012301930DF11702009200227A210F
:103F0000024800F0A8FC07B05DF804FBE4030020C1
:103F100008B5AE20FFF7E6FFA820FFF7E3FF7F20FC
:103F2000FFF7E0FFA120FFF7DDFF0020FFF7DAFF3A
:103F3000A220FFF7D7FF0020FFF7D4FFA020FFF754
:103F4000D1FF5120FFF7CEFF8120FFF7CBFF7F206D
:103F5000FFF7C8FFB120FFF7C5FF2220FFF7C2FF20
:103F6000B320FFF7BFFF5020FFF7BCFFB920FFF7DA
:103F7000B9FFBC20FFF7B6FF1020FFF7B3FFBE204C
:103F8000FFF7B0FF0520FFF7ADFFB620FFF7AAFF50
:103F90000A20FFF7A7FFD520FFF7A4FF6220FFF755
:103FA000A1FF1520FFF79EFF0020FFF79BFF7F205A
:103FB000FFF798FF7520FFF795FF0020FFF792FFAE
:103FC0007F20FFF78FFFA420FFF78CFFAF20FFF7C4
:103FD00089FF08BD83B27F2B16D8002914DB7F2907
:103FE00012DC0F2A10D800EBD0735B1003EB8113A7
:103FF0000949C95C10F0010F07D021F00F0102F050
:104000000F020A430449CA54704701F00F0141EA04
:104010000212D2B2F6E700BFE007002000B585B07B
:104020001520FFF75FFF0020FFF75CFF3F20FFF741
:1040300059FF7520FFF756FF0020FFF753FF7F2041
:10404000FFF750FF4FF47A7302934FF4005301933C
:10405000054B0093012340227A21044800F0FBFB2A
:1040600005B05DF804FB00BFE0070020E40300207A
:1040700008B500F00F0141EA00114FF40052C9B237
:10408000014809F024F908BDE00700202DE9F043BC
:1040900085B006460D4614461F464FEA50084FEAC3
:1040A00052091520FFF71EFF4046FFF71BFF484649
:1040B000FFF718FF7520FFF715FF2846FFF712FFDF
:1040C0003846FFF70FFFA61B023606EBD676C6F37F
:1040D0004706002411E0621908EB82124FF0FF330B
:1040E00002930196084B1A440092012340227A2140
:1040F000064800F0B0FB0134E4B27B1B9C42EADDD1
:1041000005B0BDE8F08300BFE0070020E403002015
:104110002DE9F843894690461E469DF82070C5B2A9
:104120000AE03A4621462846FFF754FF0134E4B23C
:10413000B442F6DB0135EDB2454502DC5FFA89F4A5
:10414000F6E7BDE8F8832DE9F04F89B005900691B8
:10415000029207934FF00008CDF8048006E0029B1E
:10416000013B02935B000133A8EB0308029B019A19
:10417000934259DBBDF81440BDF8089004EB0903E5
:1041800018B2BDF81830BDF804501F4603EB050AFD
:104190000FFA8AFA9DF81C60324651460390FFF7E9
:1041A00019FF63191BB209EB070B0FFA8BFB3246A1
:1041B000594604931846FFF70DFF631B1AB21346C6
:1041C000324659469B461846FFF704FFA4EB090404
:1041D00024B2324651462046FFF7FCFE7D1B2DB22D
:1041E000324629462046FFF7F5FEA7EB090424B224
:1041F000324621465846FFF7EDFE324621460498E6
:10420000FFF7E8FE324629460398FFF7E3FE019BDD
:1042100001330193B8F1000FA1DC5B000133984436
:10422000B8F1000F9BDCA1E709B0BDE8F08F2DE9E4
:10423000F04F83B08246894690461E469DF8303046
:1042400001939DF834B0F71DFF1000251AE00134EA
:10425000E4B2B44214D2E30807FB053318F8032094
:1042600004F0070180230B411A42F0D004EB0A004E
:1042700005EB09015A4609B200B2FFF7ABFEE6E7CB
:104280000135EDB2019B9D4201D20024E1E703B06C
:10429000BDE8F08F632A00D970472DE9F04782B05E
:1042A00005460E461F46174BA3FB02384FEAD803BC
:1042B000984603EB8303A2EB4302D4B2002300939E
:1042C00001F1130300F11702FFF722FFDFF8389026
:1042D00001974FF0140ACDF800A00C2359F82820BC
:1042E00031462846FFF7A3FF0197CDF800A00C2325
:1042F00059F82420314605F10A00FFF798FF02B073
:10430000BDE8F087CDCCCCCC1400002010B582B035
:104310000020FFF7ADFE0F240194009464230D4AA2
:104320000A211420FFF783FF0194009464230A4AB2
:104330001E211420FFF77BFF082301931423009311
:104340002346064A64216E20FFF771FFFFF766FEE1
:1043500002B010BDE8F6000824F60008ACF800082A
:1043600000B583B00F23019300934B23034A6421CC
:104370000020FFF75CFF03B05DF804FB4CF400087D
:1043800003689A6912F0020F01D000229A62036852
:104390009A6912F0010F03D19A6942F001029A6101
:1043A000704710B4019CC1F3090141EA024119436D
:1043B000214321F0004102685368640D04F48064D5
:1043C00044F07F7444F4583444F47F7444F003049C
:1043D00023EA04030B4353605DF8044B704711F06C
:1043E000010F09D090F8413003F02803282B01D0A9
:1043F000F22302E0422300E0002311F0020F09D073
:1044000043F0440C90F8412002F02802282A09D0F9
:1044100043F0F40311F4004F06D1102906D143F004
:10442000900305E06346F5E743F0B803202907D081
:10443000402908D001680A6822EA03030B6070472C
:1044400043F02003F6E743F04003F3E72DE9F041A2
:10445000044603689E6916F010067CD00D4690460F
:104460001022DA61002637462368986910F0200F81
:1044700030D17FBBB5F1FF3FF6D0FEF7DDFDA0EBFD
:104480000800A84201D8002DEED121684B6803F442
:10449000804394F84220D2B2886910F4004F02D0D1
:1044A0000BB9202A0ED123689B6913F0200FDBD1B2
:1044B000FEF7C2FDA0EB08001928F4D946F020064B
:1044C0000127D1E74B6843F480434B60FEF7B4FD0E
:1044D0008046E8E70FB92022DA6146F0040601259C
:1044E0002268936913F4807F05D046F001064FF4EB
:1044F0008071D161012513F4806F06D046F0080663
:1045000022684FF48061D161012513F4007F24D02B
:1045100046F0020623684FF40072DA610125204656
:10452000FFF72EFF2268536823F0FF7323F48B33C9
:1045300023F4FF7323F001035360636C334363641C
:10454000202384F84130002384F8423084F840303E
:104550002846BDE8F0810025C2E7002DF8D0DEE74F
:1045600070B504460D46164623689B6913F0020F8A
:1045700022D1324629462046FFF768FFF0B9B5F14F
:10458000FF3FF1D0FEF758FD801BA84201D8002D57
:10459000EAD123689B6913F0020FE5D1636C43F005
:1045A00020036364202384F84130002384F84230E0
:1045B00084F84030012000E0002070BD0120FCE7BD
:1045C0002DE9F8430546884617461E46DDF820903B
:1045D0002B689C6938EA04040CBF01230023BB420A
:1045E00027D14A4631462846FFF730FF20BBB6F1B7
:1045F000FF3FEDD0FEF720FDA0EB0900B04201D84F
:10460000002EE5D12B689B6938EA03030CBF012318
:104610000023BB42DCD16B6C43F020036B6420238E
:1046200085F84130002385F8423085F8403001207C
:1046300000E00020BDE8F8830120FBE72DE9F04110
:1046400082B0044690461D46089E099F194B009370
:104650004FF08073EAB2FFF7A4FE3A463146204697
:10466000FFF77EFFF8B9012D0ED123685FFA88F2BB
:104670009A6200973346002280212046FFF7A0FF70
:10468000A8B902B0BDE8F08123684FEA18229A6207
:104690003A4631462046FFF763FF30B923685FFA98
:1046A00088F29A62E5E70120EBE70120E9E70120C3
:1046B000E7E700BF002000802DE9F04182B004460A
:1046C00090461D46089E099F184B00930023EAB2AE
:1046D000FFF767FE3A4631462046FFF741FFF8B93B
:1046E000012D0ED123685FFA88F29A620097334653
:1046F000002240212046FFF763FFA8B902B0BDE8C1
:10470000F08123684FEA18229A623A4631462046E1
:10471000FFF726FF30B923685FFA88F29A62E5E76F
:104720000120EBE70120E9E70120E7E70020008016
:1047300070B504460D46164604E023689B6913F0E5
:10474000200F12D023689B6913F0200F1BD1324633
:1047500029462046FFF77AFEB8B9FEF76DFC801BAC
:10476000A842EAD8002DEDD1E7E7636C43F02003BF
:104770006364202384F84130002384F8423084F8B5
:104780004030012000E0002070BD0120FCE700283F
:104790005FD010B5044690F84130002B48D0242358
:1047A00084F841302268136823F0010313606368C2
:1047B000226823F0706313612268936823F4004336
:1047C0009360E368012B38D0A368226843F4044364
:1047D0009360E368022B36D02268536823F40063A9
:1047E00053602268536843F0007343F400435360FE
:1047F0002268D36823F40043D360236962691343BA
:10480000A169226843EA0123D360E369216A22682F
:104810000B4313602268136843F001031360002008
:104820006064202384F84130206384F8420010BD86
:1048300080F84030FCF7D6FDB1E7A368226843F466
:1048400000439360C5E72268536843F400635360F4
:10485000C7E7012070472DE9F04F83B00E46BDF841
:1048600034A00E9D90F84110C9B2202940F0BB80C1
:104870000446904699460C9BCBB1BAF1000F16D076
:1048800090F84030012B00F0B2804FF0010B80F81F
:1048900040B0FEF7D1FB0746009019235A464FF46B
:1048A00000412046FFF78CFE30B101209CE04FF420
:1048B00000736364012097E0212384F84130402392
:1048C00084F84230002363640C9A6262A4F82AA040
:1048D0006363019700954B46424631462046FFF7F9
:1048E000ADFE70B9638D9BB2FF2B0FD9FF222285DD
:1048F000002300934FF0807331462046FFF751FDAF
:1049000021E0002384F8403058466DE0628D92B279
:104910002285002300934FF00073D2B23146204627
:10492000FFF73FFD0FE0628D92B2228500230093D6
:104930004FF00073D2B231462046FFF732FD638D4F
:104940009BB2002B33D03A4629462046FFF708FE9B
:1049500000284ED1626A236812789A62636A013332
:104960006362638D9BB2013B9BB26385238D013BE8
:104970009BB22385628D92B2002AE0D0002BDED15B
:1049800000972B46002280212046FFF719FE90BB9E
:10499000638D9BB2FF2BC6D9FF2222850023009393
:1049A0004FF0807331462046FFF7FBFCC7E73A46DD
:1049B00029462046FFF7BCFEF8B923682022DA61B9
:1049C00021684B6823F0FF7323F48B3323F4FF73C8
:1049D00023F001034B6084F84120002384F8423027
:1049E00084F8403000E0022003B0BDE8F08F0220E0
:1049F000FAE70120F8E70120F6E70120F4E70000DC
:104A00002DE9F04F83B00E46BDF834A00E9D90F80E
:104A10004110C9B2202940F0BC8004469046994616
:104A20000C9BCBB1BAF1000F16D090F84030012B9F
:104A300000F0B3804FF0010B80F840B0FEF7FCFAB5
:104A40000746009019235A464FF400412046FFF7CD
:104A5000B7FD30B101209DE04FF400736364012085
:104A600098E0222384F84130402384F84230002328
:104A700063640C9A6262A4F82AA0636301970095AC
:104A80004B46424631462046FFF716FE70B9638D0D
:104A90009BB2FF2B0FD9FF222285444B00934FF08E
:104AA000807331462046FFF77CFC21E0002384F828
:104AB000403058466EE0628D92B222853B4B0093A7
:104AC0004FF00073D2B231462046FFF76AFC0FE088
:104AD000628D92B22285002300934FF00073D2B210
:104AE00031462046FFF75DFC638D9BB2002B34D02E
:104AF00000972B46002204212046FFF761FD002885
:104B00004DD123685A6A636A1A70636A013363621B
:104B1000228D013A92B22285638D9BB2013B9BB2FA
:104B20006385638D9BB2002BDED0002ADCD1009719
:104B30002B4680212046FFF743FD90BB638D9BB23F
:104B4000FF2BC5D9FF222285002300934FF08073ED
:104B500031462046FFF725FCC6E73A46294620465F
:104B6000FFF7E6FDF8B923682022DA6121684B6877
:104B700023F0FF7323F48B3323F4FF7323F001033B
:104B80004B6084F84120002384F8423084F84030A0
:104B900000E0022003B0BDE8F08F0220FAE7012018
:104BA000F8E70120F6E70120F4E700BF00240080C9
:104BB00008B5036899691A68436B03B1984708BD43
:104BC0007047704710B5044603681A68002180F8E2
:104BD000421012F4804F0ED01A6822F480421A60FC
:104BE00094F84130DBB2292B0DD094F84130DBB280
:104BF0002A2B18D010BD12F4004FF1D01A6822F4FD
:104C000000421A60ECE7282384F841302123236313
:104C100001212046FFF7E3FB002384F840302046C3
:104C2000FFF7CEFFE6E7282384F8413022232363F1
:104C300002212046FFF7D3FB002384F840302046B2
:104C4000FFF7BFFFD6E77047F8B5044690F841304C
:104C500003F02803282B06D003680822DA6100231A
:104C600080F84030F8BD03689E69C6F300469A6933
:104C7000120C02F0FE059A68C2F30902DF6807F021
:104C8000FE07C168022922D185EAD21515F0060F68
:104C900010D1816C01318164816C0229E2D1002143
:104CA00081640820D86184F8401031462046FFF71F
:104CB000CAFFD7E74FF40041FFF791FB002384F8C8
:104CC00040303A4631462046FFF7BDFFCAE74FF471
:104CD0000041FFF784FB002384F840302A46314628
:104CE0002046FFF7B0FFBDE77047000010B504464F
:104CF000174BC36200230363202280F8412080F811
:104D00004230436311F0040F13D003685A6A436AB8
:104D10001A70436A01334362038D53B1013B03852B
:104D2000438D9BB2013B9BB24385436C43F004032C
:104D3000436448F203012046FFF751FB2368102229
:104D4000DA61002384F840302046FFF7CDFF10BD24
:104D50000000FFFF7047704708B590F84130DBB2A4
:104D6000602B06D00023036380F84030FFF7F2FF8A
:104D700008BD202380F841300023036380F84030D1
:104D8000FFF7E9FFF4E7000010B5044690F8413062
:104D9000002280F842204548E0626285626C0A4346
:104DA0006264283BDBB2022B19D803212046FFF7AF
:104DB00016FB282384F841303D4B6363236BA26BC1
:104DC0001AB1112B30D0212B2ED0E26B1AB1122B3D
:104DD0004BD0222B49D02046FFF7BEFF10BD48F232
:104DE00003012046FFF7FBFA2046FFF7C9FA94F8C3
:104DF0004130DBB2602B14D0202384F8413023688B
:104E00009A6912F0200F0CD09A6912F0100F05D099
:104E10001022DA61636C43F0040363642368202288
:104E2000DA6100236363C9E723681A6812F4804FCC
:104E300003D01A6822F480421A60A06BFDF7E9FFE4
:104E400001280ED0A36B1B4A9A63002384F84030DC
:104E5000A06BFDF743FF0028C0D0A06B836B984781
:104E6000BCE72046FFF778FFB8E723681A6812F41A
:104E7000004F03D01A6822F400421A60E06BFDF77D
:104E8000C8FF01280ED0E36B0A4A9A63002384F816
:104E90004030E06BFDF722FF00289FD0E06B836B72
:104EA00098479BE72046FFF757FF97E70000FFFF73
:104EB000A95000085B520008F8B504460D46026888
:104EC0001668C76A90F841302021D161213B092B37
:104ED0000CD8DFE803F0057A0B0B0B0B0B81057A7E
:104EE00048F20101FFF77BFA21232363226853680C
:104EF00043F4004353602268536823F0FF7323F4A4
:104F00008B3323F4FF7323F0010353602046FFF734
:104F100037FA16F4804F66D02268136823F4804372
:104F20001360A36B1BB11B685B689BB2638515F0B4
:104F3000040F11D025F0040523685A6A636A1A70B9
:104F4000636A01336362238D33B1013B2385638D33
:104F50009BB2013B9BB26385638D9BB21BB1636CBB
:104F600043F00403636415F0100F13D016F0100F14
:104F700010D0638D9BB2002B5AD194F84130DBB234
:104F8000282B40D094F84130DBB2292B43D0236842
:104F90001022DA61002384F842306363636C002BD3
:104FA00056D1E36A13F5803F60D194F84130DBB20B
:104FB000222B6BD0202384F841300023236384F814
:104FC00040302046FFF7FCFD5FE048F20201FFF7AA
:104FD00006FA2223236389E748F20301FFF7FFF96A
:104FE0000023236382E716F4004FA0D022681368E1
:104FF00023F400431360E36B002B98D01B685B68BD
:105000009BB2638593E7B7F1007FBBD12946204669
:10501000FFF76CFEBEE717F5803FB8D0236810227B
:10502000DA612046FFF7ACF92046FFF7CBFDB1E788
:1050300023681022DA61636C43F00403636417B1E0
:10504000B7F1807FA6D1616C2046FFF79DFEA1E7F6
:10505000616C2046FFF798FE94F84130DBB2282BB4
:1050600013D129462046FFF741FE0EE02046FFF708
:10507000A9FD0C4BE362202384F841300023236315
:1050800084F840302046FFF72FFEF8BD202384F837
:1050900041300023236384F840302046FFF791FD20
:1050A000F3E700BF0000FFFF10B50446C06A94F8A4
:1050B0004030012B00F09A80012384F8403011F039
:1050C000200F02D012F0200F16D111F0100F3ED099
:1050D00012F0100F3BD0638D9BB243BB94F841306C
:1050E000DBB2282B0FD094F84130DBB2292B11D042
:1050F00023681022DA6102E02046FFF7DDFE00207F
:1051000084F8400010BDB0F1007FECD12046FFF7DD
:10511000EDFDF4E710F5803FEAD023681022DA6154
:105120002046FFF72DF92046FFF74CFDE7E72368FF
:105130001022DA61636C43F00403636410B1B0F1D0
:10514000807FDCD1616C2046FFF71EFED7E711F0AF
:10515000040F1FD012F0040F1CD0638D9BB273B1EB
:1051600023685A6A636A1A70636A01336362238D23
:10517000013B2385638D9BB2013B9BB26385638DAD
:105180009BB2002BBBD110F5803FB8D02046FFF773
:1051900019FDB4E711F0080F02D012F0080F18D172
:1051A00011F0020FABD012F0020FA8D0638D9BB2AA
:1051B0009BB1626A236812789A62636A0133636200
:1051C000638D9BB2013B9BB26385238D013B23859D
:1051D00095E72046FFF738FD91E7B0F1807F01D0D9
:1051E00000288CD12046FFF7EDFC88E7022089E7F4
:1051F00010B502689369116813F4807F09D011F02B
:10520000800F06D0446C44F0010444644FF4807471
:10521000D46113F4806F0AD011F0800F07D0426C74
:1052200042F00802426402684FF48064D46113F4CF
:10523000007F0AD011F0800F07D0436C43F00203C7
:10524000436403684FF40072DA61416C11F00B0F94
:1052500000D110BDFFF798FDFBE708B5806A836BAE
:105260000BB100229A63C36B0BB100229A63FFF764
:1052700073FD08BD034690F84120D2B2202A23D105
:1052800090F84020012A21D0012280F840202422D9
:1052900080F841200068026822F00102026018686C
:1052A000026822F4805202601868026811430160AB
:1052B00019680A6842F001020A60202283F841203E
:1052C000002083F84000704702207047022070479A
:1052D000034690F84120D2B2202A21D190F84020F4
:1052E000012A1FD0012280F84020242280F841208A
:1052F0000068026822F0010202601868026822F465
:10530000706242EA0122026019680A6842F00102F2
:105310000A60202283F84120002083F84000704773
:105320000220704702207047024A536803435360CB
:10533000704700BF0000014090F83D30DBB2012B08
:1053400022D1022380F83D300268D36843F0010384
:10535000D36003680F4A934208D0B3F1804F05D061
:105360001A6842F001021A600020704799680A4AE0
:105370000A40062A0AD0B2F5803F09D01A6842F0E6
:1053800001021A600020704701207047002070471A
:1053900000207047002C0140070001007047704753
:1053A0007047704770B504460368DE681D6915F0E4
:1053B000020F10D016F0020F0DD06FF002021A612A
:1053C0000123037703689B6913F0030F64D0FFF791
:1053D000E6FF0023237715F0040F12D016F0040F18
:1053E0000FD023686FF004021A6102232377236829
:1053F0009B6913F4407F55D02046FFF7D0FF002370
:10540000237715F0080F12D016F0080F0FD023687D
:105410006FF008021A61042323772368DB6913F015
:10542000030F46D02046FFF7BAFF0023237715F07D
:10543000100F12D016F0100F0FD023686FF010026B
:105440001A61082323772368DB6913F4407F37D080
:105450002046FFF7A4FF0023237715F0010F02D0A9
:1054600016F0010F33D115F4025F02D016F0800F51
:1054700035D115F4807F02D016F0800F37D115F0AA
:10548000400F02D016F0400F39D115F0200F02D096
:1054900016F0200F3BD170BDFFF780FF2046FFF7CD
:1054A0007FFF96E72046FFF779FF2046FFF778FF5A
:1054B000A5E72046FFF772FF2046FFF771FFB4E72C
:1054C0002046FFF76BFF2046FFF76AFFC3E723681C
:1054D0006FF001021A612046FBF7F8FBC3E723686F
:1054E0006FF402521A61204600F087F8C1E7236882
:1054F0006FF480721A61204600F080F8BFE72368DD
:105500006FF040021A612046FFF74BFFBDE72368AA
:105510006FF020021A61204600F06EF8BBE7000031
:1055200003681C4A904202D0B0F1804F03D123F0AF
:1055300070034A681343174A90420AD0B0F1804F73
:1055400007D002F5C052904203D002F5806290422B
:1055500003D123F44073CA68134323F080034A69DC
:1055600013438A68C2620A6882620A4A904207D07C
:1055700002F5C052904203D002F58062904201D100
:105580000A690263026842F0040202600122426179
:1055900003607047002C014060B310B5044690F8DA
:1055A0003D3013B3022384F83D30214651F8040BFB
:1055B000FFF7B6FF012384F8483084F83E3084F8C2
:1055C0003F3084F8403084F8413084F8423084F829
:1055D000433084F8443084F8453084F8463084F809
:1055E000473084F83D30002010BD80F83C30FCF797
:1055F00093F8D7E7012070477047704770477047AE
:1056000070470000002309E000EB83020549516068
:105610009A1D00EB8202044951600133052BF3D936
:10562000704700BFFF5500080156000800230360C3
:105630004FF03F1343603F2383607047C0B138B5DC
:10564000044690F8383083B10A4D2846FFF7EEFF44
:105650002B6843F001132B602046FFF7D3FF002097
:105660006063012384F8383038BDFBF711FFEBE7A6
:1056700001207047000C005838B5044603680A4AF8
:10568000DA60FDF7D9FC05462368DB6813F0200FCC
:1056900007D1FDF7D1FC401BB0F57A7FF4D9032088
:1056A00000E0002038BD00BF5FFF010070B5036857
:1056B000DA6812F0400F02D00025284670BD04467B
:1056C000DA6842F08002DA60FDF7B6FC0646002593
:1056D0002368DB6813F0400FEFD1002DEDD1FDF70B
:1056E000ABFC831BB3F57A7FF2D9042384F8213015
:1056F0000125EDE70268D36823F08003D3600368D7
:105700009B6813F0200F01D00020704710B50446AD
:10571000FFF7B2FF18B1042384F82130012010BD37
:10572000002850D038B5044690F8213063B10223E8
:1057300084F821302368DA6812F0100F09D00020B5
:10574000012384F8213038BD80F82030FBF7AAFF10
:10575000EDE7CA225A62236853225A622046FFF7B5
:10576000A5FF28B12368FF225A620028EBD1E7E7A2
:105770002268936823F4E00323F0400393602168D8
:105780008A68636820690343A069034313438B60FD
:105790002368E2681A6122681369A16843EA014339
:1057A00013612046FFF7A6FF0028DBD12268D36CE7
:1057B00023F00303D3642168CB6CE26965692A4353
:1057C0001343CB64CEE701207047000010B483B0D0
:1057D0008446464B1868464BA3FB0030C00A4FF482
:1057E0007A7303FB00F001909CF82030012B7AD0F3
:1057F00001238CF8203002238CF82130DCF80030B3
:10580000CA245C62DCF8003053245C62DCF800409F
:10581000A36813F4806F09D0019B013B0193019BA6
:10582000002B49D0E36813F0040FF5D1A36823F4EB
:105830008063A360DCF80040E368DBB263F490634C
:10584000E3600190019B013B0193019B002B3CD045
:10585000DCF80030D86810F0040FF3D0986820F01E
:1058600007009860DCF80000836813438360DCF86D
:10587000003059611F4BD3F8802042F40022C3F856
:1058800080201A6842F400221A60DCF80020936835
:1058900043F480439360DCF80020936843F4806312
:1058A0009360DCF80030FF225A6201238CF821302B
:1058B00000208CF8200012E0FF23636203208CF8A4
:1058C000210000238CF8203009E0DCF80030FF22B2
:1058D0005A6203208CF8210000238CF8203003B09A
:1058E0005DF8044B70470220F9E700BF100000206C
:1058F000D34D621000080058054BCA225A62532249
:105900005A629A6822F007029A60FF225A62704730
:10591000002800407047000008B5002001F0B6FAEA
:1059200068B181794FF0B042054BC2F89C30D2F893
:105930009C3023F47C5343EA0123C2F89C3008BD19
:10594000FECAFECA08B54FF0B042936843F4004364
:10595000936002F023F9054AD2F8803023F0070360
:1059600043F00403C2F8803008BD00BF00040058B3
:1059700000B589B001F0EAF80E4A0021082002F0D3
:105980009FFA0D4B00930D4B019369460C4801F0B3
:10599000F5FF0C4B02930C4B03930C4B049340F21A
:1059A0003C53059302A801F0A5F901F0CBF809B02A
:1059B0005DF804FBA1790008FC03032015590008D9
:1059C000315A0008E4010320F002032008050320F7
:1059D00000B585B0002300930193029303934368BD
:1059E0005B7B23B1012B1ED005B05DF804FB00F0FA
:1059F0008BF80F238DF800307F238DF802300B4A8F
:105A000013681B0CADF80C301368C3F30B03ADF82F
:105A10000E30684601F0E4F900F044FD0021012059
:105A200002F0C6F8E0E700230370DDE7002004E0A1
:105A30004368B3F80B30B3F5124F00D0704710B580
:105A400084B00446684601F0D9F92046FFF7C0FF4C
:105A500004B010BD08B5034B4FF400421A61FFF7C4
:105A60005BFF08BD00400058034AD2F8903043F075
:105A70005003C2F8903070470008005808B5FFF78F
:105A8000F3FFFFF739FF08BD08B5FFF7F7FFFFF792
:105A900059FF0349002000F04BFAFFF769FF08BDEA
:105AA0000002002038B50446FDF7C6FA0546B4F1F9
:105AB000FF3F09D0FDF7CCFA044405E0054A13691D
:105AC00023F00403136130BFFDF7B6FA401BA04278
:105AD000F4D338BD00ED00E008B54FF0FF3002F020
