:020000040800F2
:100000000000032035BB0008590900085B090008FF
:100010005D0900085F090008610900080000000090
:10002000000000000000000000000000630900085C
:100030006509000800000000670900086909000858
:100040008DBB00088DBB00088DBB0008710900083E
:100050008DBB0008790900088DBB00088DBB000826
:100060007B0900088DBB00088DBB000885090008CE
:100070008DBB00088DBB00088DBB00088DBB000840
:100080008DBB00088DBB00088DBB00088DBB000830
:10009000950900088DBB00088DBB00088DBB0008CA
:1000A0008DBB0008A50900088DBB00088DBB0008AA
:1000B0008DBB00088DBB0008B5090008C509000804
:1000C0008DBB00088DBB00088DBB00088DBB0008F0
:1000D0008DBB0008D50900088DBB00088DBB00084A
:1000E0008DBB00088DBB00088DBB00088DBB0008D0
:1000F000E5090008ED090008F50900088DBB0008B6
:100100008DBB00088DBB0008FD0900088DBB0008F1
:100110008DBB00088DBB00088DBB00088DBB00089F
:100120008DBB00088DBB00088DBB00088DBB00088F
:0C0130008DBB00088DBB00088DBB0008D3
:10013C0010B5054C237833B9044B13B10448AFF315
:10014C0000800123237010BD680100200000000016
:10015C0004BC000808B5034B1BB103490348AFF3BB
:10016C00008008BD000000006C01002004BC0008E9
:10017C0053B94AB9002908BF00281CBF4FF0FF3102
:10018C004FF0FF3000F088B9ADF1080C6DE904CEEA
:10019C0000F006F8DDF804E0DDE9022304B0704756
:1001AC002DE9F047089D8E4604468846002B4AD11F
:1001BC008A42174662D9B2FA82F64EB1C6F12003D2
:1001CC0001FA06F820FA03F3B74043EA0808B440F2
:1001DC004FEA174E1FFA87FCB8FBFEF1230C0EFBFF
:1001EC00118843EA084301FB0CF29A4209D9FB1827
:1001FC0001F1FF3080F0EA809A4240F2E780023948
:10020C003B449A1AA3B2B2FBFEF00EFB102243EA57
:10021C00024300FB0CFC9C4509D9FB1800F1FF3292
:10022C0080F0D6809C4540F2D3803B44023840EAB3
:10023C000140A3EB0C0300211DB1F3400022C5E9E2
:10024C000032BDE8F0878B4205D90DB1C5E900013C
:10025C0000210846F5E7B3FA83F1002946D173452E
:10026C0002D3824200F20581841A6EEB0302012054
:10027C009046002DE5D0C5E90048E2E7002A00F0E1
:10028C009080B2FA82F6002E40F0A4808A1A030CF9
:10029C004FEA174E80B2BCB20121B2FBFEFC0EFB42
:1002AC001C2243EA024304FB0CF29A4207D9FB18C6
:1002BC000CF1FF3802D29A4200F2E080C4469B1A3D
:1002CC00B3FBFEF20EFB123340EA034302FB04F4D1
:1002DC009C4207D9FB1802F1FF3002D29C4200F27B
:1002EC00CA8002461B1B42EA0C40A5E7C1F120065E
:1002FC008B4022FA06F71F430EFA01F420FA06F39C
:10030C002EFA06FE4FEA1749234300FA01F81FFAAA
:10031C0087FCBEFBF9F01C0C09FB10EE44EA0E4402
:10032C0000FB0CFEA64502FA01F209D93C1900F1BA
:10033C00FF3A80F09C80A64540F2998002383C44FC
:10034C00A4EB0E041FFA83FEB4FBF9F309FB134470
:10035C004EEA044403FB0CFCA44508D93C1903F1F8
:10036C00FF3E80F08280A4457FD9023B3C4443EAA7
:10037C000040A4EB0C04A0FB02EC64457346E14680
:10038C0062D35FD05DB1B8EB030264EB090404FAED
:10039C0006F622FA01F31E43CC40C5E900640021A5
:1003AC004FE7B1FBF2FC010C41EA0E4180B240EA8E
:1003BC0001423B4638463C46B846BE462026B1FB79
:1003CC00F7F1A2EB080241EA0C4166E7014618E797
:1003DC0010462CE7C6F120022EFA02F3B740B140CA
:1003EC0020FA02F24FEA174E0A43B3FBFEF8BCB2F6
:1003FC000EFB1833110C41EA034108FB04F9B04021
:10040C0089454FEA104380B23ED9791808F1FF3C78
:10041C0001D289451FD8A1EB0901B1FBFEF909FBFB
:10042C0004F80EFB191192B242EA0142424529D25C
:10043C00BA1809F1FF31C4D24245C2D2A9F1020166
:10044C003A44BEE7F0459DD2BEEB02036CEB070CC1
:10045C000138E14696E7A7EB09094944A8F1020CDB
:10046C00B1FBFEF909FB04F8DBE773467FE7504666
:10047C0066E70846FDE63B44023A33E7ACF1020C72
:10048C003B441CE749469CE7A1EB0901C446B1FB80
:10049C00FEF909FB04F8C4E7704700BF30B589B01A
:1004AC000024039404940594069407944FF0B043ED
:1004BC00DA6C42F00402DA64DA6C02F004020292A2
:1004CC00029ADA6C42F00202DA64DA6C02F002028E
:1004DC000192019ADA6C42F00102DA64DB6C03F0EF
:1004EC0001030093009B124D22461321284601F074
:1004FC0049FD042303934FF488130493059403A933
:10050C00284601F065FC13230393012304930594FF
:10051C00069403A9284601F05BFC224621460820DC
:10052C0001F0CAFF082001F0D7FF09B030BD00BFB1
:10053C000004004800B583B04FF0B0439A6C42F011
:10054C0004029A649A6C02F004020192019A9A6C69
:10055C0042F001029A649B6C03F001030093009B30
:10056C00002211460B2001F0A7FF0B2001F0B4FF75
:10057C0003B05DF804FB0000042800D07047064B64
:10058C001B78022B03D00133034A1370F6E7024B9E
:10059C0000221A70704700BFF5030020044B834201
:1005AC0000D07047034A137801331370F9E700BF8A
:1005BC0084010020F403002072B6FEE708B504485D
:1005CC00044B036004F0F6F900B908BDFFF7F4FF23
:1005DC0064030020000C005808B51348134B03604B
:1005EC00134B4360002383600122C26003614361AB
:1005FC008361C361036203F086FA70B900210A4873
:10060C0003F0F4FF58B90021074804F01DF840B975
:10061C004FF4801004F044F808BDFFF7CDFFFFF74E
:10062C00CBFFFFF7C9FF00BFA00300200054004020
:10063C001C0B910008B50B480B4B03606423436003
:10064C00002383604FF4C852C2600361436183612D
:10065C0004F05EF918B9034804F02AF808BDFFF756
:10066C00ABFF00BF840100200044014008B50E48D8
:10067C000E4B0360002343600F22826047F6FF722B
:10068C00C26003618361C361436104F005FA30B950
:10069C0000221146044804F055FA10B908BDFFF7C2
:1006AC008BFFFFF789FF00BFD0010020002800401E
:1006BC0008B51548154B03604FF4164343600023EF
:1006CC008360C360036104224261836103624362FD
:1006DC00836207F02BFB70B900210B4807F032FC4A
:1006EC0058B90021084807F052FC40B9064807F0F9
:1006FC000AFC30B908BDFFF75FFFFFF75DFFFFF79E
:10070C005BFFFFF759FF00BF9802002000800040FC
:10071C0008B50A480A4B0360FF2343600423836037
:10072C000023C360192202614FF48072426183611D
:10073C0007F0E0FF00B908BDFFF73EFFF401002011
:10074C00001000A000B59BB04822002108A80BF0B7
:10075C0018FA0023019302930393049305930693D1
:10076C00079301F02BFE4FF0B042D2F8903023F0FB
:10077C00180343F01003C2F8903002F5806213683E
:10078C0023F4C06343F400731360136803F4C06371
:10079C000093009B4F2308934FF48033099301235C
:1007AC000A934FF480720B92129340230C930523FF
:1007BC000D930223139303231493102315930823EF
:1007CC0016934FF4003317934FF0005319934FF0D7
:1007DC000073189308A800F0BBFB88B96F23019332
:1007EC000321029100230393049305938022069224
:1007FC00079301A800F038FF20B91BB05DF804FB8B
:10080C00FFF7DAFEFFF7D8FE00B595B050220021B5
:10081C0068460BF0B6F94FF4405300934FF4804305
:10082C00119310231393684601F059F910B915B0C0
:10083C005DF804FBFFF7C0FE00B583B001F0ACFE21
:10084C0004F0C4FAFFF77EFFFFF7DEFFFFF7B6FEFA
:10085C00FFF724FEFFF76EFEFFF7BEFEFFF7EAFE82
:10086C00FFF704FFFFF724FFFFF752FF0AF03AF8F7
:10087C0001F0B8FF02F010FC042301930023009355
:10088C00032301220521022002F010F902F03AFDA7
:10089C0002F0C8FD02F0E8FE02F0C0FA04F0B0FA73
:1008AC0010E0274C0121204601F071FB00221021A1
:1008BC00204601F067FB00220221204601F062FB7A
:1008CC0004F0C6FA1F4B1B78012B04D0022B20D04E
:1008DC00002BF5D1E5E71C4B1B78002BF0D002F078
:1008EC0021FC02F015FA02F055FA154C00221021E9
:1008FC00204601F047FB00220121204601F042FB7B
:10090C0001220221204601F03DFB0F4B00221A7000
:10091C00D6E705F04BF980B9094C0122102120468D
:10092C0001F030FB00220121204601F02BFB0022BC
:10093C000221204601F026FBC2E702F0CFFAEBE7DA
:10094C0000040048F5030020F4030020FEE7FEE756
:10095C00FEE7FEE7FEE770477047704708B501F009
:10096C0031FE08BD08B504F0FBFD08BD704708B5A5
:10097C00042001F015FB08BD08B5024801F0B9FCD4
:10098C0008BD00BF3802002008B5024808F0CBFCB7
:10099C0008BD00BF902B002008B5024803F0BEFE36
:1009AC0008BD00BF8401002008B5024803F0BCFA62
:1009BC0008BD00BFA003002008B5024803F0D4FD19
:1009CC0008BD00BFA003002008B5024806F048FD92
:1009DC0008BD00BF9802002008B505F029FA08BD33
:1009EC0008B505F0B9F908BD08B501F0E9FA08BD7C
:1009FC0008B5024807F05CFD08BD00BFF4010020FB
:100A0C0000B583B04FF0B0431A6D42F400221A6562
:100A1C001B6D03F400230193019B01F0DFFC00220A
:100A2C001146052001F048FD052001F055FD00227E
:100A3C0011462E2001F040FD2E2001F04DFD03B09B
:100A4C005DF804FB30B59DB0044600211791189158
:100A5C0019911A911B91502203A80BF092F822685D
:100A6C00224B9A4201D01DB030BD042303934FF4A6
:100A7C0040330B9303A801F032F8002833D14FF028
:100A8C00B045EB6C43F00103EB64EB6C03F001033A
:100A9C000293029B4FF4C063179312231893002404
:100AAC0019941A9404231B9317A94FF0904001F04A
:100ABC008FF9AB6D43F40013AB65AB6D03F400130E
:100ACC000193019B224621461E2001F0F5FC1E20BD
:100ADC0001F002FD224621461F2001F0EDFC1F20F3
:100AEC0001F0FAFCBFE7FFF767FDC8E700540040D0
:100AFC000268124B9A4200D0704700B583B04FF099
:100B0C00B0431A6D42F480121A651B6D03F4801306
:100B1C000193019B002211462C2001F0CDFC2C20CE
:100B2C0001F0DAFC002211462D2001F0C5FC2D202D
:100B3C0001F0D2FC03B05DF804FB00BF000C0058C0
:100B4C0070B59CB0044600211791189119911A9117
:100B5C001B91502203A80BF014F82268284B9A42E0
:100B6C0001D01CB070BD0223039303A800F0B7FFA3
:100B7C0000283ED14FF0B043DA6D42F00102DA6545
:100B8C00DA6D02F001020292029ADA6C42F0020271
:100B9C00DA64DB6C03F002030193019B20261796A9
:100BAC00122318930025199501231A9308231B93DC
:100BBC0017A9144801F00CF91348144B03601023C7
:100BCC0043608560C5608023036145618561C661B2
:100BDC00056201F065FA78B90B4BC4F880309C6261
:100BEC0000221146252001F067FC252001F074FC41
:100BFC00B7E7FFF7E1FCBDE7FFF7DEFCECE700BF72
:100C0C000080004000040048380200200800024028
:100C1C0030B589B00023039304930593069307938F
:100C2C000268214B9A4201D009B030BD4FF0B0435D
:100C3C001A6D42F480721A651A6D02F48072029277
:100C4C00029ADA6C42F00202DA64DA6C02F0020206
:100C5C000192019ADA6C42F00102DA64DB6C03F067
:100C6C0001030093009B4FF44073039302240494FC
:100C7C000A25079503A90D4801F0AAF80C23039344
:100C8C00049400240594069407950DEB03014FF092
:100C9C00904001F09DF822462146322001F00CFCD8
:100CAC00322001F019FCBFE7001000A0000400483E
:100CBC0010B596B004465022002102A80AF061FF3C
:100CCC002268174B9A4201D016B010BD01F076FB8A
:100CDC004FF4006302934FF40073129302A800F0D8
:100CEC00FEFEC8B94FF0B043D3F8902042F4004256
:100CFC00C3F890209A6D42F480629A659B6D03F460
:100D0C0080630193019B00221146032001F0D4FB68
:100D1C00032001F0E1FBD7E7FFF74EFCE2E700BF51
:100D2C000028004002680E4B9A4200D0704700B574
:100D3C0083B04FF0B0431A6E42F400321A661B6E49
:100D4C0003F400330193019B00220F21192001F0C1
:100D5C00B3FB192001F0C0FB03B05DF804FB00BF2E
:100D6C000044014030B58DB005468E462B4C94E8BE
:100D7C000F000DF1300C0CE90F0005AB04F1100263
:100D8C0007CA83E807000DF1040C1C3494E80F002B
:100D9C008CE80F00BEF5007F07D0002314E00CAAEE
:100DAC0002EB830353F82C5C1EE00023032B08D8C2
:100DBC000CAA02EB830252F8102CAA42EFD2013398
:100DCC00F4E7002510E00133022B0CD80CAA02EB3F
:100DDC00830252F81C2CAA42F5D30CAA02EB830313
:100DEC0053F82C5C00E000250D4A136823F0070330
:100DFC002B43136001F0F2FB0446094B1B6803F014
:100E0C000703AB4206D001F0E9FB001B0228F4D922
:100E1C00032000E000200DB030BD00BF1CBC00085A
:100E2C000040005810B5B02816D90E4BDC6A4FF0B4
:100E3C00B043D3F8083103F00F030B4A52F82330B8
:100E4C00B4FBF3F401F0C2FA0146084BA3FB0434E3
:100E5C00A00CFFF787FF10BDC0F30310014B53F834
:100E6C002040E4E764BC0008C4BC000883DE1B43DC
:100E7C004FF0B0439B6813F00C030DD14FF0B0430F
:100E8C001B6803F0F003B02B04D81B09254A52F859
:100E9C0023007047B023F8E7042B3ED0082B10D06A
:100EAC004FF0B043DB6803F00303022B31D0032B6C
:100EBC000FD14FF0B0431B6813F4801F2BD11A488D
:100ECC0012E04FF0B0431B6813F4801F27D0174873
:100EDC0070474FF0B0431B6803F0F003B02B16D8EB
:100EEC001B09104A52F823004FF0B042D368C3F3E9
:100EFC00062303FB00F0D368C3F302130133B0FBEA
:100F0C00F3F0D3685B0F0133B0FBF3F07047B02301
:100F1C00E6E70648E8E70548E6E704487047024874
:100F2C00704700BF64BC00080048E8010024F400CE
:100F3C0008B5FFF79DFF4FF0B0439B68C3F3031355
:100F4C00024A52F82330B0FBF3F008BDC4BC0008D1
:100F5C00002800F0728338B50446036813F0200FA4
:100F6C002DD04FF0B0429368D26802F0030213F018
:100F7C000C0358D00C2B54D0E369002B00F0A0804C
:100F8C004FF0B042136843F00103136001F026FBED
:100F9C0005464FF0B0431B6813F0020F00F0888039
:100FAC00636A4FF0B042116821F0F0010B431360FB
:100FBC00216A536823F47F4343EA01235360236877
:100FCC0013F0010F00F09A804FF0B042936803F0D9
:100FDC000C03D26802F00302082B00F08B800C2B60
:100FEC0000F085806368B3F5803F00F0B0804FF06F
:100FFC00B042136823F4803313606368002B00F055
:10100C00AD8001F0EBFA05464FF0B0431B6813F4CA
:10101C00003F73D101F0E2FA401B6428F4D903209D
:10102C0016E3012AA8D1E369002B00F00883606A5B
:10103C004FF0B0431B6803F0F003B02B21D898425B
:10104C0021D9FFF7EFFE002840F0FB82636A4FF0D6
:10105C00B042116821F0F0010B431360216A536810
:10106C0023F47F4343EA01235360FFF761FFBF4B37
:10107C001860BF4B186801F067FA00289FD0012058
:10108C00E6E2B023DBE74FF0B042136823F0F00345
:10109C0018431060216A536823F47F4343EA012309
:1010AC005360606AFFF7BEFE0028DED00120CFE25D
:1010BC0001F094FA401B02287FF66BAF0320C7E2C5
:1010CC004FF0B042136823F00103136001F086FA6D
:1010DC0005464FF0B0431B6813F0020F3FF46FAF9F
:1010EC0001F07CFA401B0228F3D90320B0E2032A5A
:1010FC007FF478AF6368002B00F0A582236813F0AF
:10110C00020F54D04FF0B042936803F00C03D26836
:10111C0002F00302042B33D00C2B2FD0E368002BEE
:10112C0071D04FF0B042136843F48073136001F038
:10113C0055FA05464FF0B0431B6813F4806F2DD160
:10114C0001F04CFA401B0228F4D9032080E24FF046
:10115C00B042136843F4803313604EE701F03EFA5B
:10116C0005464FF0B0431B6813F4003FC6D001F0A6
:10117C0035FA401B6428F4D9032069E2022ACDD148
:10118C00E368002B00F0618221694FF0B042536894
:10119C0023F0FE4343EA0163536008E021694FF0FA
:1011AC00B042536823F0FE4343EA01635360236863
:1011BC0013F0180F00F0DE806269002A00F0A380A3
:1011CC0013F0100F70D04FF0B043D3F8943013F0ED
:1011DC00020F2ED14FF0B042D2F8943043F00103FD
:1011EC00C2F8943001F0FAF905464FF0B043D3F849
:1011FC00943013F0020F1CD101F0F0F9401B0228BF
:10120C00F3D9032024E24FF0B042136823F4807327
:10121C00136001F0E3F905464FF0B0431B6813F47B
:10122C00806FC4D001F0DAF9401B0228F4D90320F6
:10123C000EE24FF0B042D2F8943043F00403C2F8FF
:10124C00943001F0CBF905464FF0B043D3F894300D
:10125C0013F0080F06D101F0C1F9401B0328F3D994
:10126C000320F5E1A1694FF0B042D2F8943023F499
:10127C00706343EA0123C2F89430D2F8943023F01F
:10128C000103C2F8943001F0A9F905464FF0B043C0
:10129C00D3F8943013F0020F6CD001F09FF9401B7F
:1012AC000228F3D90320D3E14FF0B042D2F89430A6
:1012BC0043F00103C2F8943001F090F905464FF069
:1012CC00B043D3F8943013F0020F06D101F086F935
:1012DC00401B0228F3D90320BAE14FF0B042D2F8F8
:1012EC00943023F00403C2F894304FF0B043D3F899
:1012FC00943013F0080F3DD001F070F9401B032817
:10130C00F3D90320A4E14FF0B042D2F8943023F08B
:10131C000403C2F8943001F061F905464FF0B04374
:10132C00D3F8943013F0080F18D14FF0B042D2F824
:10133C00943023F00103C2F8943001F04FF90546C4
:10134C004FF0B043D3F8943013F0020F12D001F0E9
:10135C0045F9401B0228F3D9032079E101F03EF94D
:10136C00401B0328DAD9032072E100BF10000020D3
:10137C000C000020236813F0040F68D0B74B1B68D7
:10138C0013F4807F27D0A368012B35D0052B3CD0DC
:10139C004FF0B043D3F8902022F00102C3F8902014
:1013AC00D3F8902022F00402C3F89020A368DBB39A
:1013BC0001F014F905464FF0B043D3F8903013F018
:1013CC00020F44D101F00AF9401B41F288339842D4
:1013DC00F1D903203CE100F0F1FF01F0FFF80546E4
:1013EC009E4B1B6813F4807FCDD101F0F7F8401BA6
:1013FC000228F5D903202BE14FF0B042D2F89030FF
:10140C0043F00103C2F89030D0E74FF0B043D3F86B
:10141C00902042F00402C3F89020D3F8902042F0C0
:10142C000102C3F89020C1E701F0D8F805464FF04F
:10143C00B043D3F8903013F0020F08D001F0CEF87F
:10144C00401B41F288339842F1D9032000E1236814
:10145C0013F0400F33D0A36AC3B14FF0B042D2F8AF
:10146C00983043F00103C2F8983001F0B7F8054604
:10147C004FF0B043D3F8983013F0020F1FD101F0A6
:10148C00ADF8401B0228F3D90320E1E04FF0B04245
:10149C00D2F8983023F00103C2F8983001F09EF88E
:1014AC0005464FF0B043D3F8983013F0020F06D036
:1014BC0001F094F8401B0228F3D90320C8E0E36A3A
:1014CC00002B00F0C4804FF0B042916801F00C0189
:1014DC00D268022B19D00C2900F0BD804FF0B0421D
:1014EC00136823F08073136001F078F804464FF012
:1014FC00B0431B6813F0007F00F0978001F06EF88A
:10150C00001B0228F3D90320A2E002F00303206B96
:10151C0083420AD00C2900F09C804FF0B0431B682A
:10152C0013F0806F22D0012092E002F07003606B08
:10153C008342EFD1C2F30623A06B8342EAD102F4BB
:10154C007813E06B8342E5D102F06063206C834238
:10155C00E0D102F06042636C9A42DBD14FF0B043B1
:10156C001B6813F0007F44D0002071E04FF0B042B4
:10157C00136823F08073136001F030F805464FF0C8
:10158C00B0431B6813F0007F06D001F027F8401B16
:10159C000228F4D903205BE04FF0B042D368304905
:1015AC001940236B606B0343A06B43EA0023E06B91
:1015BC000343206C0343606C03431943D1601368ED
:1015CC0043F080731360D36843F08053D36001F011
:1015DC0005F804464FF0B0431B6813F0007F06D1AA
:1015EC0000F0FCFF001B0228F4D9032030E000209F
:1015FC002EE04FF0B0431A6842F080721A60DA683D
:10160C0042F08052DA6000F0E9FF04464FF0B0433C
:10161C001B6813F0007F06D100F0E0FF031B022BC8
:10162C00F4D9032014E0002012E04FF0B042D1684E
:10163C000C4B0B40D36000200AE0012070470120C6
:10164C0006E0012004E0012002E0012000E000207F
:10165C0038BD0120FCE70120FAE700BF0004005868
:10166C008C80C111FCFFFEEE002800F0278170B5C4
:10167C000C460546934B1B6803F007038B422DD396
:10168C002B6813F0020F3FD12B6813F0200F53D1AE
:10169C002B6813F0400F6AD12B6813F0040F40F045
:1016AC0083802B6813F0080F40F097802B6813F0A1
:1016BC00010F00F0DE806B68022B00F0A880032B7A
:1016CC0000F0AD80002B40F0B2804FF0B0421268B9
:1016DC0012F0020F40F0B1800120EEE0794A13685D
:1016EC0023F007030B43136000F078FF0646754B9D
:1016FC001B6803F00703A342C2D000F06FFF801BEE
:10170C000228F4D90320D8E0AB684FF0B0418A68C6
:10171C0022F0F00213438B6000F060FF06464FF09E
:10172C00B0439B6813F4803FAED100F057FF801B91
:10173C000228F4D90320C0E06B694FF0B041D1F816
:10174C00082122F0F0021343C1F8083100F046FFE3
:10175C0006464FF0B043D3F8083113F4003F97D14D
:10176C0000F03CFF801B0228F3D90320A5E0A969F7
:10177C004FF0B042D2F8083123F00F0343EA1113B3
:10178C00C2F8083100F02AFF06464FF0B043D3F8F8
:10179C00083113F4803F7FF47FAF00F01FFF801BF4
:1017AC000228F2D9032088E0EB684FF0B0418A6838
:1017BC0022F4E06213438B6000F010FF06464FF0FA
:1017CC00B0439B6813F4003F7FF46BAF00F006FF4F
:1017DC00801B0228F3D903206FE029694FF0B04237
:1017EC00936823F4605343EAC103936000F0F6FE60
:1017FC0006464FF0B0439B6813F4802F7FF456AF2E
:10180C0000F0ECFE801B0228F3D9032055E04FF0CA
:10181C00B042126812F4003F0FD101204DE04FF09E
:10182C00B042126812F0007F07D1012045E04FF062
:10183C00B042126812F4806F42D04FF0B0418A6807
:10184C0022F0030213438B6000F0C8FE06464FF0F3
:10185C00B0439B6803F00C036A68B3EB820F08D0AB
:10186C0000F0BCFE801B41F288339842EFD9032074
:10187C0023E0144B1B6803F00703A34215D9114A4C
:10188C00136823F007032343136000F0A7FE0546FB
:10189C000C4B1B6803F00703A34206D000F09EFE1E
:1018AC00401B0228F4D9032007E0FFF741FB064B4D
:1018BC00186000F099FE00F047FE70BD01207047E3
:1018CC000120FAE7004000581000002008B5FFF78F
:1018DC002FFB4FF0B0439B68C3F30223034A52F82B
:1018EC00233003F01F03D84008BD00BFA4BC000880
:1018FC0008B5FFF71DFB4FF0B0439B68C3F3C22341
:10190C00034A52F8233003F01F03D84008BD00BF30
:10191C00A4BC00084FF0B041D1F88830020902F4A1
:10192C007F2223EA0203000100F47F200343C1F865
:10193C008830704770B505464FF0B042136823F0FD
:10194C008063136000F04AFE04464FF0B0431B68FE
:10195C0013F0006F06D000F041FE001B0228F4D9F2
:10196C00032400E000240CB1204670BD4FF0B043BE
:10197C001A6922F4FE42296842EA01221A611A69A4
:10198C0022F4781269680A431A611A6842F080627C
:10199C001A6000F023FE06464FF0B0431B6813F0AC
:1019AC00006F05D100F01AFE801B0228F4D9032425
:1019BC00002CD9D14FF0B042136929690B43136144
:1019CC00D2E770B505464FF0B042136823F0806340
:1019DC00136000F003FE04464FF0B0431B6813F095
:1019EC00006F06D000F0FAFD001B0228F4D9032486
:1019FC0000E000240CB1204670BD4FF0B0431A69D2
:101A0C0022F4FE42296842EA01221A611A6922F084
:101A1C006062A9680A431A611A6842F080621A600F
:101A2C0000F0DCFD06464FF0B0431B6813F0006F6E
:101A3C0005D100F0D3FD801B0228F4D90324002C1F
:101A4C00D9D14FF0B042136929690B431361D2E726
:101A5C0070B505464FF0B042136823F080631360F5
:101A6C0000F0BCFD04464FF0B0431B6813F0006F50
:101A7C0006D000F0B3FD001B0228F4D9032400E0CB
:101A8C0000240CB1204670BD4FF0B0431A6922F40B
:101A9C00FE42296842EA01221A611A6922F0604268
:101AAC00E9680A431A611A6842F080621A6000F011
:101ABC0095FD06464FF0B0431B6813F0006F05D13F
:101ACC0000F08CFD801B0228F4D90324002CD9D102
:101ADC004FF0B042136929690B431361D2E770B51B
:101AEC000446036813F0400F2FD0036BB3F5800F3F
:101AFC0014D00AD833B90430FFF71CFF0646A0B146
:101B0C00054624E001252E4621E0B3F5000F18D040
:101B1C00B3F5400F17D001252E4618E04FF0B04218
:101B2C00D36843F48033D3600026236B4FF0B0416D
:101B3C00D1F8882022F440021343C1F888300025E4
:101B4C0005E00026F1E70026EFE700252E46236886
:101B5C0013F4006F0AD04FF0B043D3F8905005F453
:101B6C004075236CAB4240F0B7803546236813F0C8
:101B7C00010F09D0A3694FF0B041D1F8882022F0B1
:101B8C0003021343C1F88830236813F0020F09D005
:101B9C00E3694FF0B041D1F8882022F4406213433E
:101BAC00C1F88830236813F0100F0CD0A16A4FF0E5
:101BBC00B042D2F88830080C000423EA000343EA50
:101BCC000143C2F88830236813F0200F0CD0E16A6F
:101BDC004FF0B042D2F88830080C000423EA00031E
:101BEC0043EA0143C2F88830236813F0040F40F035
:101BFC00B480236813F0080F40F0B380236813F40B
:101C0C00807F13D0636B4FF0B041D1F8882022F065
:101C1C0040621343C1F88830636BB3F1006F00F07E
:101C2C00A480636BB3F1806F00F0A480236813F47D
:101C3C00007F17D0A36BB3F1804F05D0B3F1004FE9
:101C4C0002D0002B40F09E804FF0B041D1F888209C
:101C5C0022F040421343C1F88830A36BB3F1C05F4C
:101C6C0000F0A280236813F4806F13D0E36B4FF065
:101C7C00B041D1F8882022F040521343C1F888308B
:101C8C00E36BB3F1005F00F09680E36BB3F1805F20
:101C9C0000F09680236813F4805F09D0636C4FF0DA
:101CAC00B041D1F8942022F440421343C1F894304F
:101CBC00236813F4005F0DD0E26C4FF0B043596A07
:101CCC0021F030010A435A62A26C596A21F00301D7
:101CDC000A435A62284670BD00F070FB5DB9236C54
:101CEC004FF0B041D1F8902022F440721343C1F868
:101CFC00903035463AE74FF0B043D3F89020D3F804
:101D0C00901041F48031C3F89010D3F8901021F466
:101D1C008031C3F8901022F44072216C0A43C3F84E
:101D2C009020D3F8903013F0010F12D000F056FC35
:101D3C0005464FF0B043D3F8903013F0020F0AD1A0
:101D4C0000F04CFC401B41F288339842F1D903253A
:101D5C000CE735460AE7354608E7206AFFF7DAFD57
:101D6C0047E7606AFFF7D6FD48E7CB6843F080731E
:101D7C00CB6056E7201DFFF724FE00283FF456AF3A
:101D8C00054653E723F080534FF0B042D2F8881049
:101D9C0021F04041C2F88810D2F8881021F040613F
:101DAC000B43C2F8883058E74FF0B042D36843F089
:101DBC008073D36056E7CB6843F48033CB6064E721
:101DCC00201DFFF745FE00283FF464AF054661E790
:101DDC00F0B5002366E085685E000324B44025EA74
:101DEC000405CC68B4402C438460456825EA0C0596
:101DFC004C68C4F300149C402C43446063E0DD0841
:101E0C00083550F8254003F0070C4FEA8C0C4FF0C6
:101E1C000F0E0EFA0CFE24EA0E0E0C6904FA0CF4EA
:101E2C0044EA0E0440F8254064E0042400E0002459
:101E3C0004FA0EF42C430CF1020C4F4D45F82C40D7
:101E4C004E4C2568D44325EA02064F6817F4801FD0
:101E5C0001D042EA0506494D2E606D6804EA05067C
:101E6C004F6817F4001F01D042EA0506434D6E601F
:101E7C00D5F8805004EA05064F6817F4803F01D06E
:101E8C0042EA05063D4DC5F88060D5F884502C40DB
:101E9C004E6816F4003F01D042EA0504374AC2F8F6
:101EAC00844001330A6832FA03F464D04FF0010C19
:101EBC000CFA03FC1CEA0202F3D04C6804F0030495
:101ECC00013C012C87D94C6804F00304032C0CD082
:101EDC00C4685D004FF0030C0CFA05FC24EA0C0CF2
:101EEC008C68AC4044EA0C04C4604C6804F00304F5
:101EFC00022C84D004684FEA430E4FF0030C0CFA0A
:101F0C000EFC24EA0C0C4C6804F0030404FA0EF4E6
:101F1C0044EA0C0404604C6814F4403FC1D04FEA0E
:101F2C00930C0CF10205144C54F8255003F0030EDD
:101F3C004FEA8E0E0F2404FA0EF425EA0405B0F1D4
:101F4C00904F3FF474AF0E4CA0420ED004F5806459
:101F5C00A0420CD004F58064A0420AD004F5806441
:101F6C00A0423FF462AF072462E7012460E7022439
:101F7C005EE703245CE7F0BD000001400008005858
:101F8C00000400480AB1816170478162704743695F
:101F9C0001EA030221EA030141EA0241816170472F
:101FAC0008B5054BDB68034200D108BD024BD86075
:101FBC00FEF7E2FAF9E700BF00080058704700008E
:101FCC0008B5054BD8681A6822EA00021A605860F6
:101FDC00FFF7F4FF08BD00BF0015005830B4C46C07
:101FEC00056D6560446D14B1846DC56D6560446CA0
:101FFC0004F01C0C012404FA0CF4056C6C600468ED
:10200C0063608368102B05D0036899600368DA60FD
:10201C0030BC704703689A600368D960F8E7000029
:10202C000368104A934215D8426C22F0030202F165
:10203C00804202F502328264DBB2083B0A4AA2FB00
:10204C0003230A4AC264C3F30413012202FA03F302
:10205C0003657047426C22F00301054A0A4482640E
:10206C00EAE700BF07040240CDCCCCCC800802408C
:10207C001C080240436803F03F03074A1A449200CD
:10208C004265064A8265013B03F00303012202FA12
:10209C0003F3C365704700BF3F8200104009024044
:1020AC0000285BD010B5044602682D4B9A423DD8EF
:1020BC002C4B13442C49A1FB03131B099B004364B9
:1020CC002A4B0364022384F8253011686FF30E1138
:1020DC00A368E06803432069034360690343A06974
:1020EC000343E0690343206A03430B431360204618
:1020FC00FFF796FFA368B3F5804F22D06368A26CFC
:10210C0003F03F031360E36C226D5A606368013B7C
:10211C00032B19D900236365A365E3650020E063F5
:10212C00012384F8253084F8240010BD104B13448F
:10213C000D49A1FB03131B099B0043640D4B036466
:10214C00C0E700236360D9E72046FFF793FF636D78
:10215C0000221A60A36DE26D5A60DFE70120704720
:10216C0007040240F8FFFDBFCDCCCCCC00000240F0
:10217C00F8FBFDBF0004024038B5044690F824007B
:10218C00012841D0012084F8240094F82500C0B225
:10219C00012804D0002384F82430022038BD02200A
:1021AC0084F825000020E0632568286820F00100F1
:1021BC0028602046FFF712FF236BD3B12268136807
:1021CC0043F00E031360A36C1A6812F4803F03D023
:1021DC001A6842F480721A60636D1BB11A6842F47B
:1021EC0080721A602268136843F0010313600020A8
:1021FC00D4E72268136823F0040313602268136881
:10220C0043F00A031360DEE70220C7E70346002809
:10221C0034D090F82520D2B2022A06D00422C26310
:10222C00002280F824200120704701680A6822F0FF
:10223C000E020A60816C0A6822F480720A600168DE
:10224C000A6822F001020A60426C02F01C01006C68
:10225C0001228A404260DA6C196D51605A6D32B1BC
:10226C00116821F4807111609A6DD96D5160012251
:10227C0083F82520002083F8240070470120704744
:10228C0008B590F82530DBB2022B03D00423C363CE
:10229C00012008BD0268136823F00E031360026866
:1022AC00136823F001031360826C136823F48073AA
:1022BC001360436C03F01C02016C012393404B60D0
:1022CC00C36C026D5A60436D33B11A6822F480728C
:1022DC001A60836DC26D5A60012380F8253000238B
:1022EC0080F82430836B13B198470020D1E700208D
:1022FC00CFE738B5036C196804682568436C03F0A4
:10230C001C0304229A400A4215D015F0040F12D077
:10231C00236813F0200F03D1236823F004032360F8
:10232C00436C03F01C02016C042393404B60036B61
:10233C0003B1984738BD02229A400A421CD015F0CE
:10234C00020F19D0236813F0200F06D1236823F055
:10235C000A032360012380F82530436C03F01C0230
:10236C00016C022393404B60002380F82430C36A35
:10237C00002BDFD09847DDE7082202FA03F30B426B
:10238C00D8D015F0080FD5D0236823F00E032360A6
:10239C00436C03F01C03016C012202FA03F34B6043
:1023AC00C26380F82520002380F82430436B002B77
:1023BC00C0D09847BEE790F825007047024A1368D2
:1023CC0043F480731360704700040058024B186884
:1023DC0000F4C060704700BF00040058024A536804
:1023EC0043F480635360704700040058002807DBF7
:1023FC0000F01F02400901239340024A42F82030AA
:10240C00704700BF00E100E000280CDB00F01F0269
:10241C004009012393402030034A42F82030BFF397
:10242C004F8FBFF36F8F704700E100E0002808DB8F
:10243C000901C9B200F1604000F5614080F8001359
:10244C00704700F00F000901C9B2014B19547047D5
:10245C0014ED00E000B500F00700C0F1070CBCF172
:10246C00040F28BF4FF0040C031D062B0FD9C31EFD
:10247C004FF0FF3E0EFA0CF021EA000199400EFAE3
:10248C0003FE22EA0E0241EA02005DF804FB00237F
:10249C00EEE70000074AD36823F4E0631B041B0C2F
:1024AC00000200F4E060034343F0BF6343F40033E5
:1024BC00D360704700ED00E010B50446054BD868BA
:1024CC00C0F30220FFF7C6FF01462046FFF7AEFF20
:1024DC0010BD00BF00ED00E008B5FFF787FF08BD99
:1024EC0008B5FFF791FF08BD0138B0F1807F0BD222
:1024FC004FF0E0235861054AF02182F823100020A8
:10250C00986107221A6170470120704700ED00E0C6
:10251C00002808DB00F01F024009012393404030E3
:10252C00014A42F82030704700E100E0002808DB47
:10253C0000F01F024009012393406030014A42F829
:10254C002030704700E100E0114B1B780BB90120E3
:10255C00704710B50446FEF7EBFC0D4B1A784FF4A0
:10256C007A73B3FBF2F3B0FBF3F0FFF7BDFF68B97E
:10257C000F2C01D901200AE0002221464FF0FF3038
:10258C00FFF79AFF034B1C60002000E0012010BDF8
:10259C00080000200C00002010B5094A136843F411
:1025AC00807313600320FFF775FF0F20FFF7CCFF3C
:1025BC0010B10124204610BD0446FEF721FAF9E7BC
:1025CC0000400058034B1B78034A11680B441360FE
:1025DC00704700BF08000020F8030020014B18686A
:1025EC00704700BFF8030020014B1868704700BF0C
:1025FC000C000020014B1878704700BF0800002029
:10260C00164AD2F8883043F47003C2F888304FF081
:10261C00B0431A6842F001021A604FF4E0229A604B
:10262C001968A2F1A262A2F205120A401A60D3F84C
:10263C00942022F00502C3F89420D3F8982022F0BD
:10264C000102C3F89820064ADA601A611A6822F46B
:10265C0080221A6000229A61704700BF00ED00E0F2
:10266C000010042200B585B002464FF47A73029331
:10267C00012301930091D021044801F07DFB10B996
:10268C0005B05DF804FB0120FAE700BFA0030020B1
:10269C0030B587B000208DF816008DF815000DF1BF
:1026AC001701FFF7DFFF002840F0938004469DF8E8
:1026BC001730242B03D00224204607B030BDB6239C
:1026CC008DF815304FF47A730293012301930DF1B9
:1026DC00150200927E22D021404801F078FA08B110
:1026EC000124E9E70A2002F099FB00238DF815304C
:1026FC004FF47A730293012301930DF115020092AA
:10270C007C22D021354801F062FA08B10124D3E7CC
:10271C00012002F083FB00238DF815304FF47A73FF
:10272C000293012301930DF1150200925922D0213D
:10273C002A4801F04CFA08B10124BDE7012002F04F
:10274C006DFB42F2107302934FF400530193244B30
:10275C00009301235E22D021204801F038FA08B101
:10276C000124A9E7012002F059FB01238DF8153053
:10277C004FF47A72029201930DF1150200925922D4
:10278C00D021164801F023FA08B1012494E7C8209F
:10279C0002F044FB4FF47A75B5B14FF47A7302939F
:1027AC00012301930DF1160200922122D0210B4836
:1027BC0001F0E2FA78B99DF81630012B04D005200F
:1027CC0002F02CFB013DE7E7002D7FF475AF0124EF
:1027DC0072E7012470E701246EE700BFA00300201C
:1027EC0004BD000810B586B000238DF81730FFF734
:1027FC004FFF18B10124204606B010BD04460E232D
:10280C008DF817304FF47A730293012301930DF175
:10281C00170200927D22D021304801F0D8F908B17E
:10282C000124E8E70A2002F0F9FAA8238DF8173002
:10283C004FF47A730293012301930DF11702009266
:10284C004022D021254801F0C2F908B10124D2E779
:10285C00012002F0E3FA01238DF817304FF47A725D
:10286C00029201930DF1170200924122D0211B48D4
:10287C0001F0ADF908B10124BDE7012002F0CEFA58
:10288C00A9238DF817304FF47A7302930123019327
:10289C000DF1170200924222D021104801F097F955
:1028AC0008B10124A7E7012002F0B8FA02238DF841
:1028BC0017304FF47A730293012301930DF1170231
:1028CC0000927C22D021054801F081F908B1012445
:1028DC0091E7012002F0A2FA8DE700BFA0030020CF
:1028EC0000B585B04FF0FF3302930C22019200909B
:1028FC000123D021024801F03FFA05B05DF804FB3A
:10290C00A003002000B58DB04FF0FF3302931923C4
:10291C00019304AB009301238822EC21504801F071
:10292C002BFA18B101200DB05DF804FB4FF0FF330A
:10293C000293072301930DF1290300930123E12254
:10294C00EC21474801F018FA002840F086809DF8E9
:10295C0011209DF8103043EA0223424A13809DF85F
:10296C0013209DF8123043EA02233F4A13809DF84E
:10297C0015209DF8143043EA02233C4A13809DF83D
:10298C0017209DF8163043EA0223394A13809DF82C
:10299C0019209DF8183043EA0223364A13809DF81B
:1029AC001B209DF81A3043EA0223334A13809DF80A
:1029BC001D209DF81C3043EA0223304A13809DF8F9
:1029CC001F209DF81E3043EA02232D4A13809DF8E8
:1029DC0021209DF8203043EA02232A4A13809DF8D7
:1029EC0023209DF8223043EA0223274A13809DF8C6
:1029FC0025209DF8243043EA0223244A13809DF8B5
:102A0C0027209DF8263043EA0223214A13809DF8A3
:102A1C002820204B1A809DF82A209DF8293043EA63
:102A2C0002231D4A13809DF82B201C4B1A809DF805
:102A3C002C109DF82D3003F00F0242EA01121849B8
:102A4C000A809DF82E201B0943EA0213154A1380B5
:102A5C009DF92F20144B1A8065E7022063E700BF15
:102A6C00A0030020200400201804002016040020DD
:102A7C001E04002014040020120400201004002066
:102A8C000E0400200C0400200A040020080400207E
:102A9C00060400201C040020040400201A0400205A
:102AAC000204002000040020FE0300202DE9F04168
:102ABC0086B00746884616461D46FFF723FF20B111
:102ACC000124204606B0BDE8F081044600238DF8B1
:102ADC0017308DF81630B6238DF817304FF47A7303
:102AEC000293012301930DF117020092E022EC21D5
:102AFC004C4801F06CF8002840F08B80642002F008
:102B0C008DF98DF817604FF47A73029301230193BA
:102B1C000DF117020092F222EC21424801F057F815
:102B2C00002878D1642002F079F94FF47A7302937B
:102B3C00012301930DF116020092F222EC21394887
:102B4C0001F01AF99DF816209DF817309A4201D021
:102B5C000424B6E79DF834309B009DF8302043EAFE
:102B6C0042138DF817304FF47A73029301230193BB
:102B7C000DF117020092F522EC212A4801F027F8FA
:102B8C0000284AD1642002F049F94FF47A73029379
:102B9C00012301930DF116020092F522EC2121483C
:102BAC0001F0EAF89DF816209DF817309A4201D0F2
:102BBC00062486E74FEA880343EA47135BB22B43AC
:102BCC008DF817304FF47A730293012301930DF1B2
:102BDC0017020092F422EC21124800F0F8FFF0B931
:102BEC00642002F01BF94FF47A73029301230193D2
:102BFC000DF116020092F422EC210A4801F0BCF807
:102C0C009DF816209DF817309A423FF45AAF0824CD
:102C1C0057E7022455E7032453E7052451E707241B
:102C2C004FE700BFA003002030B585B004464FF439
:102C3C007A730293012301930C4D0095D022EC2161
:102C4C000B4801F099F82B78602B01D005B030BD02
:102C5C004FF0FF3302930823019300940123F722D2
:102C6C00EC21034801F088F8F0E700BFFC030020DA
:102C7C00A003002010B5104C2046FFF7D5FF0F4BDA
:102C8C004FF0AA0E9C460CF801EB224603CAC3F87F
:102C9C000100CCF804100A4C07CCC3F80900C3F8A7
:102CAC000D10C3F811202188A278A3F81510DA753D
:102CBC0083F818E010BD00BF5C060020340600202D
:102CCC006406002008B50C4B1B780F2B12D90A4B4D
:102CDC0000221A70094A138801339BB2138043F601
:102CEC000752934202D9054B00221A80034B1888D5
:102CFC0000F058FB08BD00BF2A0500202805002065
:102D0C0008B5CAB20146002002F03EFF08BD000023
:102D1C00F8B51A4B1B783BB1194B1B78112B15D9F5
:102D2C00184B01221A70F8BDFFF7A4FF164C174D73
:102D3C000FCD0FC495E8070003C422700F4A137817
:102D4C00193313700E4B00221A70E5E7104C204615
:102D5C00FFF7C6FD094E35780B4F05EB070C2346E4
:102D6C0007CB7851CCF80410CCF808200C35357012
:102D7C00034A137801331370D5E700BF31060020E6
:102D8C003006002073060020300500203406002099
:102D9C00500600201A4B1B7803B9704770B5FFF72B
:102DAC0091FF184D2B681A0E174C84F8FC201A0C46
:102DBC0084F8FD201A0A84F8FE2084F8FF30134BA7
:102DCC001B88134E307800EB03104FF480722146B1
:102DDC00000200F053FA3378013333702B6801335F
:102DEC002B6000230B4A13700B4A1370044A1370A8
:102DFC004FF48072FF21204608F0C3FE70BD00BF67
:102E0C00730600202C05002030050020280500202A
:102E1C002A050020310600203006002038B5002598
:102E2C00284B9D4243D8284C4FF4807221462802EF
:102E3C0000F084FA94F8FC2094F8FD301B0443EA6B
:102E4C00026394F8FE2043EA022394F8FF20134314
:102E5C00B3F1FF3F01D00135E2E73DB900231B4A36
:102E6C0013601B4A13701B4A138038BD681E164C26
:102E7C004FF480722146000200F060FA94F8FC20B6
:102E8C0094F8FD301B0443EA026394F8FE2043EAF5
:102E9C00022394F8FF20134301330C4A136005F00E
:102EAC000F020B4B1A702D090A4B1D80DDE7074BE7
:102EBC00094A1A60064B00221A70064B43F6095257
:102ECC001A80D2E78FD00300280400202C050020A4
:102EDC002A0500202805002090D0030008B5144BCB
:102EEC001868144B1B68984218D2134B1B78B3B15B
:102EFC00114B1B78D3B911488021FFF701FF68B93A
:102F0C000D4A13780133DBB21370012B06D913462B
:102F1C0000221A70064A13680133136008BD4FF47F
:102F2C0080720649000200F009FAE1E70448E3E781
:102F3C00240400202C05002022040020280400205A
:102F4C00A80400200378DBB2B52B00D0704743787F
:102F5C00DBB2622BFAD18378DBB2012BF6D1C378CA
:102F6C00DBB2072BF2D1464A01231370837AC17A64
:102F7C0043EA01231381037B9372437BD372837BDC
:102F8C001373C37B53738379C17943EA0123017AA9
:102F9C0043EA0143417A43EA01635360427C12F0F5
:102FAC00010F5AD0027C364B9A73827E344BDA7303
:102FBC00417FC9B21974D0F81E2007EE902AF8EEA2
:102FCC00E77A9FED307A67EE877AC3ED057AD0F811
:102FDC00222007EE902AF8EEE77A67EE877AC3EDA7
:102FEC00067AD0F8422007EE902AF8EEE77AC3ED85
:102FFC000D7A90F84620D2B207EE902AF8EE677A56
:10300C00C3ED0E7A022937D91F4B01221A70827A2E
:10301C001E4B1A70C27A5A70027B9A70427BDA701D
:10302C00827B1A71C27B5A71027C9A71827FDA712F
:10303C00C27F1A7290F820205A7290F821209A724E
:10304C0090F82220DA7290F823201A7390F824203A
:10305C005A7390F825209A7378E70D4AA2FB032344
:10306C009B090C4AA2FB03125209C2EB0212A3EBFE
:10307C008202034B9A7398E7034B00221A70C6E73F
:10308C007806002095BFD633750600206406002014
:10309C00D34D62108988888810B50A4C204604F0FC
:1030AC0099FB64220849204604F0DEFE30B9074B38
:1030BC001A68136823F00403136010BDFDF77CFA43
:1030CC00F5E700BF98020020C0060020380200205F
:1030DC0008B5002300E00133622B0EDC074AD25CFA
:1030EC00D2B2B52AF7D15A1C04498A5CD2B2622AF0
:1030FC00F1D108461844FFF725FF08BDC006002093
:10310C0008B5064B834200D008BDFFF7E1FF6422EF
:10311C000349024804F0A8FEF6E700BF980200201D
:10312C00C006002030B583B0194B1B7813B1194A77
:10313C00127812B1B3B103B030BD0F230193142434
:10314C0000942346144A00216B2000F059FA002108
:10315C00009123467F226B2000F010FA0D4B0122C8
:10316C001A70E8E705230193142500952B460A4AAB
:10317C0000216B2000F044FA002400942B467F229F
:10318C0021466B2000F0FAF9024B1C70D3E700BF0C
:10319C00750600207406002040ED000800B58FB0C5
:1031AC003422002101A808F0ECFC062301934FF413
:1031BC008073079341F2883201A9054805F02AF87B
:1031CC0010B90FB05DF804FBFDF7F6F9F9E700BF95
:1031DC00F401002000B58FB03422002101A808F0C2
:1031EC00D0FC042301934FF48073079341F288328F
:1031FC0001A9054805F00EF810B90FB05DF804FBF5
:10320C00FDF7DAF9F9E700BFF401002000B58FB043
:10321C003422002101A808F0B4FC00238DF80330FF
:10322C00052301934FF4807307934FF080730A9337
:10323C0001230B9341F2883201A90B4804F0EAFFF9
:10324C0060B941F288320DF10301074805F09AF894
:10325C0038B99DF803000FB05DF804FBFDF7ACF92D
:10326C00EFE7FDF7A9F9F4E7F401002008B5FFF743
:10327C00CDFF10F0010FFAD108BD000070B58EB073
:10328C0006460D4614463422002101A808F079FCAC
:10329C00B4F5807F01D94FF48074FFF77FFF0223D0
:1032AC0001930296002303934FF44052049205932A
:1032BC0006934FF4807207924FF480620892099340
:1032CC004FF080720A920B940C930D9341F288325A
:1032DC0001A90B4804F09EFF60B941F288322946DF
:1032EC00074804F0E6FF40B9FFF7C0FFFFF772FF95
:1032FC000EB070BDFDF760F9EFE7FDF75DF9F3E790
:10330C00F401002000B58FB03422002101A808F090
:10331C0038FCB72301934FF48073079341F2883242
:10332C0001A9054804F076FF10B90FB05DF804FB55
:10333C00FDF742F9F9E700BFF401002070B58EB03B
:10334C0006460C4615463422002101A808F019FC4B
:10335C001323019302964FF4405304934FF480735C
:10336C0007934FF4806308934FF080730A930B9587
:10337C0041F2883201A90A4804F04CFF50B941F2DD
:10338C0088322146064804F0FDFF30B9FFF76EFF86
:10339C000EB070BDFDF710F9F1E7FDF70DF9F5E78B
:1033AC00F401002010B58EB00446FFF7F7FE24039D
:1033BC003422002101A808F0E4FB2123019302949C
:1033CC004FF4405304934FF4807307934FF480638E
:1033DC00089341F2883201A9064804F01BFF28B972
:1033EC00FFF744FFFFF7F6FE0EB010BDFDF7E4F853
:1033FC00F6E700BFF401002000B587B08DF8170088
:10340C004FF0FF330293012301930DF11702009249
:10341C0000227A21024800F0DAFB07B05DF804FBC9
:10342C00A003002008B5AE20FFF7E6FFA820FFF7A9
:10343C00E3FF7F20FFF7E0FFA120FFF7DDFF002077
:10344C00FFF7DAFFA220FFF7D7FF0020FFF7D4FF2A
:10345C00A020FFF7D1FF5120FFF7CEFF8120FFF70F
:10346C00CBFF7F20FFF7C8FFB120FFF7C5FF22205D
:10347C00FFF7C2FFB320FFF7BFFF5020FFF7BCFFE1
:10348C00B920FFF7B9FFBC20FFF7B6FF1020FFF7FC
:10349C00B3FFBE20FFF7B0FF0520FFF7ADFFB6204E
:1034AC00FFF7AAFF0A20FFF7A7FFD520FFF7A4FF1D
:1034BC006220FFF7A1FF1520FFF79EFF0020FFF70A
:1034CC009BFF7F20FFF798FF7520FFF795FF0020EB
:1034DC00FFF792FF7F20FFF78FFFA420FFF78CFFF1
:1034EC00AF20FFF789FF08BD83B27F2B16D80029C8
:1034FC0014DB7F2912DC0F2A10D800EBD0735B1081
:10350C0003EB81130949C95C10F0010F07D021F0BE
:10351C000F0102F00F020A430449CA54704701F02C
:10352C000F0141EA0212D2B2F6E700BF24070020D5
:10353C0000B585B04FF47A7302934FF400530193A6
:10354C00054B0093012340227A21044800F03FFBF5
:10355C0005B05DF804FB00BF24070020A003002089
:10356C0008B500F00F0141EA00114FF40052C9B246
:10357C00014808F006FB08BD240700202DE9F043A4
:10358C0085B006460D4614461F464FEA50084FEAD2
:10359C0052091520FFF730FF4046FFF72DFF484634
:1035AC00FFF72AFF7520FFF727FF2846FFF724FFB8
:1035BC003846FFF721FFA61B023606EBD676C6F37C
:1035CC004706002411E0621908EB82124FF0FF331A
:1035DC0002930196084B1A440092012340227A214F
:1035EC00064800F0F4FA0134E4B27B1B9C42EADD9D
:1035FC0005B0BDE8F08300BF24070020A003002025
:10360C002DE9F04F83B08246894690461E469DF8C0
:10361C00303001939DF834B0F71DFF1000251AE0EF
:10362C000134E4B2B44214D2E30807FB053318F8B2
:10363C00032004F0070180230B411A42F0D004EB65
:10364C000A0005EB09015A4609B200B2FFF74CFF1C
:10365C00E6E70135EDB2019B9D4201D20024E1E782
:10366C0003B0BDE8F08F000030B583B00020FFF749
:10367C0077FF0F2501958024009423461A4A0021D8
:10368C000846FFF7BDFFFFF753FF4FF4FA6001F058
:10369C00C5FB0020FFF764FF019500942346134AF5
:1036AC0000210846FFF7ACFFFFF742FF4FF4FA602A
:1036BC0001F0B4FB0020FFF753FF052501951424FE
:1036CC00009423460A4A00216B20FFF799FF0195CD
:1036DC0000942346074A00210846FFF791FFFFF7A5
:1036EC0027FF03B030BD00BF04E5000804DD00086F
:1036FC0040ED000804ED000803689A6912F0020F0F
:10370C0001D000229A6203689A6912F0010F03D16A
:10371C009A6942F001029A61704710B4019CC1F39E
:10372C00090141EA02411943214321F00041026899
:10373C005368640D04F4806444F07F7444F458348A
:10374C0044F47F7444F0030423EA04030B435360F2
:10375C005DF8044B704711F0010F09D090F841301F
:10376C0003F02803282B01D0F22302E0422300E0CF
:10377C00002311F0020F09D043F0440C90F84120C3
:10378C0002F02802282A09D043F0F40311F4004F68
:10379C0006D1102906D143F0900305E06346F5E706
:1037AC0043F0B803202907D0402908D001680A68E3
:1037BC0022EA03030B60704743F02003F6E743F063
:1037CC004003F3E72DE9F041044603689E6916F0C7
:1037DC0010067CD00D4690461022DA610026374642
:1037EC002368986910F0200F30D17FBBB5F1FF3FF3
:1037FC00F6D0FEF7F3FEA0EB0800A84201D8002D8E
:10380C00EED121684B6803F4804394F84220D2B285
:10381C00886910F4004F02D00BB9202A0ED123680E
:10382C009B6913F0200FDBD1FEF7D8FEA0EB08004C
:10383C001928F4D946F020060127D1E74B6843F448
:10384C0080434B60FEF7CAFE8046E8E70FB92022A2
:10385C00DA6146F0040601252268936913F4807F2F
:10386C0005D046F001064FF48071D161012513F4A7
:10387C00806F06D046F0080622684FF48061D16153
:10388C00012513F4007F24D046F0020623684FF480
:10389C000072DA6101252046FFF72EFF226853687B
:1038AC0023F0FF7323F48B3323F4FF7323F0010312
:1038BC005360636C33436364202384F841300023EA
:1038CC0084F8423084F840302846BDE8F081002569
:1038DC00C2E7002DF8D0DEE770B504460D4616465B
:1038EC0023689B6913F0020F22D1324629462046E9
:1038FC00FFF768FFF0B9B5F1FF3FF1D0FEF76EFEB0
:10390C00801BA84201D8002DEAD123689B6913F0D3
:10391C00020FE5D1636C43F020036364202384F829
:10392C004130002384F8423084F84030012000E01C
:10393C00002070BD0120FCE72DE9F84305468846C0
:10394C0017461E46DDF820902B689C6938EA040463
:10395C000CBF01230023BB4227D14A4631462846DF
:10396C00FFF730FF20BBB6F1FF3FEDD0FEF736FE80
:10397C00A0EB0900B04201D8002EE5D12B689B6961
:10398C0038EA03030CBF01230023BB42DCD16B6C70
:10399C0043F020036B64202385F84130002385F825
:1039AC00423085F84030012000E00020BDE8F8836B
:1039BC000120FBE72DE9F04182B0044690461D46FC
:1039CC00089E099F194B00934FF08073EAB2FFF7E2
:1039DC00A4FE3A4631462046FFF77EFFF8B9012D8A
:1039EC000ED123685FFA88F29A6200973346002260
:1039FC0080212046FFF7A0FFA8B902B0BDE8F081F6
:103A0C0023684FEA18229A623A4631462046FFF75D
:103A1C0063FF30B923685FFA88F29A62E5E7012008
:103A2C00EBE70120E9E70120E7E700BF0020008079
:103A3C002DE9F04182B0044690461D46089E099F30
:103A4C00184B00930023EAB2FFF767FE3A46314663
:103A5C002046FFF741FFF8B9012D0ED123685FFA1C
:103A6C0088F29A6200973346002240212046FFF7E5
:103A7C0063FFA8B902B0BDE8F08123684FEA1822B1
:103A8C009A623A4631462046FFF726FF30B9236842
:103A9C005FFA88F29A62E5E70120EBE70120E9E79B
:103AAC000120E7E70020008070B504460D4616465D
:103ABC0004E023689B6913F0200F12D023689B69E4
:103ACC0013F0200F1BD1324629462046FFF77AFE11
:103ADC00B8B9FEF783FD801BA842EAD8002DEDD1C2
:103AEC00E7E7636C43F020036364202384F84130E0
:103AFC00002384F8423084F84030012000E000209C
:103B0C0070BD0120FCE700285FD010B5044690F88A
:103B1C004130002B48D0242384F8413022681368AC
:103B2C0023F0010313606368226823F07063136150
:103B3C002268936823F400439360E368012B38D028
:103B4C00A368226843F404439360E368022B36D0E5
:103B5C002268536823F4006353602268536843F06F
:103B6C00007343F4004353602268D36823F400438A
:103B7C00D360236962691343A169226843EA012374
:103B8C00D360E369216A22680B43136022681368CF
:103B9C0043F00103136000206064202384F841305B
:103BAC00206384F8420010BD80F84030FCF74AFFD7
:103BBC00B1E7A368226843F400439360C5E7226829
:103BCC00536843F400635360C7E7012070472DE945
:103BDC00F04F83B00E46BDF834A00E9D90F8411006
:103BEC00C9B2202940F0BB800446904699460C9BF4
:103BFC00CBB1BAF1000F16D090F84030012B00F089
:103C0C00B2804FF0010B80F840B0FEF7E7FC07469E
:103C1C00009019235A464FF400412046FFF78CFEC2
:103C2C0030B101209CE04FF400736364012097E0F5
:103C3C00212384F84130402384F84230002363640C
:103C4C000C9A6262A4F82AA06363019700954B4614
:103C5C00424631462046FFF7ADFE70B9638D9BB2EC
:103C6C00FF2B0FD9FF222285002300934FF0807386
:103C7C0031462046FFF751FD21E0002384F8403007
:103C8C0058466DE0628D92B22285002300934FF06E
:103C9C000073D2B231462046FFF73FFD0FE0628D34
:103CAC0092B22285002300934FF00073D2B23146BA
:103CBC002046FFF732FD638D9BB2002B33D03A4682
:103CCC0029462046FFF708FE00284ED1626A236879
:103CDC0012789A62636A01336362638D9BB2013B13
:103CEC009BB26385238D013B9BB22385628D92B27F
:103CFC00002AE0D0002BDED100972B460022802139
:103D0C002046FFF719FE90BB638D9BB2FF2BC6D9E3
:103D1C00FF222285002300934FF08073314620460A
:103D2C00FFF7FBFCC7E73A4629462046FFF7BCFEE7
:103D3C00F8B923682022DA6121684B6823F0FF73FD
:103D4C0023F48B3323F4FF7323F001034B6084F8CB
:103D5C004120002384F8423084F8403000E00220F7
:103D6C0003B0BDE8F08F0220FAE70120F8E701204C
:103D7C00F6E70120F4E700002DE9F04F83B00E4682
:103D8C00BDF834A00E9D90F84110C9B2202940F026
:103D9C00BC800446904699460C9BCBB1BAF1000FFF
:103DAC0016D090F84030012B00F0B3804FF0010B8F
:103DBC0080F840B0FEF712FC0746009019235A46D3
:103DCC004FF400412046FFF7B7FD30B101209DE0D4
:103DDC004FF400736364012098E0222384F841308F
:103DEC00402384F84230002363640C9A6262A4F886
:103DFC002AA06363019700954B4642463146204604
:103E0C00FFF716FE70B9638D9BB2FF2B0FD9FF2203
:103E1C002285444B00934FF0807331462046FFF7C8
:103E2C007CFC21E0002384F8403058466EE0628D23
:103E3C0092B222853B4B00934FF00073D2B23146C5
:103E4C002046FFF76AFC0FE0628D92B222850023B8
:103E5C0000934FF00073D2B231462046FFF75DFC61
:103E6C00638D9BB2002B34D000972B46002204218B
:103E7C002046FFF761FD00284DD123685A6A636A1A
:103E8C001A70636A01336362228D013A92B2228501
:103E9C00638D9BB2013B9BB26385638D9BB2002B00
:103EAC00DED0002ADCD100972B4680212046FFF77C
:103EBC0043FD90BB638D9BB2FF2BC5D9FF2222859E
:103ECC00002300934FF0807331462046FFF725FC0A
:103EDC00C6E73A4629462046FFF7E6FDF8B92368BF
:103EEC002022DA6121684B6823F0FF7323F48B33B3
:103EFC0023F4FF7323F001034B6084F8412000236B
:103F0C0084F8423084F8403000E0022003B0BDE871
:103F1C00F08F0220FAE70120F8E70120F6E70120F4
:103F2C00F4E700BF0024008008B5036899691A689B
:103F3C00436B03B1984708BD7047704710B50446F2
:103F4C0003681A68002180F8421012F4804F0ED0DA
:103F5C001A6822F480421A6094F84130DBB2292BA3
:103F6C000DD094F84130DBB22A2B18D010BD12F4CE
:103F7C00004FF1D01A6822F400421A60ECE72823B3
:103F8C0084F841302123236301212046FFF7E3FB12
:103F9C00002384F840302046FFF7CEFFE6E72823C5
:103FAC0084F841302223236302212046FFF7D3FB00
:103FBC00002384F840302046FFF7BFFFD6E7704758
:103FCC00F8B5044690F8413003F02803282B06D0AE
:103FDC0003680822DA61002380F84030F8BD0368DA
:103FEC009E69C6F300469A69120C02F0FE059A68A7
:103FFC00C2F30902DF6807F0FE07C168022922D16B
:10400C0085EAD21515F0060F10D1816C013181644F
:10401C00816C0229E2D1002181640820D86184F8E6
:10402C00401031462046FFF7CAFFD7E74FF4004156
:10403C00FFF791FB002384F840303A463146204686
:10404C00FFF7BDFFCAE74FF40041FFF784FB0023E5
:10405C0084F840302A4631462046FFF7B0FFBDE7D2
:10406C007047000010B50446174BC362002303636E
:10407C00202280F8412080F84230436311F0040F75
:10408C0013D003685A6A436A1A70436A0133436255
:10409C00038D53B1013B0385438D9BB2013B9BB216
:1040AC004385436C43F00403436448F20301204608
:1040BC00FFF751FB23681022DA61002384F84030AB
:1040CC002046FFF7CDFF10BD0000FFFF7047704783
:1040DC0008B590F84130DBB2602B06D000230363A7
:1040EC0080F84030FFF7F2FF08BD202380F8413004
:1040FC000023036380F84030FFF7E9FFF4E700008A
:10410C0010B5044690F84130002280F84220454812
:10411C00E0626285626C0A436264283BDBB2022B6C
:10412C0019D803212046FFF716FB282384F84130C9
:10413C003D4B6363236BA26B1AB1112B30D0212B37
:10414C002ED0E26B1AB1122B4BD0222B49D0204629
:10415C00FFF7BEFF10BD48F203012046FFF7FBFA44
:10416C002046FFF7C9FA94F84130DBB2602B14D02B
:10417C00202384F8413023689A6912F0200F0CD068
:10418C009A6912F0100F05D01022DA61636C43F0BB
:10419C000403636423682022DA6100236363C9E7A4
:1041AC0023681A6812F4804F03D01A6822F48042F4
:1041BC001A60A06BFEF7FFF801280ED0A36B1B4A08
:1041CC009A63002384F84030A06BFEF759F800285E
:1041DC00C0D0A06B836B9847BCE72046FFF778FFF5
:1041EC00B8E723681A6812F4004F03D01A6822F457
:1041FC0000421A60E06BFEF7DEF801280ED0E36B8C
:10420C000A4A9A63002384F84030E06BFEF738F8D2
:10421C0000289FD0E06B836B98479BE72046FFF705
:10422C0057FF97E70000FFFF2D440008DF4500080B
:10423C00F8B504460D4602681668C76A90F8413016
:10424C002021D161213B092B0CD8DFE803F0057A42
:10425C000B0B0B0B0B81057A48F20101FFF77BFA74
:10426C00212323632268536843F40043536022687C
:10427C00536823F0FF7323F48B3323F4FF7323F081
:10428C00010353602046FFF737FA16F4804F66D0CF
:10429C002268136823F480431360A36B1BB11B6863
:1042AC005B689BB2638515F0040F11D025F00405F3
:1042BC0023685A6A636A1A70636A01336362238DD6
:1042CC0033B1013B2385638D9BB2013B9BB263856C
:1042DC00638D9BB21BB1636C43F00403636415F0F4
:1042EC00100F13D016F0100F10D0638D9BB2002B53
:1042FC005AD194F84130DBB2282B40D094F841309D
:10430C00DBB2292B43D023681022DA61002384F816
:10431C0042306363636C002B56D1E36A13F5803F24
:10432C0060D194F84130DBB2222B6BD0202384F87F
:10433C0041300023236384F840302046FFF7FCFD16
:10434C005FE048F20201FFF706FA2223236389E7B4
:10435C0048F20301FFF7FFF90023236382E716F409
:10436C00004FA0D02268136823F400431360E36B62
:10437C00002B98D01B685B689BB2638593E7B7F101
:10438C00007FBBD129462046FFF76CFEBEE717F530
:10439C00803FB8D023681022DA612046FFF7ACF9D1
:1043AC002046FFF7CBFDB1E723681022DA61636C7E
:1043BC0043F00403636417B1B7F1807FA6D1616C3D
:1043CC002046FFF79DFEA1E7616C2046FFF798FEA3
:1043DC0094F84130DBB2282B13D129462046FFF745
:1043EC0041FE0EE02046FFF7A9FD0C4BE3622023B3
:1043FC0084F841300023236384F840302046FFF7D3
:10440C002FFEF8BD202384F841300023236384F869
:10441C0040302046FFF791FDF3E700BF0000FFFF9F
:10442C0010B50446C06A94F84030012B00F09A8015
:10443C00012384F8403011F0200F02D012F0200F2D
:10444C0016D111F0100F3ED012F0100F3BD0638D2F
:10445C009BB243BB94F84130DBB2282B0FD094F8BD
:10446C004130DBB2292B11D023681022DA6102E033
:10447C002046FFF7DDFE002084F8400010BDB0F1AF
:10448C00007FECD12046FFF7EDFDF4E710F5803FFF
:10449C00EAD023681022DA612046FFF72DF9204676
:1044AC00FFF74CFDE7E723681022DA61636C43F0F9
:1044BC000403636410B1B0F1807FDCD1616C2046E1
:1044CC00FFF71EFED7E711F0040F1FD012F0040FF8
:1044DC001CD0638D9BB273B123685A6A636A1A70DD
:1044EC00636A01336362238D013B2385638D9BB229
:1044FC00013B9BB26385638D9BB2002BBBD110F546
:10450C00803FB8D02046FFF719FDB4E711F0080F33
:10451C0002D012F0080F18D111F0020FABD012F02C
:10452C00020FA8D0638D9BB29BB1626A236812788C
:10453C009A62636A01336362638D9BB2013B9BB2E7
:10454C006385238D013B238595E72046FFF738FDD6
:10455C0091E7B0F1807F01D000288CD12046FFF785
:10456C00EDFC88E7022089E710B5026893691168B1
:10457C0013F4807F09D011F0800F06D0446C44F006
:10458C00010444644FF48074D46113F4806F0AD036
:10459C0011F0800F07D0426C42F0080242640268AE
:1045AC004FF48064D46113F4007F0AD011F0800FB3
:1045BC0007D0436C43F00203436403684FF400726A
:1045CC00DA61416C11F00B0F00D110BDFFF798FDB3
:1045DC00FBE708B5806A836B0BB100229A63C36B4F
:1045EC000BB100229A63FFF773FD08BD034690F8E8
:1045FC004120D2B2202A23D190F84020012A21D088
:10460C00012280F84020242280F8412000680268B2
:10461C0022F0010202601868026822F480520260E3
:10462C00186802681143016019680A6842F00102B7
:10463C000A60202283F84120002083F84000704754
:10464C000220704702207047034690F84120D2B2F6
:10465C00202A21D190F84020012A1FD0012280F875
:10466C004020242280F841200068026822F00102D8
:10467C0002601868026822F4706242EA0122026049
:10468C0019680A6842F001020A60202283F841206E
:10469C00002083F8400070470220704702207047CA
:1046AC00024A536803435360704700BF0000014047
:1046BC0090F83D30DBB2012B22D1022380F83D3043
:1046CC000268D36843F00103D36003680F4A934236
:1046DC0008D0B3F1804F05D01A6842F001021A607D
:1046EC000020704799680A4A0A40062A0AD0B2F597
:1046FC00803F09D01A6842F001021A60002070470E
:10470C00012070470020704700207047002C0140AA
:10471C0007000100704770477047704770B504463A
:10472C000368DE681D6915F0020F10D016F0020F39
:10473C000DD06FF002021A610123037703689B69A5
:10474C0013F0030F64D0FFF7E6FF0023237715F077
:10475C00040F12D016F0040F0FD023686FF0040270
:10476C001A610223237723689B6913F4407F55D089
:10477C002046FFF7D0FF0023237715F0080F12D047
:10478C0016F0080F0FD023686FF008021A6104238B
:10479C0023772368DB6913F0030F46D02046FFF71D
:1047AC00BAFF0023237715F0100F12D016F0100F5C
:1047BC000FD023686FF010021A6108232377236847
:1047CC00DB6913F4407F37D02046FFF7A4FF0023AA
:1047DC00237715F0010F02D016F0010F33D115F429
:1047EC00025F02D016F0800F35D115F4807F02D015
:1047FC0016F0800F37D115F0400F02D016F0400F95
:10480C0039D115F0200F02D016F0200F3BD170BD1E
:10481C00FFF780FF2046FFF77FFF96E72046FFF764
:10482C0079FF2046FFF778FFA5E72046FFF772FFD8
:10483C002046FFF771FFB4E72046FFF76BFF2046D9
:10484C00FFF76AFFC3E723686FF001021A61204685
:10485C00FBF7A4FEC3E723686FF402521A612046EB
:10486C0000F087F8C1E723686FF480721A61204664
:10487C0000F080F8BFE723686FF040021A61204611
:10488C00FFF74BFFBDE723686FF020021A6120464B
:10489C0000F06EF8BBE7000003681C4A904202D09F
:1048AC00B0F1804F03D123F070034A681343174AC9
:1048BC0090420AD0B0F1804F07D002F5C05290421E
:1048CC0003D002F58062904203D123F44073CA688E
:1048DC00134323F080034A6913438A68C2620A684F
:1048EC0082620A4A904207D002F5C052904203D02D
:1048FC0002F58062904201D10A690263026842F0BB
:10490C00040202600122426103607047002C0140E6
:10491C0060B310B5044690F83D3013B3022384F80D
:10492C003D30214651F8040BFFF7B6FF012384F804
:10493C00483084F83E3084F83F3084F8403084F8B6
:10494C00413084F8423084F8433084F8443084F8A1
:10495C00453084F8463084F8473084F83D300020E8
:10496C0010BD80F83C30FCF7DDF9D7E7012070472B
:10497C00704770477047704770470000002309E08C
:10498C0000EB8302054951609A1D00EB8202044939
:10499C0051600133052BF3D9704700BF83490008E0
:1049AC0085490008002303604FF03F1343603F2309
:1049BC0083607047C0B138B5044690F8383083B185
:1049CC000A4D2846FFF7EEFF2B6843F001132B60CE
:1049DC002046FFF7D3FF00206063012384F83830B2
:1049EC0038BDFCF785F8EBE701207047000C005848
:1049FC0038B5044603680A4ADA60FDF7EFFD054650
:104A0C002368DB6813F0200F07D1FDF7E7FD401B8F
:104A1C00B0F57A7FF4D9032000E0002038BD00BF48
:104A2C005FFF010070B50368DA6812F0400F02D026
:104A3C000025284670BD0446DA6842F08002DA6030
:104A4C00FDF7CCFD064600252368DB6813F0400F0C
:104A5C00EFD1002DEDD1FDF7C1FD831BB3F57A7FAE
:104A6C00F2D9042384F821300125EDE70268D368DC
:104A7C0023F08003D36003689B6813F0200F01D0F0
:104A8C000020704710B50446FFF7B2FF18B104239D
:104A9C0084F82130012010BD002850D038B50446D0
:104AAC0090F8213063B1022384F821302368DA684E
:104ABC0012F0100F09D00020012384F8213038BDEA
:104ACC0080F82030FCF7F4F8EDE7CA225A6223682C
:104ADC0053225A622046FFF7A5FF28B12368FF2214
:104AEC005A620028EBD1E7E72268936823F4E003CD
:104AFC0023F04003936021688A686368206903434C
:104B0C00A069034313438B602368E2681A6122682F
:104B1C001369A16843EA014313612046FFF7A6FF1E
:104B2C000028DBD12268D36C23F00303D364216803
:104B3C00CB6CE26965692A431343CB64CEE7012051
:104B4C007047000010B483B08446464B1868464B3F
:104B5C00A3FB0030C00A4FF47A7303FB00F0019002
:104B6C009CF82030012B7AD001238CF820300223C2
:104B7C008CF82130DCF80030CA245C62DCF80030A0
:104B8C0053245C62DCF80040A36813F4806F09D0F6
:104B9C00019B013B0193019B002B49D0E36813F06F
:104BAC00040FF5D1A36823F48063A360DCF8004004
:104BBC00E368DBB263F49063E3600190019B013B1B
:104BCC000193019B002B3CD0DCF80030D86810F02E
:104BDC00040FF3D0986820F007009860DCF8000010
:104BEC00836813438360DCF8003059611F4BD3F8A2
:104BFC00802042F40022C3F880201A6842F400227C
:104C0C001A60DCF80020936843F480439360DCF86E
:104C1C000020936843F480639360DCF80030FF223B
:104C2C005A6201238CF8213000208CF8200012E00D
:104C3C00FF23636203208CF8210000238CF82030C2
:104C4C0009E0DCF80030FF225A6203208CF82100C6
:104C5C0000238CF8203003B05DF8044B7047022021
:104C6C00F9E700BF10000020D34D62100008005877
:104C7C00054BCA225A6253225A629A6822F00702E2
:104C8C009A60FF225A62704700280040704700006B
:104C9C0008B5002001F0B6FA68B181794FF0B04246
:104CAC00054BC2F89C30D2F89C3023F47C5343EA79
:104CBC000123C2F89C3008BDFECAFECA08B54FF0ED
:104CCC00B042936843F40043936002F023F9054A21
:104CDC00D2F8803023F0070343F00403C2F880308D
:104CEC0008BD00BF0004005800B589B001F0EAF817
:104CFC000E4A0021082002F09FFA0D4B00930D4B39
:104D0C00019369460C4801F0F5FF0C4B02930C4BD8
:104D1C0003930C4B049340F23C53059302A801F00F
:104D2C00A5F901F0CBF809B05DF804FB256D00087E
:104D3C00FC030320994C0008B54D0008E401032046
:104D4C00F00203200805032000B585B00023009372
:104D5C0001930293039343685B7B23B1012B1ED019
:104D6C0005B05DF804FB00F08BF80F238DF80030D4
:104D7C007F238DF802300B4A13681B0CADF80C30F6
:104D8C001368C3F30B03ADF80E30684601F0E4F979
:104D9C0000F044FD0021012002F0C6F8E0E70023FA
:104DAC000370DDE7002004E04368B3F80B30B3F583
:104DBC00124F00D0704710B584B00446684601F01D
:104DCC00D9F92046FFF7C0FF04B010BD08B5034B5E
:104DDC004FF400421A61FFF75BFF08BD004000581A
:104DEC00034AD2F8903043F05003C2F89030704729
:104DFC000008005808B5FFF7F3FFFFF739FF08BDAF
:104E0C0008B5FFF7F7FFFFF759FF0349002000F043
:104E1C004BFAFFF769FF08BDD001002038B50446F6
:104E2C00FDF7DCFB0546B4F1FF3F09D0FDF7E2FBD3
:104E3C00044405E0054A136923F00403136130BFF1
:104E4C00FDF7CCFB401BA042F4D338BD00ED00E0D5
:104E5C0008B54FF0FF3002F0C5F808BD704708B533
:104E6C000021082002F076F808BD08B5022002F0F7
:104E7C009FF808BD08B5022002F0B2F908BD000089
:104E8C0010B588B00DF1040C094C0FCCACE80F0038
:104E9C0094E80700ACE803002CF8022B120C8CF8F9
:104EAC00002001F015F901A801F047F908B010BD78
:104EBC0048BC0008064A936A9BB2906A80B203E031
:104ECC00034B9A6A034690B28342F9D1704700BFF4
:104EDC000028004001EB41020D4B03EBC2035B7D4C
:104EEC00DBB2062B05D003EB430C094A02EBCC02D8
:104EFC001075074A00EB400C02EBCC0C8CF815300B
:104F0C008CF8141001EB410102EBC1025075704793
:104F1C0034270020174B1B78DBB28B421DD0164B6D
:104F2C0001EB410203EBC202127D5FFA82FC02EB41
:104F3C00420203EBC202507500EB400203EBC202CB
:104F4C00517500EB400203EBC20282F814C001EB76
:104F5C00410103EBC10318757047074B00EB40028E
:104F6C0003EBC202517501EB410103EBC103187550
:104F7C00704700BF312700203427002010B4234B8A
:104F8C001B78DBB283422CD0214C00EB400204EBAB
:104F9C00C20292F814C0537DDBB2527DD2B20CEB3C
:104FAC004C0C04EBCC046275062B0BD0184A00EBAE
:104FBC00400402EBC404247DE4B203EB430302EB94
:104FCC00C302147500EB4000114B03EBC00301222C
:104FDC001A730E4B1B78DBB2062B10D05DF8044B0A
:104FEC0070470A4C2378DBB20A4A137000EB40027C
:104FFC00074B03EBC2035B7DDBB22370E2E70029B6
:10500C00ECD1054B4FF0FF321A60E7E73127002057
:10501C0034270020302700202C27002008B5104B07
:10502C001B68B3F1FF3F02D1002080B208BDFFF72F
:10503C0041FF0B4B1B6883420AD3094B1B681B1A9D
:10504C00084A107803FB00F0074B1B78D840ECE7BC
:10505C00064B1A88121A024B1B681344F0E700BF68
:10506C002C27002028270020292700202627002075
:10507C0070B50446314B1B78DBB2062B13D12F4A8B
:10508C001378DBB22E490B70107000EB40042D4BE3
:10509C0003EBC404062363752B4B4FF0FF321A60ED
:1050AC000025284670BDFFF7B9FF0546254B04EBDC
:1050BC00440203EBC20291680144916004EB440288
:1050CC0003EBC20290681D4A127802EB420203EB1A
:1050DC00C2039B68834225D8184B1B78D9B203EBCB
:1050EC004303184A02EBC3035B7DDBB20CE0154AA9
:1050FC0001EB410102EBC1014B7DD9B203EB430340
:10510C0002EBC302537DDBB2062B07D003EB430348
:10511C000C4A02EBC3039B688342E8D92046FFF795
:10512C00D9FEBEE7054E31782046FFF7F3FE337803
:10513C00DBB2034A13703470B3E700BF3127002091
:10514C0030270020342700202C27002010B548B32E
:10515C00044601282ED9013CA4B2194B1B68DA680D
:10516C0012F0040FF9D0DA68D2B262F49062DA600D
:10517C00144B4FF40022DA600320FDF7D7F9124AE2
:10518C0053696FF30F031C435461FFF793FE0F4BEE
:10519C0018600B4B1A68936843F480639360AFF309
:1051AC00008010BDFFF786FE084B18600320FDF74A
:1051BC00AFF9F6E7064B1B78012BCCD1CDE700BF3E
:1051CC00D001002000080058002800402C270020A7
:1051DC002927002038B52E4B9B6813F4806F05D01F
:1051EC002C4B1B68DB6813F0040FF9D1294B1A68A0
:1051FC00936823F480639360274B1B78DCB203EB3A
:10520C004303264A02EBC3039D68FFF707FF84465E
:10521C00A84204D9224B01221A70002024E0214B11
:10522C001B8810FA83F3AB4206D21E4B188880B24F
:10523C001B4B00221A7017E0A8B2A0EB0C0080B236
:10524C00174B01221A700FE004EB4404134A02EBD3
:10525C00C404A268A2EB0C02A26003EB43030F4A46
:10526C0002EBC3035C7DE4B2062C0ED0234604EBA8
:10527C0044010A4A02EBC10292689445E4D9074AF8
:10528C0002EBC1040022A260E7E7FFF75FFF38BD25
:10529C0000280040D00100203127002034270020B6
:1052AC002A2700202427002010B5484B1B68CA224F
:1052BC005A6253225A62464B9A6842F020029A6014
:1052CC009A6802F00702C2F10402D2B241490A7094
:1052DC001B6903F4FE034FF4FE0191FAA1F10029BE
:1052EC0031D0B1FA81F1CB40DBB20133DBB23A49B8
:1052FC000B7037490969C1F30E010131374C21801C
:10530C00013901FB03F3A3F5A073D3404FF6FE72F2
:10531C0093421AD9324B4FF6FF721A80314B1A68EE
:10532C0042F400221A60D3F8802042F40022C3F821
:10533C00802000283FD12C4B01221A702B4B4FF0B0
:10534C00FF321A600EE02021CDE79BB2244A138075
:10535C00E4E700EB4002264B03EBC20300221A7376
:10536C000130C0B20528F4D9224B06221A70174C12
:10537C002268936823F480639360D368DBB263F490
:10538C009063D360174B4FF40022DA600320FDF7D3
:10539C00CDF82268936843F4804393600B4B1B68F1
:1053AC00FF225A62002203210846FDF785F80320EC
:1053BC00FDF792F810BD054B1B68DB6813F4806F8A
:1053CC00ECD00320FDF7A4F8E8E700BFD0010020E3
:1053DC00002800402927002028270020262700200D
:1053EC0024270020000800582A2700202C27002002
:1053FC00342700203127002038B50446EFF3108500
:10540C0072B60320FDF76CF8254B1B68CA225A6252
:10541C0053225A6204EB4402224B03EBC2031B7B64
:10542C00DBB2022B09D01E4B1B68FF225A620320F1
:10543C00FDF752F885F3108838BD00212046FFF7A0
:10544C009DFD194B1B78DBB2062B07D0174A12783F
:10545C00D2B29A42E7D0FFF7BDFEE4E7144B9B684B
:10546C0013F4806F05D00E4B1B68DB6813F0040F30
:10547C00F9D10B4B1A68936823F480639360D3685B
:10548C0013F0040FFBD0D368DBB263F49063D360EA
:10549C00084B4FF40022DA600320FDF747F8C2E70F
:1054AC00D001002034270020312700203027002095
:1054BC00002800400008005870B504460D4600EB6B
:1054CC004002214B03EBC2031B7BDBB2022B35D01A
:1054DC00EFF3108672B60320FDF702F81B4B1B6826
:1054EC00CA225A6253225A6204EB4402164B03EB53
:1054FC00C20302221A739D605D602046FFF7B8FD5F
:10550C00134B1B78DBB2134A1278D2B29A4218D1E1
:10551C000D4B04EB440203EBC2029268121A04EB2B
:10552C00440403EBC4039A60084B1B68FF225A62C5
:10553C000320FCF7D1FF86F3108870BDFFF75CFFEA
:10554C00C6E7FFF747FEEFE734270020D001002025
:10555C00312700203027002008B5904708BD0000F7
:10556C00F8B5EFF3108572B6314B1B68CA225A623C
:10557C0053225A629A6822F480629A602D4A1478F7
:10558C00E4B204EB4402D1002B4A0A44127BD2B29F
:10559C00022A13D0DA6812F0040FFBD0DA68D2B208
:1055AC0062F49062DA60254B4FF40022DA6085F3E6
:1055BC0010881F4B1B68FF225A62F8BD1E4A04EB71
:1055CC004401CB00D118D7580E691D4B1B7853B32F
:1055DC004B7BDBB2012B10D085F310882046FFF7F4
:1055EC000BFF134B1B68CA225A6253225A623A466B
:1055FC0021463046FFF7B0FFDBE701212046FFF7DD
:10560C00BDFC85F3108804EB4403DA000A4B134409
:10561C0059682046FFF750FF054B1B68CA225A6297
:10562C0053225A62E3E7FFF7D5FD85F31088C0E7F4
:10563C00D00100203127002034270020000800581A
:10564C002A27002008B5064B93F87430052B00D19F
:10565C0008BD00F032FE024B002283F87420F7E7FD
:10566C00CC27002000B583B0054B0093054B01936C
:10567C006946054801F028FA03B05DF804FB00BF49
:10568C0028000320B35600089956000810B50446AC
:10569C004068083001F014FC10B10123237010BDD8
:1056AC0000232370FBE708B528B1012806D1072099
:1056BC0001F072FC02E0072001F060FC08BD000064
:1056CC0008B50F4BD3F88025B2F1FF3F10D0D3F8BB
:1056DC0084350C480270C2F3072242708370C3F306
:1056EC000722C270C3F3074202711B0E437108BD3F
:1056FC00002000F087FD0028F9D10348F7E700BF30
:10570C000070FF1F4428002020EF000870B588B0FF
:10571C000024ADF8184001F03FF9FFF7D1FF024625
:10572C000621204601F0B8F8294A1021182001F072
:10573C00B3F8284A1021082001F0AEF818210120F6
:10574C0001F0DAF800F079FF0DF11A03019307ABC1
:10575C0000930DF11E0308222146012000F0B7FE34
:10576C001D4B009308232246BDF81C10BDF81E00EB
:10577C0001F035F806AB009302232246BDF81A104F
:10578C00BDF81E0001F02BF802221146204601F054
:10579C0023F9124D01262E70304600F009FE6E7072
:1057AC000823EB7010222A71AC70049403940296B7
:1057BC0001920093234632463146204600F01EFEED
:1057CC00AB780BB908B070BD00F0EDFEFAE700BF86
:1057DC0010EF000800EF0008ACEE0008CC2700200A
:1057EC0000B589B00B4B83F874000020069005902F
:1057FC00049003900290019000900346A022802117
:10580C0000F07CFD04490D2000F0A0FE09B05DF80D
:10581C0004FB00BFCC2700201400002070B592B010
:10582C004322002101A806F0ACF94423ADF818304E
:10583C000823ADF81A304FF4A863ADF81C300226DB
:10584C008DF81E6001248DF81F4022238DF8203026
:10585C0048238DF821304FF49673ADF822304FF475
:10586C00FA73ADF824304FF0FF330A934FF4A4735E
:10587C00ADF82C308DF82E4020238DF831300323D9
:10588C008DF8353040F27263ADF836300D238DF85B
:10589C003C3004258DF83E50FFF7E4FE214630469F
:1058AC0001F042FB164A0021284601F0C5FC0DEB25
:1058BC00050000F033FC00BBFFF728FF01F0E8FA0D
:1058CC00104D002485F874404FF6FF73AB810E4ADF
:1058DC002146012001F0B0FC062001F036F80B4BFC
:1058EC001C7001260A4B1E7000F077F9EC73AC7338
:1058FC003046FFF775FF12B070BDFAF75DFEDBE7BF
:10590C00F96A0008CC27002051560008C527002052
:10591C00C427002008B543783E2B1BD0FF2B35D075
:10592C00052B0FD182882D4B9B899A420CD00120DC
:10593C00FFF756FF2A4801230370284B9B894380AD
:10594C0000F04AF9012008BD244B00229A8183F80B
:10595C007420ECE7C378012BF4D1204B93F874300E
:10596C00042B0ED01D4B052283F87420B0F80530A3
:10597C001A4A93811A4800220270438000F02CF9D5
:10598C00E0E7164B062283F87420EFE7B0F80330FB
:10599C00B3F5006F17D00DD840F20242934216D0E7
:1059AC0040F209429342CDD101210C4B988900F071
:1059BC001BFEC7E740F60E429342C3D1074B9889B2
:1059CC0000F042FFBEE7074B01221A70BAE7064906
:1059DC00024B988900F052FDB4E700BFCC270020A1
:1059EC00C8270020C427002007B2010008B50021F9
:1059FC00042001F0AFFA08BD08B5012001F0D8FA77
:105A0C0008BD08B5012001F0EBFB08BD10B586B050
:105A1C004378FF2B03D00024204606B010BDB0F80D
:105A2C00033040F60142934205D040F61B429342AC
:105A3C001ED00024F0E7B0F80720134B5B8802332C
:105A4C009A4201D00024E7E7447B1CB1012C08D01A
:105A5C000124E1E701248DF8044001A800F0ACF822
:105A6C00DAE700238DF8043001A800F0A5F8D3E79D
:105A7C0002238DF80430B0F80530ADF8143001A8CD
:105A8C0000F09AF80024C7E74C28002030B58BB002
:105A9C003A4801F00BFA8F238DF81830E5238DF876
:105AAC001930B3238DF81A30D5238DF81B302E23E3
:105ABC008DF81C307F238DF81D304A238DF81E3055
:105ACC0098238DF81F302A238DF8203048238DF829
